{
  "_format": "hh-sol-artifact-1",
  "contractName": "FeeSharingSystem",
  "sourceName": "contracts/staking/FeeSharingSystem.sol",
  "abi": [
    {
      "inputs": [
        {
          "internalType": "address",
          "name": "_looksRareToken",
          "type": "address"
        },
        {
          "internalType": "address",
          "name": "_rewardToken",
          "type": "address"
        },
        {
          "internalType": "address",
          "name": "_tokenDistributor",
          "type": "address"
        }
      ],
      "stateMutability": "nonpayable",
      "type": "constructor"
    },
    {
      "anonymous": false,
      "inputs": [
        {
          "indexed": true,
          "internalType": "address",
          "name": "user",
          "type": "address"
        },
        {
          "indexed": false,
          "internalType": "uint256",
          "name": "amount",
          "type": "uint256"
        },
        {
          "indexed": false,
          "internalType": "uint256",
          "name": "harvestedAmount",
          "type": "uint256"
        }
      ],
      "name": "Deposit",
      "type": "event"
    },
    {
      "anonymous": false,
      "inputs": [
        {
          "indexed": true,
          "internalType": "address",
          "name": "user",
          "type": "address"
        },
        {
          "indexed": false,
          "internalType": "uint256",
          "name": "harvestedAmount",
          "type": "uint256"
        }
      ],
      "name": "Harvest",
      "type": "event"
    },
    {
      "anonymous": false,
      "inputs": [
        {
          "indexed": false,
          "internalType": "uint256",
          "name": "numberBlocks",
          "type": "uint256"
        },
        {
          "indexed": false,
          "internalType": "uint256",
          "name": "rewardPerBlock",
          "type": "uint256"
        },
        {
          "indexed": false,
          "internalType": "uint256",
          "name": "reward",
          "type": "uint256"
        }
      ],
      "name": "NewRewardPeriod",
      "type": "event"
    },
    {
      "anonymous": false,
      "inputs": [
        {
          "indexed": true,
          "internalType": "address",
          "name": "previousOwner",
          "type": "address"
        },
        {
          "indexed": true,
          "internalType": "address",
          "name": "newOwner",
          "type": "address"
        }
      ],
      "name": "OwnershipTransferred",
      "type": "event"
    },
    {
      "anonymous": false,
      "inputs": [
        {
          "indexed": true,
          "internalType": "address",
          "name": "user",
          "type": "address"
        },
        {
          "indexed": false,
          "internalType": "uint256",
          "name": "amount",
          "type": "uint256"
        },
        {
          "indexed": false,
          "internalType": "uint256",
          "name": "harvestedAmount",
          "type": "uint256"
        }
      ],
      "name": "Withdraw",
      "type": "event"
    },
    {
      "inputs": [],
      "name": "PRECISION_FACTOR",
      "outputs": [
        {
          "internalType": "uint256",
          "name": "",
          "type": "uint256"
        }
      ],
      "stateMutability": "view",
      "type": "function"
    },
    {
      "inputs": [
        {
          "internalType": "address",
          "name": "user",
          "type": "address"
        }
      ],
      "name": "calculatePendingRewards",
      "outputs": [
        {
          "internalType": "uint256",
          "name": "",
          "type": "uint256"
        }
      ],
      "stateMutability": "view",
      "type": "function"
    },
    {
      "inputs": [],
      "name": "calculateSharePriceInLOOKS",
      "outputs": [
        {
          "internalType": "uint256",
          "name": "",
          "type": "uint256"
        }
      ],
      "stateMutability": "view",
      "type": "function"
    },
    {
      "inputs": [
        {
          "internalType": "address",
          "name": "user",
          "type": "address"
        }
      ],
      "name": "calculateSharesValueInLOOKS",
      "outputs": [
        {
          "internalType": "uint256",
          "name": "",
          "type": "uint256"
        }
      ],
      "stateMutability": "view",
      "type": "function"
    },
    {
      "inputs": [],
      "name": "currentRewardPerBlock",
      "outputs": [
        {
          "internalType": "uint256",
          "name": "",
          "type": "uint256"
        }
      ],
      "stateMutability": "view",
      "type": "function"
    },
    {
      "inputs": [
        {
          "internalType": "uint256",
          "name": "amount",
          "type": "uint256"
        },
        {
          "internalType": "bool",
          "name": "claimRewardToken",
          "type": "bool"
        }
      ],
      "name": "deposit",
      "outputs": [],
      "stateMutability": "nonpayable",
      "type": "function"
    },
    {
      "inputs": [],
      "name": "harvest",
      "outputs": [],
      "stateMutability": "nonpayable",
      "type": "function"
    },
    {
      "inputs": [],
      "name": "hunterGovernanceToken",
      "outputs": [
        {
          "internalType": "contract IERC20",
          "name": "",
          "type": "address"
        }
      ],
      "stateMutability": "view",
      "type": "function"
    },
    {
      "inputs": [],
      "name": "lastRewardAdjustment",
      "outputs": [
        {
          "internalType": "uint256",
          "name": "",
          "type": "uint256"
        }
      ],
      "stateMutability": "view",
      "type": "function"
    },
    {
      "inputs": [],
      "name": "lastRewardBlock",
      "outputs": [
        {
          "internalType": "uint256",
          "name": "",
          "type": "uint256"
        }
      ],
      "stateMutability": "view",
      "type": "function"
    },
    {
      "inputs": [],
      "name": "lastUpdateBlock",
      "outputs": [
        {
          "internalType": "uint256",
          "name": "",
          "type": "uint256"
        }
      ],
      "stateMutability": "view",
      "type": "function"
    },
    {
      "inputs": [],
      "name": "owner",
      "outputs": [
        {
          "internalType": "address",
          "name": "",
          "type": "address"
        }
      ],
      "stateMutability": "view",
      "type": "function"
    },
    {
      "inputs": [],
      "name": "periodEndBlock",
      "outputs": [
        {
          "internalType": "uint256",
          "name": "",
          "type": "uint256"
        }
      ],
      "stateMutability": "view",
      "type": "function"
    },
    {
      "inputs": [],
      "name": "renounceOwnership",
      "outputs": [],
      "stateMutability": "nonpayable",
      "type": "function"
    },
    {
      "inputs": [],
      "name": "rewardPerTokenStored",
      "outputs": [
        {
          "internalType": "uint256",
          "name": "",
          "type": "uint256"
        }
      ],
      "stateMutability": "view",
      "type": "function"
    },
    {
      "inputs": [],
      "name": "rewardToken",
      "outputs": [
        {
          "internalType": "contract IERC20",
          "name": "",
          "type": "address"
        }
      ],
      "stateMutability": "view",
      "type": "function"
    },
    {
      "inputs": [],
      "name": "tokenDistributor",
      "outputs": [
        {
          "internalType": "contract TokenDistributor",
          "name": "",
          "type": "address"
        }
      ],
      "stateMutability": "view",
      "type": "function"
    },
    {
      "inputs": [],
      "name": "totalShares",
      "outputs": [
        {
          "internalType": "uint256",
          "name": "",
          "type": "uint256"
        }
      ],
      "stateMutability": "view",
      "type": "function"
    },
    {
      "inputs": [
        {
          "internalType": "address",
          "name": "newOwner",
          "type": "address"
        }
      ],
      "name": "transferOwnership",
      "outputs": [],
      "stateMutability": "nonpayable",
      "type": "function"
    },
    {
      "inputs": [
        {
          "internalType": "uint256",
          "name": "reward",
          "type": "uint256"
        },
        {
          "internalType": "uint256",
          "name": "rewardDurationInBlocks",
          "type": "uint256"
        }
      ],
      "name": "updateRewards",
      "outputs": [],
      "stateMutability": "nonpayable",
      "type": "function"
    },
    {
      "inputs": [
        {
          "internalType": "address",
          "name": "",
          "type": "address"
        }
      ],
      "name": "userInfo",
      "outputs": [
        {
          "internalType": "uint256",
          "name": "shares",
          "type": "uint256"
        },
        {
          "internalType": "uint256",
          "name": "userRewardPerTokenPaid",
          "type": "uint256"
        },
        {
          "internalType": "uint256",
          "name": "rewards",
          "type": "uint256"
        }
      ],
      "stateMutability": "view",
      "type": "function"
    },
    {
      "inputs": [
        {
          "internalType": "uint256",
          "name": "shares",
          "type": "uint256"
        },
        {
          "internalType": "bool",
          "name": "claimRewardToken",
          "type": "bool"
        }
      ],
      "name": "withdraw",
      "outputs": [],
      "stateMutability": "nonpayable",
      "type": "function"
    },
    {
      "inputs": [
        {
          "internalType": "bool",
          "name": "claimRewardToken",
          "type": "bool"
        }
      ],
      "name": "withdrawAll",
      "outputs": [],
      "stateMutability": "nonpayable",
      "type": "function"
    }
  ],
  "bytecode": "0x60e06040523480156200001157600080fd5b50604051620020ab380380620020ab8339810160408190526200003491620000d1565b6001600055620000443362000062565b6001600160a01b0391821660a0529181166080521660c0526200011b565b600180546001600160a01b038381166001600160a01b0319831681179093556040519116919082907f8be0079c531659141344cd1fd0a4f28419497f9722a3daafe3b4186f6b6457e090600090a35050565b80516001600160a01b0381168114620000cc57600080fd5b919050565b600080600060608486031215620000e757600080fd5b620000f284620000b4565b92506200010260208501620000b4565b91506200011260408501620000b4565b90509250925092565b60805160a05160c051611edb620001d0600039600081816101bd0152818161057a015281816107600152818161080b01528181610a8301528181610b3b01528181610d4501528181610d9801528181610ea701528181610f52015281816111940152818161124c01526113690152600081816103710152818161069f01528181610d03015261141501526000818161034a01528181610be60152818161146b0152818161179e015261188b0152611edb6000f3fe608060405234801561001057600080fd5b506004361061018d5760003560e01c80638da5cb5b116100e3578063cb4aec611161008c578063f2fde38b11610066578063f2fde38b14610332578063f363264a14610345578063f7c618c11461036c57600080fd5b8063cb4aec6114610311578063ccd34cd51461031a578063df136d651461032957600080fd5b8063a218141b116100bd578063a218141b146102ed578063a9f8d181146102f6578063ab5e32af146102fe57600080fd5b80638da5cb5b146102a957806397e50818146102c75780639a408321146102da57600080fd5b80633a98ef39116101455780634641257d1161011f5780634641257d146102915780636de26e3814610299578063715018a6146102a157600080fd5b80633a98ef391461027657806340d2abae1461027f578063442da82f1461028857600080fd5b80631959a002116101765780631959a002146102045780631c1c6fe51461024e57806338d074361461026357600080fd5b8063097aad101461019257806318a6bc32146101b8575b600080fd5b6101a56101a0366004611c29565b610393565b6040519081526020015b60405180910390f35b6101df7f000000000000000000000000000000000000000000000000000000000000000081565b60405173ffffffffffffffffffffffffffffffffffffffff90911681526020016101af565b610233610212366004611c29565b60086020526000908152604090208054600182015460029092015490919083565b604080519384526020840192909252908201526060016101af565b61026161025c366004611c6d565b6103a4565b005b610261610271366004611c8a565b610422565b6101a560075481565b6101a560035481565b6101a560055481565b61026161051d565b6101a5610718565b6102616108e4565b60015473ffffffffffffffffffffffffffffffffffffffff166101df565b6102616102d5366004611cba565b6108f8565b6102616102e8366004611c8a565b6109ab565b6101a560045481565b6101a5610e50565b6101a561030c366004611c29565b610e5f565b6101a560025481565b6101a5670de0b6b3a764000081565b6101a560065481565b610261610340366004611c29565b611065565b6101df7f000000000000000000000000000000000000000000000000000000000000000081565b6101df7f000000000000000000000000000000000000000000000000000000000000000081565b600061039e82611102565b92915050565b600260005414156103fc5760405162461bcd60e51b815260206004820152601f60248201527f5265656e7472616e637947756172643a207265656e7472616e742063616c6c0060448201526064015b60405180910390fd5b600260009081553381526008602052604090205461041a9082611192565b506001600055565b600260005414156104755760405162461bcd60e51b815260206004820152601f60248201527f5265656e7472616e637947756172643a207265656e7472616e742063616c6c0060448201526064016103f3565b600260005581158015906104985750336000908152600860205260409020548211155b61050a5760405162461bcd60e51b815260206004820152603660248201527f57697468647261773a2053686172657320657175616c20746f2030206f72206c60448201527f6172676572207468616e2075736572207368617265730000000000000000000060648201526084016103f3565b6105148282611192565b50506001600055565b600260005414156105705760405162461bcd60e51b815260206004820152601f60248201527f5265656e7472616e637947756172643a207265656e7472616e742063616c6c0060448201526064016103f3565b60026000819055507f000000000000000000000000000000000000000000000000000000000000000073ffffffffffffffffffffffffffffffffffffffff16632a4e051b6040518163ffffffff1660e01b8152600401600060405180830381600087803b1580156105e057600080fd5b505af11580156105f4573d6000803e3d6000fd5b50505050610601336114d4565b33600090815260086020526040902060020154806106865760405162461bcd60e51b8152602060048201526024808201527f486172766573743a2050656e64696e672072657761726473206d75737420626560448201527f203e20300000000000000000000000000000000000000000000000000000000060648201526084016103f3565b336000818152600860205260408120600201556106db907f000000000000000000000000000000000000000000000000000000000000000073ffffffffffffffffffffffffffffffffffffffff169083611536565b60405181815233907fc9695243a805adb74c91f28311176c65b417e842d5699893cef56d18bfa48cba9060200160405180910390a2506001600055565b6040517f1959a002000000000000000000000000000000000000000000000000000000008152306004820152600090819073ffffffffffffffffffffffffffffffffffffffff7f00000000000000000000000000000000000000000000000000000000000000001690631959a00290602401604080518083038186803b1580156107a157600080fd5b505afa1580156107b5573d6000803e3d6000fd5b505050506040513d601f19601f820116820180604052508101906107d99190611cdc565b506040517f097aad100000000000000000000000000000000000000000000000000000000081523060048201529091507f000000000000000000000000000000000000000000000000000000000000000073ffffffffffffffffffffffffffffffffffffffff169063097aad109060240160206040518083038186803b15801561086257600080fd5b505afa158015610876573d6000803e3d6000fd5b505050506040513d601f19601f8201168201806040525081019061089a9190611d00565b6108a49082611d48565b90506007546000146108d4576007546108c5670de0b6b3a764000083611d60565b6108cf9190611d9d565b6108de565b670de0b6b3a76400005b91505090565b6108ec61160f565b6108f66000611676565b565b61090061160f565b600554431061091b576109138183611d9d565b60025561094f565b806002544360055461092d9190611dd8565b6109379190611d60565b6109419084611d48565b61094b9190611d9d565b6002555b436004819055610960908290611d48565b60055560025460408051838152602081019290925281018390527f55b4fa63fe43865f67b4f2c4a4df1cf9e6c1f85767211b44b45cf4649b2c2b519060600160405180910390a15050565b600260005414156109fe5760405162461bcd60e51b815260206004820152601f60248201527f5265656e7472616e637947756172643a207265656e7472616e742063616c6c0060448201526064016103f3565b6002600055670de0b6b3a7640000821015610a815760405162461bcd60e51b815260206004820152602260248201527f4465706f7369743a20416d6f756e74206d757374206265203e3d2031204c4f4f60448201527f4b5300000000000000000000000000000000000000000000000000000000000060648201526084016103f3565b7f000000000000000000000000000000000000000000000000000000000000000073ffffffffffffffffffffffffffffffffffffffff16632a4e051b6040518163ffffffff1660e01b8152600401600060405180830381600087803b158015610ae957600080fd5b505af1158015610afd573d6000803e3d6000fd5b50505050610b0a336114d4565b6040517f1959a0020000000000000000000000000000000000000000000000000000000081523060048201526000907f000000000000000000000000000000000000000000000000000000000000000073ffffffffffffffffffffffffffffffffffffffff1690631959a00290602401604080518083038186803b158015610b9157600080fd5b505afa158015610ba5573d6000803e3d6000fd5b505050506040513d601f19601f82011682018060405250810190610bc99190611cdc565b509050610c0e73ffffffffffffffffffffffffffffffffffffffff7f0000000000000000000000000000000000000000000000000000000000000000163330866116ed565b6000600754600014610c87578160075485610c299190611d60565b610c339190611d9d565b905080610c825760405162461bcd60e51b815260206004820152600d60248201527f4465706f7369743a204661696c0000000000000000000000000000000000000060448201526064016103f3565b610c8a565b50825b3360009081526008602052604081208054839290610ca9908490611d48565b925050819055508060076000828254610cc29190611d48565b90915550600090508315610d3f5750336000908152600860205260409020600201548015610d3f5733600081815260086020526040812060020155610d3f907f000000000000000000000000000000000000000000000000000000000000000073ffffffffffffffffffffffffffffffffffffffff169083611536565b610d69857f0000000000000000000000000000000000000000000000000000000000000000611751565b6040517fb6b55f25000000000000000000000000000000000000000000000000000000008152600481018690527f000000000000000000000000000000000000000000000000000000000000000073ffffffffffffffffffffffffffffffffffffffff169063b6b55f2590602401600060405180830381600087803b158015610df157600080fd5b505af1158015610e05573d6000803e3d6000fd5b505060408051888152602081018590523393507f90890809c654f11d6e72a28fa60149770a0d11ec6c92319d6ceb2bb0a4ea1a1592500160405180910390a250506001600055505050565b6000610e5a61190b565b905090565b6040517f1959a002000000000000000000000000000000000000000000000000000000008152306004820152600090819073ffffffffffffffffffffffffffffffffffffffff7f00000000000000000000000000000000000000000000000000000000000000001690631959a00290602401604080518083038186803b158015610ee857600080fd5b505afa158015610efc573d6000803e3d6000fd5b505050506040513d601f19601f82011682018060405250810190610f209190611cdc565b506040517f097aad100000000000000000000000000000000000000000000000000000000081523060048201529091507f000000000000000000000000000000000000000000000000000000000000000073ffffffffffffffffffffffffffffffffffffffff169063097aad109060240160206040518083038186803b158015610fa957600080fd5b505afa158015610fbd573d6000803e3d6000fd5b505050506040513d601f19601f82011682018060405250810190610fe19190611d00565b610feb9082611d48565b73ffffffffffffffffffffffffffffffffffffffff84166000908152600860205260409020549091501561105b5760075473ffffffffffffffffffffffffffffffffffffffff841660009081526008602052604090205461104c9083611d60565b6110569190611d9d565b61105e565b60005b9392505050565b61106d61160f565b73ffffffffffffffffffffffffffffffffffffffff81166110f65760405162461bcd60e51b815260206004820152602660248201527f4f776e61626c653a206e6577206f776e657220697320746865207a65726f206160448201527f646472657373000000000000000000000000000000000000000000000000000060648201526084016103f3565b6110ff81611676565b50565b73ffffffffffffffffffffffffffffffffffffffff811660009081526008602052604081206002810154600190910154670de0b6b3a764000090611144611922565b61114e9190611dd8565b73ffffffffffffffffffffffffffffffffffffffff851660009081526008602052604090205461117e9190611d60565b6111889190611d9d565b61039e9190611d48565b7f000000000000000000000000000000000000000000000000000000000000000073ffffffffffffffffffffffffffffffffffffffff16632a4e051b6040518163ffffffff1660e01b8152600401600060405180830381600087803b1580156111fa57600080fd5b505af115801561120e573d6000803e3d6000fd5b5050505061121b336114d4565b6040517f1959a0020000000000000000000000000000000000000000000000000000000081523060048201526000907f000000000000000000000000000000000000000000000000000000000000000073ffffffffffffffffffffffffffffffffffffffff1690631959a00290602401604080518083038186803b1580156112a257600080fd5b505afa1580156112b6573d6000803e3d6000fd5b505050506040513d601f19601f820116820180604052508101906112da9190611cdc565b509050600060075484836112ee9190611d60565b6112f89190611d9d565b3360009081526008602052604081208054929350869290919061131c908490611dd8565b9250508190555083600760008282546113359190611dd8565b90915550506040517f2e1a7d4d000000000000000000000000000000000000000000000000000000008152600481018290527f000000000000000000000000000000000000000000000000000000000000000073ffffffffffffffffffffffffffffffffffffffff1690632e1a7d4d90602401600060405180830381600087803b1580156113c257600080fd5b505af11580156113d6573d6000803e3d6000fd5b505050506000831561145157503360009081526008602052604090206002015480156114515733600081815260086020526040812060020155611451907f000000000000000000000000000000000000000000000000000000000000000073ffffffffffffffffffffffffffffffffffffffff169083611536565b61149273ffffffffffffffffffffffffffffffffffffffff7f0000000000000000000000000000000000000000000000000000000000000000163384611536565b604080518381526020810183905233917ff279e6a1f5e320cca91135676d9cb6e44ca8a08c0b88342bcdb1144f6511b568910160405180910390a25050505050565b60045443146114f4576114e5611922565b6006556114f061190b565b6004555b6114fd81611102565b73ffffffffffffffffffffffffffffffffffffffff90911660009081526008602052604090206002810191909155600654600190910155565b60405173ffffffffffffffffffffffffffffffffffffffff831660248201526044810182905261160a9084907fa9059cbb00000000000000000000000000000000000000000000000000000000906064015b604080517fffffffffffffffffffffffffffffffffffffffffffffffffffffffffffffffe08184030181529190526020810180517bffffffffffffffffffffffffffffffffffffffffffffffffffffffff167fffffffff0000000000000000000000000000000000000000000000000000000090931692909217909152611985565b505050565b60015473ffffffffffffffffffffffffffffffffffffffff1633146108f65760405162461bcd60e51b815260206004820181905260248201527f4f776e61626c653a2063616c6c6572206973206e6f7420746865206f776e657260448201526064016103f3565b6001805473ffffffffffffffffffffffffffffffffffffffff8381167fffffffffffffffffffffffff0000000000000000000000000000000000000000831681179093556040519116919082907f8be0079c531659141344cd1fd0a4f28419497f9722a3daafe3b4186f6b6457e090600090a35050565b60405173ffffffffffffffffffffffffffffffffffffffff8085166024830152831660448201526064810182905261174b9085907f23b872dd0000000000000000000000000000000000000000000000000000000090608401611588565b50505050565b6040517fdd62ed3e00000000000000000000000000000000000000000000000000000000815230600482015273ffffffffffffffffffffffffffffffffffffffff828116602483015283917f00000000000000000000000000000000000000000000000000000000000000009091169063dd62ed3e9060440160206040518083038186803b1580156117e257600080fd5b505afa1580156117f6573d6000803e3d6000fd5b505050506040513d601f19601f8201168201806040525081019061181a9190611d00565b1015611907576040517f095ea7b300000000000000000000000000000000000000000000000000000000815273ffffffffffffffffffffffffffffffffffffffff82811660048301527fffffffffffffffffffffffffffffffffffffffffffffffffffffffffffffffff60248301527f0000000000000000000000000000000000000000000000000000000000000000169063095ea7b390604401602060405180830381600087803b1580156118cf57600080fd5b505af11580156118e3573d6000803e3d6000fd5b505050506040513d601f19601f8201168201806040525081019061160a9190611def565b5050565b6000600554431061191d575060055490565b504390565b600060075460001415611936575060065490565b600754670de0b6b3a764000060025461194f9190611d60565b60045461195a61190b565b6119649190611dd8565b61196e9190611d60565b6119789190611d9d565b600654610e5a9190611d48565b60006119e7826040518060400160405280602081526020017f5361666545524332303a206c6f772d6c6576656c2063616c6c206661696c65648152508573ffffffffffffffffffffffffffffffffffffffff16611a779092919063ffffffff16565b80519091501561160a5780806020019051810190611a059190611def565b61160a5760405162461bcd60e51b815260206004820152602a60248201527f5361666545524332303a204552433230206f7065726174696f6e20646964206e60448201527f6f7420737563636565640000000000000000000000000000000000000000000060648201526084016103f3565b6060611a868484600085611a8e565b949350505050565b606082471015611b065760405162461bcd60e51b815260206004820152602660248201527f416464726573733a20696e73756666696369656e742062616c616e636520666f60448201527f722063616c6c000000000000000000000000000000000000000000000000000060648201526084016103f3565b73ffffffffffffffffffffffffffffffffffffffff85163b611b6a5760405162461bcd60e51b815260206004820152601d60248201527f416464726573733a2063616c6c20746f206e6f6e2d636f6e747261637400000060448201526064016103f3565b6000808673ffffffffffffffffffffffffffffffffffffffff168587604051611b939190611e38565b60006040518083038185875af1925050503d8060008114611bd0576040519150601f19603f3d011682016040523d82523d6000602084013e611bd5565b606091505b5091509150611be5828286611bf0565b979650505050505050565b60608315611bff57508161105e565b825115611c0f5782518084602001fd5b8160405162461bcd60e51b81526004016103f39190611e54565b600060208284031215611c3b57600080fd5b813573ffffffffffffffffffffffffffffffffffffffff8116811461105e57600080fd5b80151581146110ff57600080fd5b600060208284031215611c7f57600080fd5b813561105e81611c5f565b60008060408385031215611c9d57600080fd5b823591506020830135611caf81611c5f565b809150509250929050565b60008060408385031215611ccd57600080fd5b50508035926020909101359150565b60008060408385031215611cef57600080fd5b505080516020909101519092909150565b600060208284031215611d1257600080fd5b5051919050565b7f4e487b7100000000000000000000000000000000000000000000000000000000600052601160045260246000fd5b60008219821115611d5b57611d5b611d19565b500190565b6000817fffffffffffffffffffffffffffffffffffffffffffffffffffffffffffffffff0483118215151615611d9857611d98611d19565b500290565b600082611dd3577f4e487b7100000000000000000000000000000000000000000000000000000000600052601260045260246000fd5b500490565b600082821015611dea57611dea611d19565b500390565b600060208284031215611e0157600080fd5b815161105e81611c5f565b60005b83811015611e27578181015183820152602001611e0f565b8381111561174b5750506000910152565b60008251611e4a818460208701611e0c565b9190910192915050565b6020815260008251806020840152611e73816040850160208701611e0c565b601f017fffffffffffffffffffffffffffffffffffffffffffffffffffffffffffffffe016919091016040019291505056fea2646970667358221220a2d3041830d508939390778cf4f4131ec46c980741dfd117dc3c7ff1cd6efac664736f6c63430008090033",
  "linkReferences": {},
  "deployedLinkReferences": {}
}