{
  "_format": "hh-sol-artifact-1",
  "contractName": "MockERC1155",
  "sourceName": "contracts/test/MockERC1155.sol",
  "abi": [
    {
      "inputs": [],
      "stateMutability": "nonpayable",
      "type": "constructor"
    },
    {
      "anonymous": false,
      "inputs": [
        {
          "indexed": true,
          "internalType": "address",
          "name": "account",
          "type": "address"
        },
        {
          "indexed": true,
          "internalType": "address",
          "name": "operator",
          "type": "address"
        },
        {
          "indexed": false,
          "internalType": "bool",
          "name": "approved",
          "type": "bool"
        }
      ],
      "name": "ApprovalForAll",
      "type": "event"
    },
    {
      "anonymous": false,
      "inputs": [
        {
          "indexed": true,
          "internalType": "address",
          "name": "operator",
          "type": "address"
        },
        {
          "indexed": true,
          "internalType": "address",
          "name": "from",
          "type": "address"
        },
        {
          "indexed": true,
          "internalType": "address",
          "name": "to",
          "type": "address"
        },
        {
          "indexed": false,
          "internalType": "uint256[]",
          "name": "ids",
          "type": "uint256[]"
        },
        {
          "indexed": false,
          "internalType": "uint256[]",
          "name": "values",
          "type": "uint256[]"
        }
      ],
      "name": "TransferBatch",
      "type": "event"
    },
    {
      "anonymous": false,
      "inputs": [
        {
          "indexed": true,
          "internalType": "address",
          "name": "operator",
          "type": "address"
        },
        {
          "indexed": true,
          "internalType": "address",
          "name": "from",
          "type": "address"
        },
        {
          "indexed": true,
          "internalType": "address",
          "name": "to",
          "type": "address"
        },
        {
          "indexed": false,
          "internalType": "uint256",
          "name": "id",
          "type": "uint256"
        },
        {
          "indexed": false,
          "internalType": "uint256",
          "name": "value",
          "type": "uint256"
        }
      ],
      "name": "TransferSingle",
      "type": "event"
    },
    {
      "anonymous": false,
      "inputs": [
        {
          "indexed": false,
          "internalType": "string",
          "name": "value",
          "type": "string"
        },
        {
          "indexed": true,
          "internalType": "uint256",
          "name": "id",
          "type": "uint256"
        }
      ],
      "name": "URI",
      "type": "event"
    },
    {
      "inputs": [
        {
          "internalType": "address",
          "name": "account",
          "type": "address"
        },
        {
          "internalType": "uint256",
          "name": "id",
          "type": "uint256"
        }
      ],
      "name": "balanceOf",
      "outputs": [
        {
          "internalType": "uint256",
          "name": "",
          "type": "uint256"
        }
      ],
      "stateMutability": "view",
      "type": "function"
    },
    {
      "inputs": [
        {
          "internalType": "address[]",
          "name": "accounts",
          "type": "address[]"
        },
        {
          "internalType": "uint256[]",
          "name": "ids",
          "type": "uint256[]"
        }
      ],
      "name": "balanceOfBatch",
      "outputs": [
        {
          "internalType": "uint256[]",
          "name": "",
          "type": "uint256[]"
        }
      ],
      "stateMutability": "view",
      "type": "function"
    },
    {
      "inputs": [
        {
          "internalType": "address",
          "name": "account",
          "type": "address"
        },
        {
          "internalType": "address",
          "name": "operator",
          "type": "address"
        }
      ],
      "name": "isApprovedForAll",
      "outputs": [
        {
          "internalType": "bool",
          "name": "",
          "type": "bool"
        }
      ],
      "stateMutability": "view",
      "type": "function"
    },
    {
      "inputs": [
        {
          "internalType": "uint256",
          "name": "tokenId",
          "type": "uint256"
        },
        {
          "internalType": "uint256",
          "name": "amount",
          "type": "uint256"
        },
        {
          "internalType": "address",
          "name": "to",
          "type": "address"
        }
      ],
      "name": "mint",
      "outputs": [],
      "stateMutability": "nonpayable",
      "type": "function"
    },
    {
      "inputs": [
        {
          "internalType": "address",
          "name": "from",
          "type": "address"
        },
        {
          "internalType": "address",
          "name": "to",
          "type": "address"
        },
        {
          "internalType": "uint256[]",
          "name": "ids",
          "type": "uint256[]"
        },
        {
          "internalType": "uint256[]",
          "name": "amounts",
          "type": "uint256[]"
        },
        {
          "internalType": "bytes",
          "name": "data",
          "type": "bytes"
        }
      ],
      "name": "safeBatchTransferFrom",
      "outputs": [],
      "stateMutability": "nonpayable",
      "type": "function"
    },
    {
      "inputs": [
        {
          "internalType": "address",
          "name": "from",
          "type": "address"
        },
        {
          "internalType": "address",
          "name": "to",
          "type": "address"
        },
        {
          "internalType": "uint256",
          "name": "id",
          "type": "uint256"
        },
        {
          "internalType": "uint256",
          "name": "amount",
          "type": "uint256"
        },
        {
          "internalType": "bytes",
          "name": "data",
          "type": "bytes"
        }
      ],
      "name": "safeTransferFrom",
      "outputs": [],
      "stateMutability": "nonpayable",
      "type": "function"
    },
    {
      "inputs": [
        {
          "internalType": "address",
          "name": "operator",
          "type": "address"
        },
        {
          "internalType": "bool",
          "name": "approved",
          "type": "bool"
        }
      ],
      "name": "setApprovalForAll",
      "outputs": [],
      "stateMutability": "nonpayable",
      "type": "function"
    },
    {
      "inputs": [
        {
          "internalType": "bytes4",
          "name": "interfaceId",
          "type": "bytes4"
        }
      ],
      "name": "supportsInterface",
      "outputs": [
        {
          "internalType": "bool",
          "name": "",
          "type": "bool"
        }
      ],
      "stateMutability": "view",
      "type": "function"
    },
    {
      "inputs": [
        {
          "internalType": "uint256",
          "name": "",
          "type": "uint256"
        }
      ],
      "name": "uri",
      "outputs": [
        {
          "internalType": "string",
          "name": "",
          "type": "string"
        }
      ],
      "stateMutability": "view",
      "type": "function"
    }
  ],
  "bytecode": "0x60806040523480156200001157600080fd5b506040805160208101909152600081526200002c8162000033565b506200012f565b8051620000489060029060208401906200004c565b5050565b8280546200005a90620000f2565b90600052602060002090601f0160209004810192826200007e5760008555620000c9565b82601f106200009957805160ff1916838001178555620000c9565b82800160010185558215620000c9579182015b82811115620000c9578251825591602001919060010190620000ac565b50620000d7929150620000db565b5090565b5b80821115620000d75760008155600101620000dc565b600181811c908216806200010757607f821691505b602082108114156200012957634e487b7160e01b600052602260045260246000fd5b50919050565b611b36806200013f6000396000f3fe608060405234801561001057600080fd5b50600436106100a25760003560e01c80634e1273f411610076578063e7d3fe6b1161005b578063e7d3fe6b14610158578063e985e9c51461016b578063f242432a146101b457600080fd5b80634e1273f414610125578063a22cb4651461014557600080fd5b8062fdd58e146100a757806301ffc9a7146100cd5780630e89341c146100f05780632eb2c2d614610110575b600080fd5b6100ba6100b53660046112b0565b6101c7565b6040519081526020015b60405180910390f35b6100e06100db36600461130b565b61028a565b60405190151581526020016100c4565b6101036100fe36600461132f565b61036f565b6040516100c491906113b3565b61012361011e366004611567565b610403565b005b610138610133366004611611565b6104b2565b6040516100c49190611717565b61012361015336600461172a565b6105f0565b610123610166366004611766565b6105ff565b6100e061017936600461179b565b73ffffffffffffffffffffffffffffffffffffffff918216600090815260016020908152604080832093909416825291909152205460ff1690565b6101236101c23660046117ce565b61061f565b600073ffffffffffffffffffffffffffffffffffffffff83166102575760405162461bcd60e51b815260206004820152602a60248201527f455243313135353a2061646472657373207a65726f206973206e6f742061207660448201527f616c6964206f776e65720000000000000000000000000000000000000000000060648201526084015b60405180910390fd5b5060009081526020818152604080832073ffffffffffffffffffffffffffffffffffffffff949094168352929052205490565b60007fffffffff0000000000000000000000000000000000000000000000000000000082167fd9b67a2600000000000000000000000000000000000000000000000000000000148061031d57507fffffffff0000000000000000000000000000000000000000000000000000000082167f0e89341c00000000000000000000000000000000000000000000000000000000145b8061036957507f01ffc9a7000000000000000000000000000000000000000000000000000000007fffffffff000000000000000000000000000000000000000000000000000000008316145b92915050565b60606002805461037e90611833565b80601f01602080910402602001604051908101604052809291908181526020018280546103aa90611833565b80156103f75780601f106103cc576101008083540402835291602001916103f7565b820191906000526020600020905b8154815290600101906020018083116103da57829003601f168201915b50505050509050919050565b73ffffffffffffffffffffffffffffffffffffffff851633148061042c575061042c8533610179565b61049e5760405162461bcd60e51b815260206004820152602f60248201527f455243313135353a2063616c6c6572206973206e6f7420746f6b656e206f776e60448201527f6572206e6f7220617070726f7665640000000000000000000000000000000000606482015260840161024e565b6104ab85858585856106c7565b5050505050565b6060815183511461052b5760405162461bcd60e51b815260206004820152602960248201527f455243313135353a206163636f756e747320616e6420696473206c656e67746860448201527f206d69736d617463680000000000000000000000000000000000000000000000606482015260840161024e565b6000835167ffffffffffffffff811115610547576105476113c6565b604051908082528060200260200182016040528015610570578160200160208202803683370190505b50905060005b84518110156105e8576105bb85828151811061059457610594611887565b60200260200101518583815181106105ae576105ae611887565b60200260200101516101c7565b8282815181106105cd576105cd611887565b60209081029190910101526105e1816118e5565b9050610576565b509392505050565b6105fb3383836109b3565b5050565b61061a81848460405180602001604052806000815250610aed565b505050565b73ffffffffffffffffffffffffffffffffffffffff851633148061064857506106488533610179565b6106ba5760405162461bcd60e51b815260206004820152602f60248201527f455243313135353a2063616c6c6572206973206e6f7420746f6b656e206f776e60448201527f6572206e6f7220617070726f7665640000000000000000000000000000000000606482015260840161024e565b6104ab8585858585610c44565b815183511461073e5760405162461bcd60e51b815260206004820152602860248201527f455243313135353a2069647320616e6420616d6f756e7473206c656e6774682060448201527f6d69736d61746368000000000000000000000000000000000000000000000000606482015260840161024e565b73ffffffffffffffffffffffffffffffffffffffff84166107c75760405162461bcd60e51b815260206004820152602560248201527f455243313135353a207472616e7366657220746f20746865207a65726f20616460448201527f6472657373000000000000000000000000000000000000000000000000000000606482015260840161024e565b3360005b845181101561091e5760008582815181106107e8576107e8611887565b60200260200101519050600085838151811061080657610806611887565b6020908102919091018101516000848152808352604080822073ffffffffffffffffffffffffffffffffffffffff8e1683529093529190912054909150818110156108b95760405162461bcd60e51b815260206004820152602a60248201527f455243313135353a20696e73756666696369656e742062616c616e636520666f60448201527f72207472616e7366657200000000000000000000000000000000000000000000606482015260840161024e565b60008381526020818152604080832073ffffffffffffffffffffffffffffffffffffffff8e8116855292528083208585039055908b1682528120805484929061090390849061191e565b9250508190555050505080610917906118e5565b90506107cb565b508473ffffffffffffffffffffffffffffffffffffffff168673ffffffffffffffffffffffffffffffffffffffff168273ffffffffffffffffffffffffffffffffffffffff167f4a39dc06d4c0dbc64b70af90fd698a233a518aa5d07e595d983b8c0526c8f7fb8787604051610995929190611936565b60405180910390a46109ab818787878787610e4e565b505050505050565b8173ffffffffffffffffffffffffffffffffffffffff168373ffffffffffffffffffffffffffffffffffffffff161415610a555760405162461bcd60e51b815260206004820152602960248201527f455243313135353a2073657474696e6720617070726f76616c2073746174757360448201527f20666f722073656c660000000000000000000000000000000000000000000000606482015260840161024e565b73ffffffffffffffffffffffffffffffffffffffff83811660008181526001602090815260408083209487168084529482529182902080547fffffffffffffffffffffffffffffffffffffffffffffffffffffffffffffff001686151590811790915591519182527f17307eab39ab6107e8899845ad3d59bd9653f200f220920489ca2b5937696c31910160405180910390a3505050565b73ffffffffffffffffffffffffffffffffffffffff8416610b765760405162461bcd60e51b815260206004820152602160248201527f455243313135353a206d696e7420746f20746865207a65726f2061646472657360448201527f7300000000000000000000000000000000000000000000000000000000000000606482015260840161024e565b336000610b828561109a565b90506000610b8f8561109a565b905060008681526020818152604080832073ffffffffffffffffffffffffffffffffffffffff8b16845290915281208054879290610bce90849061191e565b9091555050604080518781526020810187905273ffffffffffffffffffffffffffffffffffffffff808a1692600092918716917fc3d58168c5ae7397731d063d5bbf3d657854427343f4c083240f7aacaa2d0f62910160405180910390a4610c3b836000898989896110e5565b50505050505050565b73ffffffffffffffffffffffffffffffffffffffff8416610ccd5760405162461bcd60e51b815260206004820152602560248201527f455243313135353a207472616e7366657220746f20746865207a65726f20616460448201527f6472657373000000000000000000000000000000000000000000000000000000606482015260840161024e565b336000610cd98561109a565b90506000610ce68561109a565b905060008681526020818152604080832073ffffffffffffffffffffffffffffffffffffffff8c16845290915290205485811015610d8c5760405162461bcd60e51b815260206004820152602a60248201527f455243313135353a20696e73756666696369656e742062616c616e636520666f60448201527f72207472616e7366657200000000000000000000000000000000000000000000606482015260840161024e565b60008781526020818152604080832073ffffffffffffffffffffffffffffffffffffffff8d8116855292528083208985039055908a16825281208054889290610dd690849061191e565b9091555050604080518881526020810188905273ffffffffffffffffffffffffffffffffffffffff808b16928c821692918816917fc3d58168c5ae7397731d063d5bbf3d657854427343f4c083240f7aacaa2d0f62910160405180910390a4610e43848a8a8a8a8a6110e5565b505050505050505050565b73ffffffffffffffffffffffffffffffffffffffff84163b156109ab576040517fbc197c8100000000000000000000000000000000000000000000000000000000815273ffffffffffffffffffffffffffffffffffffffff85169063bc197c8190610ec59089908990889088908890600401611964565b602060405180830381600087803b158015610edf57600080fd5b505af1925050508015610f2d575060408051601f3d9081017fffffffffffffffffffffffffffffffffffffffffffffffffffffffffffffffe0168201909252610f2a918101906119cf565b60015b610fe357610f396119ec565b806308c379a01415610f735750610f4e611a08565b80610f595750610f75565b8060405162461bcd60e51b815260040161024e91906113b3565b505b60405162461bcd60e51b815260206004820152603460248201527f455243313135353a207472616e7366657220746f206e6f6e204552433131353560448201527f526563656976657220696d706c656d656e746572000000000000000000000000606482015260840161024e565b7fffffffff0000000000000000000000000000000000000000000000000000000081167fbc197c810000000000000000000000000000000000000000000000000000000014610c3b5760405162461bcd60e51b815260206004820152602860248201527f455243313135353a204552433131353552656365697665722072656a6563746560448201527f6420746f6b656e73000000000000000000000000000000000000000000000000606482015260840161024e565b604080516001808252818301909252606091600091906020808301908036833701905050905082816000815181106110d4576110d4611887565b602090810291909101015292915050565b73ffffffffffffffffffffffffffffffffffffffff84163b156109ab576040517ff23a6e6100000000000000000000000000000000000000000000000000000000815273ffffffffffffffffffffffffffffffffffffffff85169063f23a6e619061115c9089908990889088908890600401611ab0565b602060405180830381600087803b15801561117657600080fd5b505af19250505080156111c4575060408051601f3d9081017fffffffffffffffffffffffffffffffffffffffffffffffffffffffffffffffe01682019092526111c1918101906119cf565b60015b6111d057610f396119ec565b7fffffffff0000000000000000000000000000000000000000000000000000000081167ff23a6e610000000000000000000000000000000000000000000000000000000014610c3b5760405162461bcd60e51b815260206004820152602860248201527f455243313135353a204552433131353552656365697665722072656a6563746560448201527f6420746f6b656e73000000000000000000000000000000000000000000000000606482015260840161024e565b803573ffffffffffffffffffffffffffffffffffffffff811681146112ab57600080fd5b919050565b600080604083850312156112c357600080fd5b6112cc83611287565b946020939093013593505050565b7fffffffff000000000000000000000000000000000000000000000000000000008116811461130857600080fd5b50565b60006020828403121561131d57600080fd5b8135611328816112da565b9392505050565b60006020828403121561134157600080fd5b5035919050565b6000815180845260005b8181101561136e57602081850181015186830182015201611352565b81811115611380576000602083870101525b50601f017fffffffffffffffffffffffffffffffffffffffffffffffffffffffffffffffe0169290920160200192915050565b6020815260006113286020830184611348565b7f4e487b7100000000000000000000000000000000000000000000000000000000600052604160045260246000fd5b7fffffffffffffffffffffffffffffffffffffffffffffffffffffffffffffffe0601f830116810181811067ffffffffffffffff82111715611439576114396113c6565b6040525050565b600067ffffffffffffffff82111561145a5761145a6113c6565b5060051b60200190565b600082601f83011261147557600080fd5b8135602061148282611440565b60405161148f82826113f5565b83815260059390931b85018201928281019150868411156114af57600080fd5b8286015b848110156114ca57803583529183019183016114b3565b509695505050505050565b600082601f8301126114e657600080fd5b813567ffffffffffffffff811115611500576115006113c6565b60405161153560207fffffffffffffffffffffffffffffffffffffffffffffffffffffffffffffffe0601f85011601826113f5565b81815284602083860101111561154a57600080fd5b816020850160208301376000918101602001919091529392505050565b600080600080600060a0868803121561157f57600080fd5b61158886611287565b945061159660208701611287565b9350604086013567ffffffffffffffff808211156115b357600080fd5b6115bf89838a01611464565b945060608801359150808211156115d557600080fd5b6115e189838a01611464565b935060808801359150808211156115f757600080fd5b50611604888289016114d5565b9150509295509295909350565b6000806040838503121561162457600080fd5b823567ffffffffffffffff8082111561163c57600080fd5b818501915085601f83011261165057600080fd5b8135602061165d82611440565b60405161166a82826113f5565b83815260059390931b850182019282810191508984111561168a57600080fd5b948201945b838610156116af576116a086611287565b8252948201949082019061168f565b965050860135925050808211156116c557600080fd5b506116d285828601611464565b9150509250929050565b600081518084526020808501945080840160005b8381101561170c578151875295820195908201906001016116f0565b509495945050505050565b60208152600061132860208301846116dc565b6000806040838503121561173d57600080fd5b61174683611287565b91506020830135801515811461175b57600080fd5b809150509250929050565b60008060006060848603121561177b57600080fd5b833592506020840135915061179260408501611287565b90509250925092565b600080604083850312156117ae57600080fd5b6117b783611287565b91506117c560208401611287565b90509250929050565b600080600080600060a086880312156117e657600080fd5b6117ef86611287565b94506117fd60208701611287565b93506040860135925060608601359150608086013567ffffffffffffffff81111561182757600080fd5b611604888289016114d5565b600181811c9082168061184757607f821691505b60208210811415611881577f4e487b7100000000000000000000000000000000000000000000000000000000600052602260045260246000fd5b50919050565b7f4e487b7100000000000000000000000000000000000000000000000000000000600052603260045260246000fd5b7f4e487b7100000000000000000000000000000000000000000000000000000000600052601160045260246000fd5b60007fffffffffffffffffffffffffffffffffffffffffffffffffffffffffffffffff821415611917576119176118b6565b5060010190565b60008219821115611931576119316118b6565b500190565b60408152600061194960408301856116dc565b828103602084015261195b81856116dc565b95945050505050565b600073ffffffffffffffffffffffffffffffffffffffff808816835280871660208401525060a0604083015261199d60a08301866116dc565b82810360608401526119af81866116dc565b905082810360808401526119c38185611348565b98975050505050505050565b6000602082840312156119e157600080fd5b8151611328816112da565b600060033d1115611a055760046000803e5060005160e01c5b90565b600060443d1015611a165790565b6040517ffffffffffffffffffffffffffffffffffffffffffffffffffffffffffffffffc803d016004833e81513d67ffffffffffffffff8160248401118184111715611a6457505050505090565b8285019150815181811115611a7c5750505050505090565b843d8701016020828501011115611a965750505050505090565b611aa5602082860101876113f5565b509095945050505050565b600073ffffffffffffffffffffffffffffffffffffffff808816835280871660208401525084604083015283606083015260a06080830152611af560a0830184611348565b97965050505050505056fea2646970667358221220c349c1d95fa7642c9d0e8bce8dac6ac6b278fb5566e61131c124e5aaf4cc1f6064736f6c63430008090033",
  "linkReferences": {},
  "deployedLinkReferences": {}
}