{
	"_format": "hh-sol-artifact-1",
	"contractName": "OperatorControllerForRewardsV2",
	"sourceName": "contracts/staking/OperatorControllerForRewardsV2.sol",
	"abi": [
		{
			"inputs": [
				{
					"internalType": "address",
					"name": "_feeSharingSystem",
					"type": "address"
				},
				{
					"internalType": "address",
					"name": "_feeSharingSetter",
					"type": "address"
				},
				{
					"internalType": "address",
					"name": "_tokenSplitter",
					"type": "address"
				},
				{
					"internalType": "address",
					"name": "_teamVesting",
					"type": "address"
				},
				{
					"internalType": "address",
					"name": "_tradingRewardsDistributor",
					"type": "address"
				}
			],
			"stateMutability": "nonpayable",
			"type": "constructor"
		},
		{
			"anonymous": false,
			"inputs": [
				{
					"indexed": true,
					"internalType": "address",
					"name": "previousOwner",
					"type": "address"
				},
				{
					"indexed": true,
					"internalType": "address",
					"name": "newOwner",
					"type": "address"
				}
			],
			"name": "OwnershipTransferred",
			"type": "event"
		},
		{
			"inputs": [],
			"name": "canRelease",
			"outputs": [
				{
					"internalType": "bool",
					"name": "",
					"type": "bool"
				}
			],
			"stateMutability": "view",
			"type": "function"
		},
		{
			"inputs": [],
			"name": "feeSharingSetter",
			"outputs": [
				{
					"internalType": "contract FeeSharingSetter",
					"name": "",
					"type": "address"
				}
			],
			"stateMutability": "view",
			"type": "function"
		},
		{
			"inputs": [],
			"name": "feeSharingSystem",
			"outputs": [
				{
					"internalType": "contract FeeSharingSystem",
					"name": "",
					"type": "address"
				}
			],
			"stateMutability": "view",
			"type": "function"
		},
		{
			"inputs": [],
			"name": "owner",
			"outputs": [
				{
					"internalType": "address",
					"name": "",
					"type": "address"
				}
			],
			"stateMutability": "view",
			"type": "function"
		},
		{
			"inputs": [
				{
					"internalType": "address[]",
					"name": "tokens",
					"type": "address[]"
				}
			],
			"name": "releaseTokensAndUpdateRewards",
			"outputs": [],
			"stateMutability": "nonpayable",
			"type": "function"
		},
		{
			"inputs": [],
			"name": "renounceOwnership",
			"outputs": [],
			"stateMutability": "nonpayable",
			"type": "function"
		},
		{
			"inputs": [],
			"name": "teamVesting",
			"outputs": [
				{
					"internalType": "address",
					"name": "",
					"type": "address"
				}
			],
			"stateMutability": "view",
			"type": "function"
		},
		{
			"inputs": [],
			"name": "tokenSplitter",
			"outputs": [
				{
					"internalType": "contract TokenSplitter",
					"name": "",
					"type": "address"
				}
			],
			"stateMutability": "view",
			"type": "function"
		},
		{
			"inputs": [],
			"name": "tradingRewardsDistributor",
			"outputs": [
				{
					"internalType": "address",
					"name": "",
					"type": "address"
				}
			],
			"stateMutability": "view",
			"type": "function"
		},
		{
			"inputs": [
				{
					"internalType": "address",
					"name": "newOwner",
					"type": "address"
				}
			],
			"name": "transferOwnership",
			"outputs": [],
			"stateMutability": "nonpayable",
			"type": "function"
		}
	],
	"bytecode": "0x61012060405234801561001157600080fd5b50604051610be2380380610be2833981016040819052610030916100ce565b61003933610062565b6001600160a01b0394851660805292841660a05290831660c052821660e0521661010052610133565b600080546001600160a01b038381166001600160a01b0319831681178455604051919092169283917f8be0079c531659141344cd1fd0a4f28419497f9722a3daafe3b4186f6b6457e09190a35050565b80516001600160a01b03811681146100c957600080fd5b919050565b600080600080600060a086880312156100e657600080fd5b6100ef866100b2565b94506100fd602087016100b2565b935061010b604087016100b2565b9250610119606087016100b2565b9150610127608087016100b2565b90509295509295909350565b60805160a05160c05160e05161010051610a346101ae6000396000818161011901526104e201526000818161015801526104270152600081816101e10152818161044f015261050a01526000818160c80152818161059d01526106000152600081816101890152818161021b01526102bd0152610a346000f3fe608060405234801561001057600080fd5b50600436106100be5760003560e01c80637f085fd111610076578063a135a72c1161005b578063a135a72c146101c9578063a46074c3146101dc578063f2fde38b1461020357600080fd5b80637f085fd1146101845780638da5cb5b146101ab57600080fd5b80633705f69e116100a75780633705f69e1461013b578063619f3d6c14610153578063715018a61461017a57600080fd5b806317ff3854146100c35780632904e54714610114575b600080fd5b6100ea7f000000000000000000000000000000000000000000000000000000000000000081565b60405173ffffffffffffffffffffffffffffffffffffffff90911681526020015b60405180910390f35b6100ea7f000000000000000000000000000000000000000000000000000000000000000081565b610143610216565b604051901515815260200161010b565b6100ea7f000000000000000000000000000000000000000000000000000000000000000081565b610182610363565b005b6100ea7f000000000000000000000000000000000000000000000000000000000000000081565b60005473ffffffffffffffffffffffffffffffffffffffff166100ea565b6101826101d7366004610886565b610377565b6100ea7f000000000000000000000000000000000000000000000000000000000000000081565b610182610211366004610969565b610681565b6000807f000000000000000000000000000000000000000000000000000000000000000073ffffffffffffffffffffffffffffffffffffffff1663442da82f6040518163ffffffff1660e01b815260040160206040518083038186803b15801561027f57600080fd5b505afa158015610293573d6000803e3d6000fd5b505050506040513d601f19601f820116820180604052508101906102b7919061098b565b905060007f000000000000000000000000000000000000000000000000000000000000000073ffffffffffffffffffffffffffffffffffffffff1663a218141b6040518163ffffffff1660e01b815260040160206040518083038186803b15801561032157600080fd5b505afa158015610335573d6000803e3d6000fd5b505050506040513d601f19601f82011682018060405250810190610359919061098b565b9190911492915050565b61036b610738565b61037560006107b9565b565b61037f610216565b6103ea576040517f08c379a000000000000000000000000000000000000000000000000000000000815260206004820152601060248201527f4f776e65723a20546f6f206561726c790000000000000000000000000000000060448201526064015b60405180910390fd5b6040517f87b0be4800000000000000000000000000000000000000000000000000000000815273ffffffffffffffffffffffffffffffffffffffff7f0000000000000000000000000000000000000000000000000000000000000000811660048301527f000000000000000000000000000000000000000000000000000000000000000016906387b0be4890602401600060405180830381600087803b15801561049357600080fd5b505af19250505080156104a4575060015b506040517f87b0be4800000000000000000000000000000000000000000000000000000000815273ffffffffffffffffffffffffffffffffffffffff7f0000000000000000000000000000000000000000000000000000000000000000811660048301527f000000000000000000000000000000000000000000000000000000000000000016906387b0be4890602401600060405180830381600087803b15801561054e57600080fd5b505af192505050801561055f575060015b506040517f46e91e6600000000000000000000000000000000000000000000000000000000815273ffffffffffffffffffffffffffffffffffffffff7f000000000000000000000000000000000000000000000000000000000000000016906346e91e66906105d29084906004016109a4565b600060405180830381600087803b1580156105ec57600080fd5b505af19250505080156105fd575060015b507f000000000000000000000000000000000000000000000000000000000000000073ffffffffffffffffffffffffffffffffffffffff16633e158b0c6040518163ffffffff1660e01b8152600401600060405180830381600087803b15801561066657600080fd5b505af115801561067a573d6000803e3d6000fd5b5050505050565b610689610738565b73ffffffffffffffffffffffffffffffffffffffff811661072c576040517f08c379a000000000000000000000000000000000000000000000000000000000815260206004820152602660248201527f4f776e61626c653a206e6577206f776e657220697320746865207a65726f206160448201527f646472657373000000000000000000000000000000000000000000000000000060648201526084016103e1565b610735816107b9565b50565b60005473ffffffffffffffffffffffffffffffffffffffff163314610375576040517f08c379a000000000000000000000000000000000000000000000000000000000815260206004820181905260248201527f4f776e61626c653a2063616c6c6572206973206e6f7420746865206f776e657260448201526064016103e1565b6000805473ffffffffffffffffffffffffffffffffffffffff8381167fffffffffffffffffffffffff0000000000000000000000000000000000000000831681178455604051919092169283917f8be0079c531659141344cd1fd0a4f28419497f9722a3daafe3b4186f6b6457e09190a35050565b7f4e487b7100000000000000000000000000000000000000000000000000000000600052604160045260246000fd5b803573ffffffffffffffffffffffffffffffffffffffff8116811461088157600080fd5b919050565b6000602080838503121561089957600080fd5b823567ffffffffffffffff808211156108b157600080fd5b818501915085601f8301126108c557600080fd5b8135818111156108d7576108d761082e565b8060051b6040517fffffffffffffffffffffffffffffffffffffffffffffffffffffffffffffffe0603f8301168101818110858211171561091a5761091a61082e565b60405291825284820192508381018501918883111561093857600080fd5b938501935b8285101561095d5761094e8561085d565b8452938501939285019261093d565b98975050505050505050565b60006020828403121561097b57600080fd5b6109848261085d565b9392505050565b60006020828403121561099d57600080fd5b5051919050565b6020808252825182820181905260009190848201906040850190845b818110156109f257835173ffffffffffffffffffffffffffffffffffffffff16835292840192918401916001016109c0565b5090969550505050505056fea2646970667358221220193fed1661d2872679d6769a6966e07da5c017e326a4dfdd53b18f9b084354e464736f6c63430008090033",
	"linkReferences": {},
	"deployedLinkReferences": {}
}