{
  "_format": "hh-sol-artifact-1",
  "contractName": "Raffle",
  "sourceName": "contracts/Raflle.sol",
  "abi": [
    {
      "inputs": [
        {
          "internalType": "address",
          "name": "_vrfCoordinator",
          "type": "address"
        },
        {
          "internalType": "address",
          "name": "_feeSetter",
          "type": "address"
        },
        {
          "internalType": "address",
          "name": "_usd",
          "type": "address"
        },
        {
          "internalType": "bytes32",
          "name": "_keyHash",
          "type": "bytes32"
        },
        {
          "internalType": "uint64",
          "name": "_subscriptionId",
          "type": "uint64"
        },
        {
          "internalType": "address",
          "name": "_uniV3Factory",
          "type": "address"
        },
        {
          "internalType": "address[]",
          "name": "_currencies",
          "type": "address[]"
        },
        {
          "internalType": "uint24[]",
          "name": "_feeRates",
          "type": "uint24[]"
        }
      ],
      "stateMutability": "nonpayable",
      "type": "constructor"
    },
    {
      "inputs": [
        {
          "internalType": "address",
          "name": "have",
          "type": "address"
        },
        {
          "internalType": "address",
          "name": "want",
          "type": "address"
        }
      ],
      "name": "OnlyCoordinatorCanFulfill",
      "type": "error"
    },
    {
      "anonymous": false,
      "inputs": [
        {
          "indexed": false,
          "internalType": "uint256",
          "name": "taskId",
          "type": "uint256"
        },
        {
          "indexed": false,
          "internalType": "uint256",
          "name": "fundsAmount",
          "type": "uint256"
        },
        {
          "indexed": false,
          "internalType": "address",
          "name": "owner",
          "type": "address"
        },
        {
          "indexed": false,
          "internalType": "uint256",
          "name": "fee",
          "type": "uint256"
        }
      ],
      "name": "FundsClaimed",
      "type": "event"
    },
    {
      "anonymous": false,
      "inputs": [
        {
          "indexed": true,
          "internalType": "address",
          "name": "previousOwner",
          "type": "address"
        },
        {
          "indexed": true,
          "internalType": "address",
          "name": "newOwner",
          "type": "address"
        }
      ],
      "name": "OwnershipTransferred",
      "type": "event"
    },
    {
      "anonymous": false,
      "inputs": [
        {
          "indexed": false,
          "internalType": "uint256",
          "name": "taskId",
          "type": "uint256"
        },
        {
          "indexed": false,
          "internalType": "uint256",
          "name": "tokenId",
          "type": "uint256"
        },
        {
          "indexed": false,
          "internalType": "address",
          "name": "winner",
          "type": "address"
        },
        {
          "indexed": false,
          "internalType": "uint256",
          "name": "fee",
          "type": "uint256"
        }
      ],
      "name": "PrizeClaimed",
      "type": "event"
    },
    {
      "anonymous": false,
      "inputs": [
        {
          "indexed": false,
          "internalType": "uint256",
          "name": "taskId",
          "type": "uint256"
        }
      ],
      "name": "RaffleCancelled",
      "type": "event"
    },
    {
      "anonymous": false,
      "inputs": [
        {
          "indexed": false,
          "internalType": "uint256",
          "name": "taskId",
          "type": "uint256"
        }
      ],
      "name": "RaffleClosed",
      "type": "event"
    },
    {
      "anonymous": false,
      "inputs": [
        {
          "indexed": true,
          "internalType": "uint256",
          "name": "taskId",
          "type": "uint256"
        },
        {
          "indexed": true,
          "internalType": "address",
          "name": "owner",
          "type": "address"
        },
        {
          "indexed": false,
          "internalType": "uint256",
          "name": "startTime",
          "type": "uint256"
        },
        {
          "indexed": false,
          "internalType": "uint256",
          "name": "duration",
          "type": "uint256"
        }
      ],
      "name": "RaffleCreated",
      "type": "event"
    },
    {
      "anonymous": false,
      "inputs": [
        {
          "indexed": false,
          "internalType": "address",
          "name": "user",
          "type": "address"
        },
        {
          "indexed": false,
          "internalType": "uint256",
          "name": "amount",
          "type": "uint256"
        }
      ],
      "name": "RaffleEntered",
      "type": "event"
    },
    {
      "anonymous": false,
      "inputs": [
        {
          "indexed": false,
          "internalType": "uint256",
          "name": "taskId",
          "type": "uint256"
        },
        {
          "indexed": false,
          "internalType": "uint256",
          "name": "winningTicket",
          "type": "uint256"
        }
      ],
      "name": "WinningTicketPicked",
      "type": "event"
    },
    {
      "inputs": [
        {
          "internalType": "uint256",
          "name": "_raffleId",
          "type": "uint256"
        }
      ],
      "name": "cancel",
      "outputs": [],
      "stateMutability": "nonpayable",
      "type": "function"
    },
    {
      "inputs": [
        {
          "internalType": "uint256",
          "name": "_raffleId",
          "type": "uint256"
        }
      ],
      "name": "claimFunds",
      "outputs": [],
      "stateMutability": "nonpayable",
      "type": "function"
    },
    {
      "inputs": [
        {
          "internalType": "uint256",
          "name": "_raffleId",
          "type": "uint256"
        }
      ],
      "name": "claimPrize",
      "outputs": [],
      "stateMutability": "nonpayable",
      "type": "function"
    },
    {
      "inputs": [
        {
          "internalType": "uint256",
          "name": "_raffleId",
          "type": "uint256"
        }
      ],
      "name": "close",
      "outputs": [],
      "stateMutability": "nonpayable",
      "type": "function"
    },
    {
      "inputs": [
        {
          "internalType": "address",
          "name": "_tokenAddr",
          "type": "address"
        },
        {
          "internalType": "uint32",
          "name": "_tokenId",
          "type": "uint32"
        },
        {
          "internalType": "uint256",
          "name": "_duration",
          "type": "uint256"
        },
        {
          "internalType": "uint64",
          "name": "_ticketPrice",
          "type": "uint64"
        },
        {
          "internalType": "uint32",
          "name": "_ticketSize",
          "type": "uint32"
        },
        {
          "internalType": "address",
          "name": "_currency",
          "type": "address"
        }
      ],
      "name": "create",
      "outputs": [],
      "stateMutability": "nonpayable",
      "type": "function"
    },
    {
      "inputs": [
        {
          "internalType": "address",
          "name": "",
          "type": "address"
        }
      ],
      "name": "currencyInfo",
      "outputs": [
        {
          "internalType": "bool",
          "name": "enabled",
          "type": "bool"
        },
        {
          "internalType": "uint24",
          "name": "feeRate",
          "type": "uint24"
        }
      ],
      "stateMutability": "view",
      "type": "function"
    },
    {
      "inputs": [],
      "name": "currentTaskId",
      "outputs": [
        {
          "internalType": "uint256",
          "name": "",
          "type": "uint256"
        }
      ],
      "stateMutability": "view",
      "type": "function"
    },
    {
      "inputs": [
        {
          "internalType": "uint256",
          "name": "_raffleId",
          "type": "uint256"
        },
        {
          "internalType": "uint96",
          "name": "_amount",
          "type": "uint96"
        }
      ],
      "name": "enter",
      "outputs": [],
      "stateMutability": "nonpayable",
      "type": "function"
    },
    {
      "inputs": [],
      "name": "feeRate",
      "outputs": [
        {
          "internalType": "uint256",
          "name": "",
          "type": "uint256"
        }
      ],
      "stateMutability": "view",
      "type": "function"
    },
    {
      "inputs": [],
      "name": "feeSetter",
      "outputs": [
        {
          "internalType": "address",
          "name": "",
          "type": "address"
        }
      ],
      "stateMutability": "view",
      "type": "function"
    },
    {
      "inputs": [
        {
          "internalType": "address",
          "name": "_currency",
          "type": "address"
        }
      ],
      "name": "getCurrencyPrice",
      "outputs": [
        {
          "internalType": "uint256",
          "name": "price",
          "type": "uint256"
        }
      ],
      "stateMutability": "view",
      "type": "function"
    },
    {
      "inputs": [
        {
          "internalType": "address",
          "name": "",
          "type": "address"
        },
        {
          "internalType": "address",
          "name": "",
          "type": "address"
        },
        {
          "internalType": "uint256",
          "name": "",
          "type": "uint256"
        },
        {
          "internalType": "bytes",
          "name": "",
          "type": "bytes"
        }
      ],
      "name": "onERC721Received",
      "outputs": [
        {
          "internalType": "bytes4",
          "name": "",
          "type": "bytes4"
        }
      ],
      "stateMutability": "pure",
      "type": "function"
    },
    {
      "inputs": [],
      "name": "owner",
      "outputs": [
        {
          "internalType": "address",
          "name": "",
          "type": "address"
        }
      ],
      "stateMutability": "view",
      "type": "function"
    },
    {
      "inputs": [
        {
          "internalType": "uint256",
          "name": "",
          "type": "uint256"
        }
      ],
      "name": "prizeInfo",
      "outputs": [
        {
          "internalType": "uint32",
          "name": "winningNumber",
          "type": "uint32"
        },
        {
          "internalType": "bool",
          "name": "prizeClaimed",
          "type": "bool"
        },
        {
          "internalType": "bool",
          "name": "fundsClaimed",
          "type": "bool"
        }
      ],
      "stateMutability": "view",
      "type": "function"
    },
    {
      "inputs": [
        {
          "internalType": "uint256",
          "name": "",
          "type": "uint256"
        }
      ],
      "name": "raffleInfo",
      "outputs": [
        {
          "internalType": "address",
          "name": "owner",
          "type": "address"
        },
        {
          "internalType": "uint64",
          "name": "endTime",
          "type": "uint64"
        },
        {
          "internalType": "uint32",
          "name": "tokenId",
          "type": "uint32"
        },
        {
          "internalType": "address",
          "name": "tokenAddress",
          "type": "address"
        },
        {
          "internalType": "uint64",
          "name": "ticketPrice",
          "type": "uint64"
        },
        {
          "internalType": "uint32",
          "name": "ticketSize",
          "type": "uint32"
        },
        {
          "internalType": "uint160",
          "name": "funds",
          "type": "uint160"
        },
        {
          "internalType": "uint96",
          "name": "soldTickets",
          "type": "uint96"
        },
        {
          "internalType": "address",
          "name": "currency",
          "type": "address"
        },
        {
          "internalType": "enum Raffle.TaskStatus",
          "name": "status",
          "type": "uint8"
        }
      ],
      "stateMutability": "view",
      "type": "function"
    },
    {
      "inputs": [
        {
          "internalType": "uint256",
          "name": "requestId",
          "type": "uint256"
        },
        {
          "internalType": "uint256[]",
          "name": "randomWords",
          "type": "uint256[]"
        }
      ],
      "name": "rawFulfillRandomWords",
      "outputs": [],
      "stateMutability": "nonpayable",
      "type": "function"
    },
    {
      "inputs": [],
      "name": "renounceOwnership",
      "outputs": [],
      "stateMutability": "nonpayable",
      "type": "function"
    },
    {
      "inputs": [
        {
          "internalType": "uint256",
          "name": "",
          "type": "uint256"
        }
      ],
      "name": "requestInfo",
      "outputs": [
        {
          "internalType": "uint256",
          "name": "",
          "type": "uint256"
        }
      ],
      "stateMutability": "view",
      "type": "function"
    },
    {
      "inputs": [
        {
          "internalType": "address",
          "name": "_currency",
          "type": "address"
        },
        {
          "internalType": "bool",
          "name": "_enable",
          "type": "bool"
        },
        {
          "internalType": "uint24",
          "name": "_feeRate",
          "type": "uint24"
        }
      ],
      "name": "setCurrency",
      "outputs": [],
      "stateMutability": "nonpayable",
      "type": "function"
    },
    {
      "inputs": [
        {
          "internalType": "address",
          "name": "newOwner",
          "type": "address"
        }
      ],
      "name": "transferOwnership",
      "outputs": [],
      "stateMutability": "nonpayable",
      "type": "function"
    },
    {
      "inputs": [
        {
          "internalType": "uint256",
          "name": "",
          "type": "uint256"
        },
        {
          "internalType": "address",
          "name": "",
          "type": "address"
        }
      ],
      "name": "userInfo",
      "outputs": [
        {
          "internalType": "uint256",
          "name": "ticketAmount",
          "type": "uint256"
        }
      ],
      "stateMutability": "view",
      "type": "function"
    }
  ],
  "bytecode": "0x60e0604052614e20600355600c80546001600160501b031916680300000001000f42401790553480156200003257600080fd5b5060405162003cc738038062003cc783398101604081905262000055916200040c565b8762000061336200023f565b6001600160a01b0316608052600180558051825114620000c75760405162461bcd60e51b815260206004820152601660248201527f466565206c656e67746820646f6e2774206d6174636800000000000000000000604482015260640160405180910390fd5b600a80546001600160a01b03808b166001600160a01b031992831617909255600b879055600c80546001600160401b0388166a010000000000000000000002600160501b600160901b031990911617905584821660a05287821660c05260048054928a169290911691909117905560005b825181101562000230576001600960008584815181106200015d576200015d620004e7565b60200260200101516001600160a01b03166001600160a01b0316815260200190815260200160002060000160006101000a81548160ff021916908315150217905550818181518110620001b457620001b4620004e7565b602002602001015160096000858481518110620001d557620001d5620004e7565b60200260200101516001600160a01b03166001600160a01b0316815260200190815260200160002060000160016101000a81548162ffffff021916908362ffffff160217905550806200022890620004fd565b905062000138565b50505050505050505062000527565b600080546001600160a01b038381166001600160a01b0319831681178455604051919092169283917f8be0079c531659141344cd1fd0a4f28419497f9722a3daafe3b4186f6b6457e09190a35050565b80516001600160a01b0381168114620002a757600080fd5b919050565b634e487b7160e01b600052604160045260246000fd5b604051601f8201601f191681016001600160401b0381118282101715620002ed57620002ed620002ac565b604052919050565b60006001600160401b03821115620003115762000311620002ac565b5060051b60200190565b600082601f8301126200032d57600080fd5b81516020620003466200034083620002f5565b620002c2565b82815260059290921b840181019181810190868411156200036657600080fd5b8286015b848110156200038c576200037e816200028f565b83529183019183016200036a565b509695505050505050565b600082601f830112620003a957600080fd5b81516020620003bc6200034083620002f5565b82815260059290921b84018101918181019086841115620003dc57600080fd5b8286015b848110156200038c57805162ffffff81168114620003fe5760008081fd5b8352918301918301620003e0565b600080600080600080600080610100898b0312156200042a57600080fd5b62000435896200028f565b97506200044560208a016200028f565b96506200045560408a016200028f565b60608a015160808b015191975095506001600160401b0380821682146200047b57600080fd5b8195506200048c60a08c016200028f565b945060c08b0151915080821115620004a357600080fd5b620004b18c838d016200031b565b935060e08b0151915080821115620004c857600080fd5b50620004d78b828c0162000397565b9150509295985092959890939650565b634e487b7160e01b600052603260045260246000fd5b60006000198214156200052057634e487b7160e01b600052601160045260246000fd5b5060010190565b60805160a05160c05161374d6200057a6000396000818161175a015281816119430152818161197c015281816119a801526119e1015260006117990152600081816112b70152611312015261374d6000f3fe608060405234801561001057600080fd5b50600436106101765760003560e01c8063715018a6116100d8578063978bbdb91161008c578063bf30d79011610066578063bf30d790146103de578063d7098154146104b1578063f2fde38b146104c457600080fd5b8063978bbdb9146103b957806398934a1f146103c2578063b69b2e2a146103cb57600080fd5b806387cf3ef4116100bd57806387cf3ef4146103525780638da5cb5b1461037d57806393f1a40b1461038e57600080fd5b8063715018a6146102e7578063726a41cf146102ef57600080fd5b806340e58ee51161012f57806359991a771161011457806359991a77146102775780636d31cb2a1461028a5780637058346f146102d457600080fd5b806340e58ee5146102365780634f588bf11461024957600080fd5b8063150b7a0211610160578063150b7a02146101a35780631b55e338146102105780631fe543e31461022357600080fd5b8062d407d61461017b5780630aebeb4e14610190575b600080fd5b61018e610189366004612d76565b6104d7565b005b61018e61019e366004612db7565b610bcc565b6101da6101b1366004612e63565b7f150b7a0200000000000000000000000000000000000000000000000000000000949350505050565b6040517fffffffff0000000000000000000000000000000000000000000000000000000090911681526020015b60405180910390f35b61018e61021e366004612db7565b610f1e565b61018e610231366004612f45565b6112ac565b61018e610244366004612db7565b61134d565b610269610257366004612db7565b60086020526000908152604090205481565b604051908152602001610207565b61018e610285366004613005565b611645565b6102b9610298366004613058565b60096020526000908152604090205460ff811690610100900462ffffff1682565b60408051921515835262ffffff909116602083015201610207565b6102696102e2366004613058565b611710565b61018e611bd6565b61032e6102fd366004612db7565b60076020526000908152604090205463ffffffff81169060ff64010000000082048116916501000000000090041683565b6040805163ffffffff90941684529115156020840152151590820152606001610207565b600454610365906001600160a01b031681565b6040516001600160a01b039091168152602001610207565b6000546001600160a01b0316610365565b61026961039c366004613075565b600660209081526000928352604080842090915290825290205481565b61026960035481565b61026960025481565b61018e6103d93660046130b3565b611bea565b61049b6103ec366004612db7565b60056020526000908152604090208054600182015460028301546003909301546001600160a01b03808416947401000000000000000000000000000000000000000080860467ffffffffffffffff908116967c01000000000000000000000000000000000000000000000000000000009081900463ffffffff908116978681169785820490941696929004169381811693908190046bffffffffffffffffffffffff1692918216910460ff168a565b6040516102079a99989796959493929190613164565b61018e6104bf366004612db7565b612149565b61018e6104d2366004613058565b6125c3565b6002600154141561052f5760405162461bcd60e51b815260206004820152601f60248201527f5265656e7472616e637947756172643a207265656e7472616e742063616c6c0060448201526064015b60405180910390fd5b6002600155600082815260056020526040902080546001600160a01b03166105995760405162461bcd60e51b815260206004820152601060248201527f526166666c65206e6f74206578697374000000000000000000000000000000006044820152606401610526565b6001600382015474010000000000000000000000000000000000000000900460ff1660048111156105cc576105cc613135565b141561061a5760405162461bcd60e51b815260206004820152601060248201527f526166666c652063616e63656c6c6564000000000000000000000000000000006044820152606401610526565b805474010000000000000000000000000000000000000000900467ffffffffffffffff1642111561068d5760405162461bcd60e51b815260206004820152600e60248201527f526166666c6520657870697265640000000000000000000000000000000000006044820152606401610526565b600281015460018201546bffffffffffffffffffffffff740100000000000000000000000000000000000000009092048216918416906106f590839063ffffffff7c01000000000000000000000000000000000000000000000000000000009091041661324b565b6bffffffffffffffffffffffff1610156107515760405162461bcd60e51b815260206004820152601760248201527f5469636b657473206c656674206e6f7420656e6f7567680000000000000000006044820152606401610526565b60008481526006602090815260408083203384529091529020546001830154612710906107a7906107d0907c0100000000000000000000000000000000000000000000000000000000900463ffffffff16613278565b6107b191906132e4565b6107c96bffffffffffffffffffffffff8616836132f8565b11156108175760405162461bcd60e51b815260206004820152601660248201527f5469636b657473206c696d6974206578636565646564000000000000000000006044820152606401610526565b60018301547c0100000000000000000000000000000000000000000000000000000000900463ffffffff1661084c8386613310565b6bffffffffffffffffffffffff1614156108a2576003830180547fffffffffffffffffffffff00ffffffffffffffffffffffffffffffffffffffff16740300000000000000000000000000000000000000001790555b6003830154604080517f313ce56700000000000000000000000000000000000000000000000000000000815290516000926001600160a01b03169163313ce567916004808301926020929190829003018186803b15801561090257600080fd5b505afa158015610916573d6000803e3d6000fd5b505050506040513d601f19601f8201168201806040525081019061093a9190613351565b60ff16905060006109ac6305f5e10061095484600a61348e565b60018801546109859074010000000000000000000000000000000000000000900467ffffffffffffffff168a61349a565b6bffffffffffffffffffffffff1661099d9190613278565b6109a791906132e4565b612653565b90506109cd3360038701546001600160a01b039081169190309085166126d6565b600087815260066020908152604080832033845282529182902082518084019093526bffffffffffffffffffffffff8716835260019081019291820190610a148a89613310565b610a1e919061324b565b6bffffffffffffffffffffffff9081169091528254600181018455600093845260208085208451948201516fffffffffffffffffffffffffffffffff90811670010000000000000000000000000000000002951694909417939091019290925589835260069091526040822090881691610a953390565b6001600160a01b03166001600160a01b031681526020019081526020016000206000016000828254610ac791906132f8565b9091555050600285018054829190600090610aec9084906001600160a01b03166134ce565b92506101000a8154816001600160a01b0302191690836001600160a01b03160217905550858560020160148282829054906101000a90046bffffffffffffffffffffffff16610b3b9190613310565b92506101000a8154816bffffffffffffffffffffffff02191690836bffffffffffffffffffffffff1602179055507fff4d34328021c85af2588171c713c19cada0a8acdc20dc117479fcd07865e626610b913390565b604080516001600160a01b0390921682526bffffffffffffffffffffffff891660208301520160405180910390a15050600180555050505050565b60026001541415610c1f5760405162461bcd60e51b815260206004820152601f60248201527f5265656e7472616e637947756172643a207265656e7472616e742063616c6c006044820152606401610526565b60026001908155600082815260056020526040902090600382015474010000000000000000000000000000000000000000900460ff166004811115610c6657610c66613135565b1415610cb45760405162461bcd60e51b815260206004820152601060248201527f526166666c652063616e63656c6c6564000000000000000000000000000000006044820152606401610526565b805474010000000000000000000000000000000000000000900467ffffffffffffffff1642101580610d15575060038082015474010000000000000000000000000000000000000000900460ff166004811115610d1357610d13613135565b145b610d615760405162461bcd60e51b815260206004820152601260248201527f4e6f7420726561647920746f20636c6f736500000000000000000000000000006044820152606401610526565b60038082015474010000000000000000000000000000000000000000900460ff166004811115610d9357610d93613135565b14610dda576003810180547fffffffffffffffffffffff00ffffffffffffffffffffffffffffffffffffffff16740200000000000000000000000000000000000000001790555b600a54600b54600c546040517f5d3b1d3000000000000000000000000000000000000000000000000000000000815260048101929092526a0100000000000000000000810467ffffffffffffffff16602483015268010000000000000000810461ffff16604483015263ffffffff80821660648401526401000000009091041660848201526000916001600160a01b031690635d3b1d309060a401602060405180830381600087803b158015610e8f57600080fd5b505af1158015610ea3573d6000803e3d6000fd5b505050506040513d601f19601f82011682018060405250810190610ec791906134f0565b60008181526008602052604090819020859055519091507f2a7d48246875b5f17dc9944def25fc8fe90e524ca2165e290ffdc0e44a0bf8b690610f0d9085815260200190565b60405180910390a150506001805550565b60026001541415610f715760405162461bcd60e51b815260206004820152601f60248201527f5265656e7472616e637947756172643a207265656e7472616e742063616c6c006044820152606401610526565b600260015560008181526005602052604090206004600382015474010000000000000000000000000000000000000000900460ff166004811115610fb757610fb7613135565b146110045760405162461bcd60e51b815260206004820152600e60248201527f526166666c65206e6f7420656e640000000000000000000000000000000000006044820152606401610526565b80546001600160a01b0316331461105d5760405162461bcd60e51b815260206004820152601360248201527f4e6f74206f776e6572206f6620726166666c65000000000000000000000000006044820152606401610526565b6000828152600760205260409020805465010000000000900460ff16156110c65760405162461bcd60e51b815260206004820152601560248201527f46756e647320616c726561647920636c61696d656400000000000000000000006044820152606401610526565b600282015460038301546040517f70a082310000000000000000000000000000000000000000000000000000000081523060048201526001600160a01b0392831692839216906370a082319060240160206040518083038186803b15801561112d57600080fd5b505afa158015611141573d6000803e3d6000fd5b505050506040513d601f19601f8201168201806040525081019061116591906134f0565b10156111b35760405162461bcd60e51b815260206004820152601060248201527f46756e6473206e6f7420656e6f756768000000000000000000000000000000006044820152606401610526565b6000620f4240600354836111c79190613278565b6111d191906132e4565b905060006111df8284613509565b6004546003870154919250611201916001600160a01b039081169116846127ab565b61121a3360038701546001600160a01b031690836127ab565b83547fffffffffffffffffffffffffffffffffffffffffffffffffffff00ffffffffff16650100000000001784557f3f53f5f381ee0b1fbf730fa56efb0a2aec8a882b2847a1ec0279982d8846e4f286846112723390565b6040805193845260208401929092526001600160a01b0316908201526060810184905260800160405180910390a150506001805550505050565b336001600160a01b037f0000000000000000000000000000000000000000000000000000000000000000161461133f576040517f1cf993f40000000000000000000000000000000000000000000000000000000081523360048201526001600160a01b037f0000000000000000000000000000000000000000000000000000000000000000166024820152604401610526565b61134982826127f4565b5050565b600260015414156113a05760405162461bcd60e51b815260206004820152601f60248201527f5265656e7472616e637947756172643a207265656e7472616e742063616c6c006044820152606401610526565b6002600155600081815260056020526040902080546001600160a01b0316331461140c5760405162461bcd60e51b815260206004820152601760248201527f43616c6c6572206e6f7420726166666c65206f776e65720000000000000000006044820152606401610526565b6001600382015474010000000000000000000000000000000000000000900460ff16600481111561143f5761143f613135565b141561148d5760405162461bcd60e51b815260206004820152601860248201527f526166666c6520616c72656164792063616e63656c6c656400000000000000006044820152606401610526565b60028101547401000000000000000000000000000000000000000090046bffffffffffffffffffffffff16156115055760405162461bcd60e51b815260206004820152601660248201527f526166666c6520616c726561647920656e7465726564000000000000000000006044820152606401610526565b600381018054740100000000000000000000000000000000000000007fffffffffffffffffffffff00ffffffffffffffffffffffffffffffffffffffff90911617905560018101546001600160a01b03166342842e0e3033845460405160e085901b7fffffffff000000000000000000000000000000000000000000000000000000001681526001600160a01b0393841660048201529290911660248301527c0100000000000000000000000000000000000000000000000000000000900463ffffffff166044820152606401600060405180830381600087803b1580156115ec57600080fd5b505af1158015611600573d6000803e3d6000fd5b505050507f7fa78bab5d5570f162c69234a3f4d1b9294fd5bca72219cb16c1fe38839ccb8a8260405161163591815260200190565b60405180910390a1505060018055565b61164d612939565b81156116cc576001600160a01b038316600090815260096020526040902080548315157fffffffffffffffffffffffffffffffffffffffffffffffffffffffffffffff0062ffffff851661010002167fffffffffffffffffffffffffffffffffffffffffffffffffffffffff0000000090921691909117179055505050565b6001600160a01b038316600090815260096020526040902080547fffffffffffffffffffffffffffffffffffffffffffffffffffffffff000000001690555b505050565b6001600160a01b038181166000818152600960205260408082205490517f1698ee8200000000000000000000000000000000000000000000000000000000815260048101939093527f000000000000000000000000000000000000000000000000000000000000000084166024840152610100900462ffffff16604483018190529092909183917f00000000000000000000000000000000000000000000000000000000000000001690631698ee829060640160206040518083038186803b1580156117db57600080fd5b505afa1580156117ef573d6000803e3d6000fd5b505050506040513d601f19601f820116820180604052508101906118139190613520565b90506001600160a01b03811661186b5760405162461bcd60e51b815260206004820152600e60248201527f706f6f6c206e6f742065786973740000000000000000000000000000000000006044820152606401610526565b6000816001600160a01b0316633850c7bd6040518163ffffffff1660e01b815260040160e06040518083038186803b1580156118a657600080fd5b505afa1580156118ba573d6000803e3d6000fd5b505050506040513d601f19601f820116820180604052508101906118de919061354f565b5050505050506001600160a01b031690506000811161193f5760405162461bcd60e51b815260206004820152600d60248201527f696e76616c6964207072696365000000000000000000000000000000000000006044820152606401610526565b60007f00000000000000000000000000000000000000000000000000000000000000006001600160a01b0316866001600160a01b0316116119a0577f00000000000000000000000000000000000000000000000000000000000000006119a2565b855b905060007f00000000000000000000000000000000000000000000000000000000000000006001600160a01b0316876001600160a01b031610611a05577f0000000000000000000000000000000000000000000000000000000000000000611a07565b865b90506000826001600160a01b031663313ce5676040518163ffffffff1660e01b815260040160206040518083038186803b158015611a4457600080fd5b505afa158015611a58573d6000803e3d6000fd5b505050506040513d601f19601f82011682018060405250810190611a7c9190613351565b60ff1690506000826001600160a01b031663313ce5676040518163ffffffff1660e01b815260040160206040518083038186803b158015611abc57600080fd5b505afa158015611ad0573d6000803e3d6000fd5b505050506040513d601f19601f82011682018060405250810190611af49190613351565b60ff169050836001600160a01b0316896001600160a01b03161415611b6057611b1e82600a61348e565b611b2982600a61348e565b60c06305f5e100611b3a8980613278565b611b449190613278565b611b4f92911c6132e4565b611b599190613278565b9750611bca565b84611b6c83600a61348e565b611b7783600a61348e565b6305f5e100611b9f8978010000000000000000000000000000000000000000000000006132e4565b611ba99190613278565b611bb39190613278565b611bbd91906132e4565b611bc791906132e4565b97505b50505050505050919050565b611bde612939565b611be86000612993565b565b60026001541415611c3d5760405162461bcd60e51b815260206004820152601f60248201527f5265656e7472616e637947756172643a207265656e7472616e742063616c6c006044820152606401610526565b6002600155620151808410801590611c58575062278d008411155b611ca45760405162461bcd60e51b815260206004820152601060248201527f496e76616c6964206475726174696f6e000000000000000000000000000000006044820152606401610526565b8163ffffffff16600111158015611cc357506107d08263ffffffff1611155b611d0f5760405162461bcd60e51b815260206004820152601360248201527f496e76616c6964207469636b65742073697a65000000000000000000000000006044820152606401610526565b6001600160a01b03811660009081526009602052604090205460ff16611d775760405162461bcd60e51b815260206004820152601060248201527f496e76616c69642063757272656e6379000000000000000000000000000000006044820152606401610526565b6000611d8282611710565b9050611d926305f5e10080613278565b611da667ffffffffffffffff861683613278565b1015611df45760405162461bcd60e51b815260206004820152600d60248201527f507269636520746f6f206c6f77000000000000000000000000000000000000006044820152606401610526565b6001600160a01b0387166342842e0e336040517fffffffff0000000000000000000000000000000000000000000000000000000060e084901b1681526001600160a01b03909116600482015230602482015263ffffffff89166044820152606401600060405180830381600087803b158015611e6f57600080fd5b505af1158015611e83573d6000803e3d6000fd5b50505050604051806101400160405280611e9a3390565b6001600160a01b03168152602001611eba611eb588426132f8565b6129fb565b67ffffffffffffffff1681526020018763ffffffff168152602001886001600160a01b031681526020018567ffffffffffffffff1681526020018463ffffffff16815260200160006001600160a01b0316815260200160006bffffffffffffffffffffffff168152602001836001600160a01b0316815260200160006004811115611f4757611f47613135565b90526002805460009081526005602090815260409182902084518154928601519386015163ffffffff9081167c01000000000000000000000000000000000000000000000000000000009081027bffffffffffffffffffffffffffffffffffffffffffffffffffffffff67ffffffffffffffff978816740100000000000000000000000000000000000000009081027fffffffff000000000000000000000000000000000000000000000000000000009889166001600160a01b039788161717821692909217865560608a015160018701805460808d015160a08e01519097169095029590991683029390971696851696909617919091179094161790935560c085015160e08601516bffffffffffffffffffffffff1683029084161793810193909355610100840151600384018054919093167fffffffffffffffffffffffff000000000000000000000000000000000000000082168117845561012086015193927fffffffffffffffffffffff00000000000000000000000000000000000000000090921617908360048111156120e2576120e2613135565b02179055509050506002600081546120f9906135e5565b9091555060025460408051428152602081018890523392917f71f77ac840b74f30ac7115cc2fca45c4157ccc2b0a6e72f4183c587d77baa0ab910160405180910390a35050600180555050505050565b6002600154141561219c5760405162461bcd60e51b815260206004820152601f60248201527f5265656e7472616e637947756172643a207265656e7472616e742063616c6c006044820152606401610526565b600260015560008181526005602052604090206004600382015474010000000000000000000000000000000000000000900460ff1660048111156121e2576121e2613135565b1461222f5760405162461bcd60e51b815260206004820152600e60248201527f526166666c65206e6f7420656e640000000000000000000000000000000000006044820152606401610526565b60008281526007602052604090208054640100000000900460ff16156122975760405162461bcd60e51b815260206004820152601560248201527f5072697a6520616c726561647920636c61696d656400000000000000000000006044820152606401610526565b6000838152600660209081526040808320338452825280832060010180548251818502810185019093528083529192909190849084015b8282101561232d57600084815260209081902060408051808201909152908401546fffffffffffffffffffffffffffffffff808216835270010000000000000000000000000000000090910416818301528252600190920191016122ce565b5050505090506000805b82518110156123cf5760008382815181106123545761235461361e565b6020908102919091010151805186549192506fffffffffffffffffffffffffffffffff1663ffffffff909116108015906123af5750602081015185546fffffffffffffffffffffffffffffffff90911663ffffffff90911611155b156123be5760019250506123cf565b506123c8816135e5565b9050612337565b508061241d5760405162461bcd60e51b815260206004820152601760248201527f43616c6c6572206973206e6f7420612077696e6e6572210000000000000000006044820152606401610526565b60028401546003546001600160a01b0390911690600090620f4240906124439084613278565b61244d91906132e4565b905061246f3360045460038901546001600160a01b03908116929116846126d6565b855460018701547c010000000000000000000000000000000000000000000000000000000090910463ffffffff16906001600160a01b0316806342842e0e30336040517fffffffff0000000000000000000000000000000000000000000000000000000060e085901b1681526001600160a01b0392831660048201529116602482015260448101859052606401600060405180830381600087803b15801561251657600080fd5b505af115801561252a573d6000803e3d6000fd5b505088547fffffffffffffffffffffffffffffffffffffffffffffffffffffff00ffffffff16640100000000178955507f608c8c3c6a3d40f40b96fbee44f9b9aee57a39c2fcb8bb0f59d8892b2d5492a2905089836125863390565b6040805193845260208401929092526001600160a01b0316908201526060810185905260800160405180910390a150506001805550505050505050565b6125cb612939565b6001600160a01b0381166126475760405162461bcd60e51b815260206004820152602660248201527f4f776e61626c653a206e6577206f776e657220697320746865207a65726f206160448201527f64647265737300000000000000000000000000000000000000000000000000006064820152608401610526565b61265081612993565b50565b60006001600160a01b038211156126d25760405162461bcd60e51b815260206004820152602760248201527f53616665436173743a2076616c756520646f65736e27742066697420696e203160448201527f36302062697473000000000000000000000000000000000000000000000000006064820152608401610526565b5090565b6040516001600160a01b03808516602483015283166044820152606481018290526127a59085907f23b872dd00000000000000000000000000000000000000000000000000000000906084015b604080517fffffffffffffffffffffffffffffffffffffffffffffffffffffffffffffffe08184030181529190526020810180517bffffffffffffffffffffffffffffffffffffffffffffffffffffffff167fffffffff0000000000000000000000000000000000000000000000000000000090931692909217909152612a7b565b50505050565b6040516001600160a01b03831660248201526044810182905261170b9084907fa9059cbb0000000000000000000000000000000000000000000000000000000090606401612723565b600082815260086020908152604080832054808452600590925282206002810154845192939192740100000000000000000000000000000000000000009091046bffffffffffffffffffffffff1690859083906128535761285361361e565b6020026020010151612865919061364d565b905061287081612b60565b600084815260076020526040902080547fffffffffffffffffffffffffffffffffffffffffffffffffffffffff000000001663ffffffff92909216919091179055600382018054600491907fffffffffffffffffffffff00ffffffffffffffffffffffffffffffffffffffff167401000000000000000000000000000000000000000083021790555060408051848152602081018390527f05459ed43a6fc64488d6051768b4c51dd130988284a0c8282e086078cd5ab546910160405180910390a15050505050565b6000546001600160a01b03163314611be85760405162461bcd60e51b815260206004820181905260248201527f4f776e61626c653a2063616c6c6572206973206e6f7420746865206f776e65726044820152606401610526565b600080546001600160a01b038381167fffffffffffffffffffffffff0000000000000000000000000000000000000000831681178455604051919092169283917f8be0079c531659141344cd1fd0a4f28419497f9722a3daafe3b4186f6b6457e09190a35050565b600067ffffffffffffffff8211156126d25760405162461bcd60e51b815260206004820152602660248201527f53616665436173743a2076616c756520646f65736e27742066697420696e203660448201527f34206269747300000000000000000000000000000000000000000000000000006064820152608401610526565b6000612ad0826040518060400160405280602081526020017f5361666545524332303a206c6f772d6c6576656c2063616c6c206661696c6564815250856001600160a01b0316612bdc9092919063ffffffff16565b80519091501561170b5780806020019051810190612aee9190613661565b61170b5760405162461bcd60e51b815260206004820152602a60248201527f5361666545524332303a204552433230206f7065726174696f6e20646964206e60448201527f6f742073756363656564000000000000000000000000000000000000000000006064820152608401610526565b600063ffffffff8211156126d25760405162461bcd60e51b815260206004820152602660248201527f53616665436173743a2076616c756520646f65736e27742066697420696e203360448201527f32206269747300000000000000000000000000000000000000000000000000006064820152608401610526565b6060612beb8484600085612bf5565b90505b9392505050565b606082471015612c6d5760405162461bcd60e51b815260206004820152602660248201527f416464726573733a20696e73756666696369656e742062616c616e636520666f60448201527f722063616c6c00000000000000000000000000000000000000000000000000006064820152608401610526565b6001600160a01b0385163b612cc45760405162461bcd60e51b815260206004820152601d60248201527f416464726573733a2063616c6c20746f206e6f6e2d636f6e74726163740000006044820152606401610526565b600080866001600160a01b03168587604051612ce091906136aa565b60006040518083038185875af1925050503d8060008114612d1d576040519150601f19603f3d011682016040523d82523d6000602084013e612d22565b606091505b5091509150612d32828286612d3d565b979650505050505050565b60608315612d4c575081612bee565b825115612d5c5782518084602001fd5b8160405162461bcd60e51b815260040161052691906136c6565b60008060408385031215612d8957600080fd5b8235915060208301356bffffffffffffffffffffffff81168114612dac57600080fd5b809150509250929050565b600060208284031215612dc957600080fd5b5035919050565b6001600160a01b038116811461265057600080fd5b7f4e487b7100000000000000000000000000000000000000000000000000000000600052604160045260246000fd5b604051601f82017fffffffffffffffffffffffffffffffffffffffffffffffffffffffffffffffe016810167ffffffffffffffff81118282101715612e5b57612e5b612de5565b604052919050565b60008060008060808587031215612e7957600080fd5b8435612e8481612dd0565b9350602085810135612e9581612dd0565b935060408601359250606086013567ffffffffffffffff80821115612eb957600080fd5b818801915088601f830112612ecd57600080fd5b813581811115612edf57612edf612de5565b612f0f847fffffffffffffffffffffffffffffffffffffffffffffffffffffffffffffffe0601f84011601612e14565b91508082528984828501011115612f2557600080fd5b808484018584013760008482840101525080935050505092959194509250565b60008060408385031215612f5857600080fd5b8235915060208084013567ffffffffffffffff80821115612f7857600080fd5b818601915086601f830112612f8c57600080fd5b813581811115612f9e57612f9e612de5565b8060051b9150612faf848301612e14565b8181529183018401918481019089841115612fc957600080fd5b938501935b83851015612fe757843582529385019390850190612fce565b8096505050505050509250929050565b801515811461265057600080fd5b60008060006060848603121561301a57600080fd5b833561302581612dd0565b9250602084013561303581612ff7565b9150604084013562ffffff8116811461304d57600080fd5b809150509250925092565b60006020828403121561306a57600080fd5b8135612bee81612dd0565b6000806040838503121561308857600080fd5b823591506020830135612dac81612dd0565b803563ffffffff811681146130ae57600080fd5b919050565b60008060008060008060c087890312156130cc57600080fd5b86356130d781612dd0565b95506130e56020880161309a565b945060408701359350606087013567ffffffffffffffff8116811461310957600080fd5b92506131176080880161309a565b915060a087013561312781612dd0565b809150509295509295509295565b7f4e487b7100000000000000000000000000000000000000000000000000000000600052602160045260246000fd5b6001600160a01b038b8116825267ffffffffffffffff8b8116602084015263ffffffff8b811660408501528a831660608501529089166080840152871660a083015285811660c08301526bffffffffffffffffffffffff851660e08301528316610100820152610140810160058310613206577f4e487b7100000000000000000000000000000000000000000000000000000000600052602160045260246000fd5b826101208301529b9a5050505050505050505050565b7f4e487b7100000000000000000000000000000000000000000000000000000000600052601160045260246000fd5b60006bffffffffffffffffffffffff838116908316818110156132705761327061321c565b039392505050565b6000817fffffffffffffffffffffffffffffffffffffffffffffffffffffffffffffffff04831182151516156132b0576132b061321c565b500290565b7f4e487b7100000000000000000000000000000000000000000000000000000000600052601260045260246000fd5b6000826132f3576132f36132b5565b500490565b6000821982111561330b5761330b61321c565b500190565b60006bffffffffffffffffffffffff8083168185168083038211156133375761333761321c565b01949350505050565b805160ff811681146130ae57600080fd5b60006020828403121561336357600080fd5b612bee82613340565b600181815b808511156133c557817fffffffffffffffffffffffffffffffffffffffffffffffffffffffffffffffff048211156133ab576133ab61321c565b808516156133b857918102915b93841c9390800290613371565b509250929050565b6000826133dc57506001613488565b816133e957506000613488565b81600181146133ff576002811461340957613425565b6001915050613488565b60ff84111561341a5761341a61321c565b50506001821b613488565b5060208310610133831016604e8410600b8410161715613448575081810a613488565b613452838361336c565b807fffffffffffffffffffffffffffffffffffffffffffffffffffffffffffffffff048211156134845761348461321c565b0290505b92915050565b6000612bee83836133cd565b60006bffffffffffffffffffffffff808316818516818304811182151516156134c5576134c561321c565b02949350505050565b60006001600160a01b038083168185168083038211156133375761333761321c565b60006020828403121561350257600080fd5b5051919050565b60008282101561351b5761351b61321c565b500390565b60006020828403121561353257600080fd5b8151612bee81612dd0565b805161ffff811681146130ae57600080fd5b600080600080600080600060e0888a03121561356a57600080fd5b875161357581612dd0565b8097505060208801518060020b811461358d57600080fd5b955061359b6040890161353d565b94506135a96060890161353d565b93506135b76080890161353d565b92506135c560a08901613340565b915060c08801516135d581612ff7565b8091505092959891949750929550565b60007fffffffffffffffffffffffffffffffffffffffffffffffffffffffffffffffff8214156136175761361761321c565b5060010190565b7f4e487b7100000000000000000000000000000000000000000000000000000000600052603260045260246000fd5b60008261365c5761365c6132b5565b500690565b60006020828403121561367357600080fd5b8151612bee81612ff7565b60005b83811015613699578181015183820152602001613681565b838111156127a55750506000910152565b600082516136bc81846020870161367e565b9190910192915050565b60208152600082518060208401526136e581604085016020870161367e565b601f017fffffffffffffffffffffffffffffffffffffffffffffffffffffffffffffffe016919091016040019291505056fea26469706673582212203d3c496293e27b9a8993a85e817fbaf25f232c296df33b2f8ecb77289819cdf664736f6c63430008090033",
  "linkReferences": {},
  "deployedLinkReferences": {}
}