{
  "_format": "hh-sol-artifact-1",
  "contractName": "Raffle",
  "sourceName": "contracts/raffle/Raflle.sol",
  "abi": [
    {
      "inputs": [
        {
          "internalType": "address",
          "name": "_vrfCoordinator",
          "type": "address"
        },
        {
          "internalType": "address",
          "name": "_feeSetter",
          "type": "address"
        },
        {
          "internalType": "address",
          "name": "_usd",
          "type": "address"
        },
        {
          "internalType": "bytes32",
          "name": "_keyHash",
          "type": "bytes32"
        },
        {
          "internalType": "uint64",
          "name": "_subscriptionId",
          "type": "uint64"
        },
        {
          "internalType": "address",
          "name": "_uniV3Factory",
          "type": "address"
        },
        {
          "internalType": "address[]",
          "name": "_currencies",
          "type": "address[]"
        },
        {
          "internalType": "uint24[]",
          "name": "_feeRates",
          "type": "uint24[]"
        }
      ],
      "stateMutability": "nonpayable",
      "type": "constructor"
    },
    {
      "inputs": [
        {
          "internalType": "address",
          "name": "have",
          "type": "address"
        },
        {
          "internalType": "address",
          "name": "want",
          "type": "address"
        }
      ],
      "name": "OnlyCoordinatorCanFulfill",
      "type": "error"
    },
    {
      "anonymous": false,
      "inputs": [
        {
          "indexed": false,
          "internalType": "uint256",
          "name": "taskId",
          "type": "uint256"
        },
        {
          "indexed": false,
          "internalType": "uint256",
          "name": "fundsAmount",
          "type": "uint256"
        },
        {
          "indexed": false,
          "internalType": "address",
          "name": "owner",
          "type": "address"
        },
        {
          "indexed": false,
          "internalType": "uint256",
          "name": "fee",
          "type": "uint256"
        }
      ],
      "name": "FundsClaimed",
      "type": "event"
    },
    {
      "anonymous": false,
      "inputs": [
        {
          "indexed": true,
          "internalType": "address",
          "name": "previousOwner",
          "type": "address"
        },
        {
          "indexed": true,
          "internalType": "address",
          "name": "newOwner",
          "type": "address"
        }
      ],
      "name": "OwnershipTransferred",
      "type": "event"
    },
    {
      "anonymous": false,
      "inputs": [
        {
          "indexed": false,
          "internalType": "uint256",
          "name": "taskId",
          "type": "uint256"
        },
        {
          "indexed": false,
          "internalType": "uint256",
          "name": "tokenId",
          "type": "uint256"
        },
        {
          "indexed": false,
          "internalType": "address",
          "name": "winner",
          "type": "address"
        },
        {
          "indexed": false,
          "internalType": "uint256",
          "name": "fee",
          "type": "uint256"
        }
      ],
      "name": "PrizeClaimed",
      "type": "event"
    },
    {
      "anonymous": false,
      "inputs": [
        {
          "indexed": false,
          "internalType": "uint256",
          "name": "taskId",
          "type": "uint256"
        }
      ],
      "name": "RaffleCancelled",
      "type": "event"
    },
    {
      "anonymous": false,
      "inputs": [
        {
          "indexed": false,
          "internalType": "uint256",
          "name": "taskId",
          "type": "uint256"
        }
      ],
      "name": "RaffleClosed",
      "type": "event"
    },
    {
      "anonymous": false,
      "inputs": [
        {
          "indexed": true,
          "internalType": "uint256",
          "name": "taskId",
          "type": "uint256"
        },
        {
          "indexed": true,
          "internalType": "address",
          "name": "owner",
          "type": "address"
        },
        {
          "indexed": false,
          "internalType": "uint256",
          "name": "startTime",
          "type": "uint256"
        },
        {
          "indexed": false,
          "internalType": "uint256",
          "name": "duration",
          "type": "uint256"
        }
      ],
      "name": "RaffleCreated",
      "type": "event"
    },
    {
      "anonymous": false,
      "inputs": [
        {
          "indexed": false,
          "internalType": "uint256",
          "name": "taskId",
          "type": "uint256"
        },
        {
          "indexed": false,
          "internalType": "address",
          "name": "user",
          "type": "address"
        },
        {
          "indexed": false,
          "internalType": "uint256",
          "name": "amount",
          "type": "uint256"
        }
      ],
      "name": "RaffleEntered",
      "type": "event"
    },
    {
      "anonymous": false,
      "inputs": [
        {
          "indexed": false,
          "internalType": "uint256",
          "name": "taskId",
          "type": "uint256"
        },
        {
          "indexed": false,
          "internalType": "uint256",
          "name": "winningTicket",
          "type": "uint256"
        }
      ],
      "name": "WinningTicketPicked",
      "type": "event"
    },
    {
      "inputs": [
        {
          "internalType": "uint256",
          "name": "_raffleId",
          "type": "uint256"
        }
      ],
      "name": "cancel",
      "outputs": [],
      "stateMutability": "nonpayable",
      "type": "function"
    },
    {
      "inputs": [
        {
          "internalType": "uint256",
          "name": "_raffleId",
          "type": "uint256"
        }
      ],
      "name": "claimFunds",
      "outputs": [],
      "stateMutability": "nonpayable",
      "type": "function"
    },
    {
      "inputs": [
        {
          "internalType": "uint256",
          "name": "_raffleId",
          "type": "uint256"
        }
      ],
      "name": "claimPrize",
      "outputs": [],
      "stateMutability": "nonpayable",
      "type": "function"
    },
    {
      "inputs": [
        {
          "internalType": "uint256",
          "name": "_raffleId",
          "type": "uint256"
        }
      ],
      "name": "close",
      "outputs": [],
      "stateMutability": "nonpayable",
      "type": "function"
    },
    {
      "inputs": [
        {
          "internalType": "address",
          "name": "_tokenAddr",
          "type": "address"
        },
        {
          "internalType": "uint256",
          "name": "_tokenId",
          "type": "uint256"
        },
        {
          "internalType": "uint256",
          "name": "_duration",
          "type": "uint256"
        },
        {
          "internalType": "uint64",
          "name": "_ticketPrice",
          "type": "uint64"
        },
        {
          "internalType": "uint32",
          "name": "_ticketSize",
          "type": "uint32"
        },
        {
          "internalType": "address",
          "name": "_currency",
          "type": "address"
        }
      ],
      "name": "create",
      "outputs": [],
      "stateMutability": "nonpayable",
      "type": "function"
    },
    {
      "inputs": [
        {
          "internalType": "address",
          "name": "",
          "type": "address"
        }
      ],
      "name": "currencyInfo",
      "outputs": [
        {
          "internalType": "bool",
          "name": "enabled",
          "type": "bool"
        },
        {
          "internalType": "uint24",
          "name": "feeRate",
          "type": "uint24"
        }
      ],
      "stateMutability": "view",
      "type": "function"
    },
    {
      "inputs": [],
      "name": "currentTaskId",
      "outputs": [
        {
          "internalType": "uint256",
          "name": "",
          "type": "uint256"
        }
      ],
      "stateMutability": "view",
      "type": "function"
    },
    {
      "inputs": [
        {
          "internalType": "uint256",
          "name": "_raffleId",
          "type": "uint256"
        },
        {
          "internalType": "uint96",
          "name": "_amount",
          "type": "uint96"
        }
      ],
      "name": "enter",
      "outputs": [],
      "stateMutability": "nonpayable",
      "type": "function"
    },
    {
      "inputs": [],
      "name": "feeRate",
      "outputs": [
        {
          "internalType": "uint256",
          "name": "",
          "type": "uint256"
        }
      ],
      "stateMutability": "view",
      "type": "function"
    },
    {
      "inputs": [],
      "name": "feeSetter",
      "outputs": [
        {
          "internalType": "address",
          "name": "",
          "type": "address"
        }
      ],
      "stateMutability": "view",
      "type": "function"
    },
    {
      "inputs": [
        {
          "internalType": "address",
          "name": "_currency",
          "type": "address"
        }
      ],
      "name": "getCurrencyPrice",
      "outputs": [
        {
          "internalType": "uint256",
          "name": "price",
          "type": "uint256"
        }
      ],
      "stateMutability": "view",
      "type": "function"
    },
    {
      "inputs": [
        {
          "internalType": "address",
          "name": "",
          "type": "address"
        },
        {
          "internalType": "address",
          "name": "",
          "type": "address"
        },
        {
          "internalType": "uint256",
          "name": "",
          "type": "uint256"
        },
        {
          "internalType": "bytes",
          "name": "",
          "type": "bytes"
        }
      ],
      "name": "onERC721Received",
      "outputs": [
        {
          "internalType": "bytes4",
          "name": "",
          "type": "bytes4"
        }
      ],
      "stateMutability": "pure",
      "type": "function"
    },
    {
      "inputs": [],
      "name": "owner",
      "outputs": [
        {
          "internalType": "address",
          "name": "",
          "type": "address"
        }
      ],
      "stateMutability": "view",
      "type": "function"
    },
    {
      "inputs": [
        {
          "internalType": "uint256",
          "name": "",
          "type": "uint256"
        }
      ],
      "name": "prizeInfo",
      "outputs": [
        {
          "internalType": "uint32",
          "name": "winningNumber",
          "type": "uint32"
        },
        {
          "internalType": "bool",
          "name": "prizeClaimed",
          "type": "bool"
        },
        {
          "internalType": "bool",
          "name": "fundsClaimed",
          "type": "bool"
        }
      ],
      "stateMutability": "view",
      "type": "function"
    },
    {
      "inputs": [
        {
          "internalType": "uint256",
          "name": "",
          "type": "uint256"
        }
      ],
      "name": "raffleInfo",
      "outputs": [
        {
          "internalType": "address",
          "name": "owner",
          "type": "address"
        },
        {
          "internalType": "uint64",
          "name": "endTime",
          "type": "uint64"
        },
        {
          "internalType": "uint32",
          "name": "ticketSize",
          "type": "uint32"
        },
        {
          "internalType": "uint256",
          "name": "tokenId",
          "type": "uint256"
        },
        {
          "internalType": "address",
          "name": "tokenAddress",
          "type": "address"
        },
        {
          "internalType": "uint64",
          "name": "ticketPrice",
          "type": "uint64"
        },
        {
          "internalType": "uint160",
          "name": "funds",
          "type": "uint160"
        },
        {
          "internalType": "uint96",
          "name": "soldTickets",
          "type": "uint96"
        },
        {
          "internalType": "address",
          "name": "currency",
          "type": "address"
        },
        {
          "internalType": "enum Raffle.TaskStatus",
          "name": "status",
          "type": "uint8"
        }
      ],
      "stateMutability": "view",
      "type": "function"
    },
    {
      "inputs": [
        {
          "internalType": "uint256",
          "name": "requestId",
          "type": "uint256"
        },
        {
          "internalType": "uint256[]",
          "name": "randomWords",
          "type": "uint256[]"
        }
      ],
      "name": "rawFulfillRandomWords",
      "outputs": [],
      "stateMutability": "nonpayable",
      "type": "function"
    },
    {
      "inputs": [],
      "name": "renounceOwnership",
      "outputs": [],
      "stateMutability": "nonpayable",
      "type": "function"
    },
    {
      "inputs": [
        {
          "internalType": "uint256",
          "name": "",
          "type": "uint256"
        }
      ],
      "name": "requestInfo",
      "outputs": [
        {
          "internalType": "uint256",
          "name": "",
          "type": "uint256"
        }
      ],
      "stateMutability": "view",
      "type": "function"
    },
    {
      "inputs": [
        {
          "internalType": "address",
          "name": "_currency",
          "type": "address"
        },
        {
          "internalType": "bool",
          "name": "_enable",
          "type": "bool"
        },
        {
          "internalType": "uint24",
          "name": "_feeRate",
          "type": "uint24"
        }
      ],
      "name": "setCurrency",
      "outputs": [],
      "stateMutability": "nonpayable",
      "type": "function"
    },
    {
      "inputs": [
        {
          "internalType": "address",
          "name": "newOwner",
          "type": "address"
        }
      ],
      "name": "transferOwnership",
      "outputs": [],
      "stateMutability": "nonpayable",
      "type": "function"
    },
    {
      "inputs": [
        {
          "internalType": "uint256",
          "name": "",
          "type": "uint256"
        },
        {
          "internalType": "address",
          "name": "",
          "type": "address"
        }
      ],
      "name": "userInfo",
      "outputs": [
        {
          "internalType": "uint256",
          "name": "ticketAmount",
          "type": "uint256"
        }
      ],
      "stateMutability": "view",
      "type": "function"
    }
  ],
  "bytecode": "0x60e0604052614e20600355600c80546001600160501b031916680300000001000f42401790553480156200003257600080fd5b5060405162003c9538038062003c9583398101604081905262000055916200040c565b8762000061336200023f565b6001600160a01b0316608052600180558051825114620000c75760405162461bcd60e51b815260206004820152601660248201527f466565206c656e67746820646f6e2774206d6174636800000000000000000000604482015260640160405180910390fd5b600a80546001600160a01b03808b166001600160a01b031992831617909255600b879055600c80546001600160401b0388166a010000000000000000000002600160501b600160901b031990911617905584821660a05287821660c05260048054928a169290911691909117905560005b825181101562000230576001600960008584815181106200015d576200015d620004e7565b60200260200101516001600160a01b03166001600160a01b0316815260200190815260200160002060000160006101000a81548160ff021916908315150217905550818181518110620001b457620001b4620004e7565b602002602001015160096000858481518110620001d557620001d5620004e7565b60200260200101516001600160a01b03166001600160a01b0316815260200190815260200160002060000160016101000a81548162ffffff021916908362ffffff160217905550806200022890620004fd565b905062000138565b50505050505050505062000527565b600080546001600160a01b038381166001600160a01b0319831681178455604051919092169283917f8be0079c531659141344cd1fd0a4f28419497f9722a3daafe3b4186f6b6457e09190a35050565b80516001600160a01b0381168114620002a757600080fd5b919050565b634e487b7160e01b600052604160045260246000fd5b604051601f8201601f191681016001600160401b0381118282101715620002ed57620002ed620002ac565b604052919050565b60006001600160401b03821115620003115762000311620002ac565b5060051b60200190565b600082601f8301126200032d57600080fd5b81516020620003466200034083620002f5565b620002c2565b82815260059290921b840181019181810190868411156200036657600080fd5b8286015b848110156200038c576200037e816200028f565b83529183019183016200036a565b509695505050505050565b600082601f830112620003a957600080fd5b81516020620003bc6200034083620002f5565b82815260059290921b84018101918181019086841115620003dc57600080fd5b8286015b848110156200038c57805162ffffff81168114620003fe5760008081fd5b8352918301918301620003e0565b600080600080600080600080610100898b0312156200042a57600080fd5b62000435896200028f565b97506200044560208a016200028f565b96506200045560408a016200028f565b60608a015160808b015191975095506001600160401b0380821682146200047b57600080fd5b8195506200048c60a08c016200028f565b945060c08b0151915080821115620004a357600080fd5b620004b18c838d016200031b565b935060e08b0151915080821115620004c857600080fd5b50620004d78b828c0162000397565b9150509295985092959890939650565b634e487b7160e01b600052603260045260246000fd5b60006000198214156200052057634e487b7160e01b600052601160045260246000fd5b5060010190565b60805160a05160c051613714620005816000396000818161172a015281816119130152818161194c01528181611978015281816119b10152611d4b015260006117690152600081816112aa015261130501526137146000f3fe608060405234801561001057600080fd5b50600436106101765760003560e01c8063715018a6116100d8578063978bbdb91161008c578063bf30d79011610066578063bf30d790146103de578063d7098154146104ae578063f2fde38b146104c157600080fd5b8063978bbdb9146103b957806398934a1f146103c2578063a7c1891e146103cb57600080fd5b806387cf3ef4116100bd57806387cf3ef4146103525780638da5cb5b1461037d57806393f1a40b1461038e57600080fd5b8063715018a6146102e7578063726a41cf146102ef57600080fd5b806340e58ee51161012f57806359991a771161011457806359991a77146102775780636d31cb2a1461028a5780637058346f146102d457600080fd5b806340e58ee5146102365780634f588bf11461024957600080fd5b8063150b7a0211610160578063150b7a02146101a35780631b55e338146102105780631fe543e31461022357600080fd5b8062d407d61461017b5780630aebeb4e14610190575b600080fd5b61018e610189366004612d4f565b6104d4565b005b61018e61019e366004612d90565b610bba565b6101da6101b1366004612e3c565b7f150b7a0200000000000000000000000000000000000000000000000000000000949350505050565b6040517fffffffff0000000000000000000000000000000000000000000000000000000090911681526020015b60405180910390f35b61018e61021e366004612d90565b610f0e565b61018e610231366004612f1e565b61129f565b61018e610244366004612d90565b611340565b610269610257366004612d90565b60086020526000908152604090205481565b604051908152602001610207565b61018e610285366004612fde565b611615565b6102b9610298366004613031565b60096020526000908152604090205460ff811690610100900462ffffff1682565b60408051921515835262ffffff909116602083015201610207565b6102696102e2366004613031565b6116e0565b61018e611ba6565b61032e6102fd366004612d90565b60076020526000908152604090205463ffffffff81169060ff64010000000082048116916501000000000090041683565b6040805163ffffffff90941684529115156020840152151590820152606001610207565b600454610365906001600160a01b031681565b6040516001600160a01b039091168152602001610207565b6000546001600160a01b0316610365565b61026961039c36600461304e565b600660209081526000928352604080842090915290825290205481565b61026960035481565b61026960025481565b61018e6103d9366004613073565b611bba565b6104986103ec366004612d90565b600560205260009081526040902080546001820154600283015460038401546004909401546001600160a01b03808516957401000000000000000000000000000000000000000080870467ffffffffffffffff908116977c0100000000000000000000000000000000000000000000000000000000900463ffffffff169695848116959083900490911693808416938390046bffffffffffffffffffffffff1692908216910460ff168a565b6040516102079a99989796959493929190613128565b61018e6104bc366004612d90565b61214b565b61018e6104cf366004613031565b61259f565b6002600154141561052c5760405162461bcd60e51b815260206004820152601f60248201527f5265656e7472616e637947756172643a207265656e7472616e742063616c6c0060448201526064015b60405180910390fd5b6002600155600082815260056020526040902080546001600160a01b03166105965760405162461bcd60e51b815260206004820152601060248201527f526166666c65206e6f74206578697374000000000000000000000000000000006044820152606401610523565b600160048281015474010000000000000000000000000000000000000000900460ff16908111156105c9576105c96130f9565b14156106175760405162461bcd60e51b815260206004820152601060248201527f526166666c652063616e63656c6c6564000000000000000000000000000000006044820152606401610523565b805474010000000000000000000000000000000000000000900467ffffffffffffffff1642111561068a5760405162461bcd60e51b815260206004820152600e60248201527f526166666c6520657870697265640000000000000000000000000000000000006044820152606401610523565b600381015481546bffffffffffffffffffffffff740100000000000000000000000000000000000000009092048216918416906106ef90839063ffffffff7c01000000000000000000000000000000000000000000000000000000009091041661320d565b6bffffffffffffffffffffffff16101561074b5760405162461bcd60e51b815260206004820152601760248201527f5469636b657473206c656674206e6f7420656e6f7567680000000000000000006044820152606401610523565b600084815260066020908152604080832033845290915290205482546127109061079e906107d0907c0100000000000000000000000000000000000000000000000000000000900463ffffffff1661323a565b6107a891906132a6565b6107c06bffffffffffffffffffffffff8616836132ba565b111561080e5760405162461bcd60e51b815260206004820152601660248201527f5469636b657473206c696d6974206578636565646564000000000000000000006044820152606401610523565b82547c0100000000000000000000000000000000000000000000000000000000900463ffffffff1661084083866132d2565b6bffffffffffffffffffffffff161415610896576004830180547fffffffffffffffffffffff00ffffffffffffffffffffffffffffffffffffffff16740300000000000000000000000000000000000000001790555b60008360040160009054906101000a90046001600160a01b03166001600160a01b031663313ce5676040518163ffffffff1660e01b815260040160206040518083038186803b1580156108e857600080fd5b505afa1580156108fc573d6000803e3d6000fd5b505050506040513d601f19601f820116820180604052508101906109209190613318565b60ff16905060006109926305f5e10061093a84600a613455565b600288015461096b9074010000000000000000000000000000000000000000900467ffffffffffffffff168a613461565b6bffffffffffffffffffffffff16610983919061323a565b61098d91906132a6565b61262f565b90506109b33360048701546001600160a01b039081169190309085166126b2565b600087815260066020908152604080832033845282529182902082518084019093526bffffffffffffffffffffffff87168352600190810192918201906109fa8a896132d2565b610a04919061320d565b6bffffffffffffffffffffffff9081169091528254600181018455600093845260208085208451948201516fffffffffffffffffffffffffffffffff90811670010000000000000000000000000000000002951694909417939091019290925589835260069091526040822090881691610a7b3390565b6001600160a01b03166001600160a01b031681526020019081526020016000206000016000828254610aad91906132ba565b9091555050600385018054829190600090610ad29084906001600160a01b0316613495565b92506101000a8154816001600160a01b0302191690836001600160a01b03160217905550858560030160148282829054906101000a90046bffffffffffffffffffffffff16610b2191906132d2565b92506101000a8154816bffffffffffffffffffffffff02191690836bffffffffffffffffffffffff1602179055507f31ed7968c068023ef5cbf0834bb1d883bedc82dc6e9e44065bc1919184dded3587610b783390565b604080519283526001600160a01b0390911660208301526bffffffffffffffffffffffff89169082015260600160405180910390a15050600180555050505050565b60026001541415610c0d5760405162461bcd60e51b815260206004820152601f60248201527f5265656e7472616e637947756172643a207265656e7472616e742063616c6c006044820152606401610523565b6002600190815560008281526005602052604090209060048281015474010000000000000000000000000000000000000000900460ff1690811115610c5457610c546130f9565b1415610ca25760405162461bcd60e51b815260206004820152601060248201527f526166666c652063616e63656c6c6564000000000000000000000000000000006044820152606401610523565b805474010000000000000000000000000000000000000000900467ffffffffffffffff1642101580610d045750600360048281015474010000000000000000000000000000000000000000900460ff1690811115610d0257610d026130f9565b145b610d505760405162461bcd60e51b815260206004820152601260248201527f4e6f7420726561647920746f20636c6f736500000000000000000000000000006044820152606401610523565b600360048281015474010000000000000000000000000000000000000000900460ff1690811115610d8357610d836130f9565b14610dca576004810180547fffffffffffffffffffffff00ffffffffffffffffffffffffffffffffffffffff16740200000000000000000000000000000000000000001790555b600a54600b54600c546040517f5d3b1d3000000000000000000000000000000000000000000000000000000000815260048101929092526a0100000000000000000000810467ffffffffffffffff16602483015268010000000000000000810461ffff16604483015263ffffffff80821660648401526401000000009091041660848201526000916001600160a01b031690635d3b1d309060a401602060405180830381600087803b158015610e7f57600080fd5b505af1158015610e93573d6000803e3d6000fd5b505050506040513d601f19601f82011682018060405250810190610eb791906134b7565b60008181526008602052604090819020859055519091507f2a7d48246875b5f17dc9944def25fc8fe90e524ca2165e290ffdc0e44a0bf8b690610efd9085815260200190565b60405180910390a150506001805550565b60026001541415610f615760405162461bcd60e51b815260206004820152601f60248201527f5265656e7472616e637947756172643a207265656e7472616e742063616c6c006044820152606401610523565b600260015560008181526005602052604090206004808281015474010000000000000000000000000000000000000000900460ff1690811115610fa657610fa66130f9565b14610ff35760405162461bcd60e51b815260206004820152600e60248201527f526166666c65206e6f7420656e640000000000000000000000000000000000006044820152606401610523565b80546001600160a01b0316331461104c5760405162461bcd60e51b815260206004820152601360248201527f4e6f74206f776e6572206f6620726166666c65000000000000000000000000006044820152606401610523565b6000828152600760205260409020805465010000000000900460ff16156110b55760405162461bcd60e51b815260206004820152601560248201527f46756e647320616c726561647920636c61696d656400000000000000000000006044820152606401610523565b60038201546004808401546040517f70a0823100000000000000000000000000000000000000000000000000000000815230928101929092526001600160a01b039283169283929116906370a082319060240160206040518083038186803b15801561112057600080fd5b505afa158015611134573d6000803e3d6000fd5b505050506040513d601f19601f8201168201806040525081019061115891906134b7565b10156111a65760405162461bcd60e51b815260206004820152601060248201527f46756e6473206e6f7420656e6f756768000000000000000000000000000000006044820152606401610523565b6000620f4240600354836111ba919061323a565b6111c491906132a6565b905060006111d282846134d0565b60048054908701549192506111f4916001600160a01b03908116911684612787565b61120d3360048701546001600160a01b03169083612787565b83547fffffffffffffffffffffffffffffffffffffffffffffffffffff00ffffffffff16650100000000001784557f3f53f5f381ee0b1fbf730fa56efb0a2aec8a882b2847a1ec0279982d8846e4f286846112653390565b6040805193845260208401929092526001600160a01b0316908201526060810184905260800160405180910390a150506001805550505050565b336001600160a01b037f00000000000000000000000000000000000000000000000000000000000000001614611332576040517f1cf993f40000000000000000000000000000000000000000000000000000000081523360048201526001600160a01b037f0000000000000000000000000000000000000000000000000000000000000000166024820152604401610523565b61133c82826127d0565b5050565b600260015414156113935760405162461bcd60e51b815260206004820152601f60248201527f5265656e7472616e637947756172643a207265656e7472616e742063616c6c006044820152606401610523565b6002600155600081815260056020526040902080546001600160a01b031633146113ff5760405162461bcd60e51b815260206004820152601760248201527f43616c6c6572206e6f7420726166666c65206f776e65720000000000000000006044820152606401610523565b600160048281015474010000000000000000000000000000000000000000900460ff1690811115611432576114326130f9565b14156114805760405162461bcd60e51b815260206004820152601860248201527f526166666c6520616c72656164792063616e63656c6c656400000000000000006044820152606401610523565b60038101547401000000000000000000000000000000000000000090046bffffffffffffffffffffffff16156114f85760405162461bcd60e51b815260206004820152601660248201527f526166666c6520616c726561647920656e7465726564000000000000000000006044820152606401610523565b600481018054740100000000000000000000000000000000000000007fffffffffffffffffffffff00ffffffffffffffffffffffffffffffffffffffff90911617905560028101546001600160a01b03166342842e0e303360018501546040517fffffffff0000000000000000000000000000000000000000000000000000000060e086901b1681526001600160a01b0393841660048201529290911660248301526044820152606401600060405180830381600087803b1580156115bc57600080fd5b505af11580156115d0573d6000803e3d6000fd5b505050507f7fa78bab5d5570f162c69234a3f4d1b9294fd5bca72219cb16c1fe38839ccb8a8260405161160591815260200190565b60405180910390a1505060018055565b61161d612912565b811561169c576001600160a01b038316600090815260096020526040902080548315157fffffffffffffffffffffffffffffffffffffffffffffffffffffffffffffff0062ffffff851661010002167fffffffffffffffffffffffffffffffffffffffffffffffffffffffff0000000090921691909117179055505050565b6001600160a01b038316600090815260096020526040902080547fffffffffffffffffffffffffffffffffffffffffffffffffffffffff000000001690555b505050565b6001600160a01b038181166000818152600960205260408082205490517f1698ee8200000000000000000000000000000000000000000000000000000000815260048101939093527f000000000000000000000000000000000000000000000000000000000000000084166024840152610100900462ffffff16604483018190529092909183917f00000000000000000000000000000000000000000000000000000000000000001690631698ee829060640160206040518083038186803b1580156117ab57600080fd5b505afa1580156117bf573d6000803e3d6000fd5b505050506040513d601f19601f820116820180604052508101906117e391906134e7565b90506001600160a01b03811661183b5760405162461bcd60e51b815260206004820152600e60248201527f506f6f6c206e6f742065786973740000000000000000000000000000000000006044820152606401610523565b6000816001600160a01b0316633850c7bd6040518163ffffffff1660e01b815260040160e06040518083038186803b15801561187657600080fd5b505afa15801561188a573d6000803e3d6000fd5b505050506040513d601f19601f820116820180604052508101906118ae9190613516565b5050505050506001600160a01b031690506000811161190f5760405162461bcd60e51b815260206004820152600d60248201527f496e76616c6964207072696365000000000000000000000000000000000000006044820152606401610523565b60007f00000000000000000000000000000000000000000000000000000000000000006001600160a01b0316866001600160a01b031611611970577f0000000000000000000000000000000000000000000000000000000000000000611972565b855b905060007f00000000000000000000000000000000000000000000000000000000000000006001600160a01b0316876001600160a01b0316106119d5577f00000000000000000000000000000000000000000000000000000000000000006119d7565b865b90506000826001600160a01b031663313ce5676040518163ffffffff1660e01b815260040160206040518083038186803b158015611a1457600080fd5b505afa158015611a28573d6000803e3d6000fd5b505050506040513d601f19601f82011682018060405250810190611a4c9190613318565b60ff1690506000826001600160a01b031663313ce5676040518163ffffffff1660e01b815260040160206040518083038186803b158015611a8c57600080fd5b505afa158015611aa0573d6000803e3d6000fd5b505050506040513d601f19601f82011682018060405250810190611ac49190613318565b60ff169050836001600160a01b0316896001600160a01b03161415611b3057611aee82600a613455565b611af982600a613455565b60c06305f5e100611b0a898061323a565b611b14919061323a565b611b1f92911c6132a6565b611b29919061323a565b9750611b9a565b84611b3c83600a613455565b611b4783600a613455565b6305f5e100611b6f8978010000000000000000000000000000000000000000000000006132a6565b611b79919061323a565b611b83919061323a565b611b8d91906132a6565b611b9791906132a6565b97505b50505050505050919050565b611bae612912565b611bb8600061296c565b565b60026001541415611c0d5760405162461bcd60e51b815260206004820152601f60248201527f5265656e7472616e637947756172643a207265656e7472616e742063616c6c006044820152606401610523565b6002600155620151808410801590611c28575062278d008411155b611c745760405162461bcd60e51b815260206004820152601060248201527f496e76616c6964206475726174696f6e000000000000000000000000000000006044820152606401610523565b8163ffffffff16600111158015611c9357506107d08263ffffffff1611155b611cdf5760405162461bcd60e51b815260206004820152601360248201527f496e76616c6964207469636b65742073697a65000000000000000000000000006044820152606401610523565b6001600160a01b03811660009081526009602052604090205460ff16611d475760405162461bcd60e51b815260206004820152601060248201527f496e76616c69642063757272656e6379000000000000000000000000000000006044820152606401610523565b60007f00000000000000000000000000000000000000000000000000000000000000006001600160a01b0316826001600160a01b031614611d9057611d8b826116e0565b611d96565b6305f5e1005b9050611da66305f5e1008061323a565b611dba67ffffffffffffffff86168361323a565b1015611e085760405162461bcd60e51b815260206004820152601460248201527f5469636b657420707269636520746f6f206c6f770000000000000000000000006044820152606401610523565b6001600160a01b0387166342842e0e336040517fffffffff0000000000000000000000000000000000000000000000000000000060e084901b1681526001600160a01b03909116600482015230602482015260448101899052606401600060405180830381600087803b158015611e7e57600080fd5b505af1158015611e92573d6000803e3d6000fd5b50505050604051806101400160405280611ea93390565b6001600160a01b03168152602001611ec9611ec488426132ba565b6129d4565b67ffffffffffffffff1681526020018463ffffffff168152602001878152602001886001600160a01b031681526020018567ffffffffffffffff16815260200160006001600160a01b0316815260200160006bffffffffffffffffffffffff168152602001836001600160a01b0316815260200160006004811115611f5057611f506130f9565b90526002805460009081526005602090815260409182902084518154928601519386015163ffffffff167c0100000000000000000000000000000000000000000000000000000000027bffffffffffffffffffffffffffffffffffffffffffffffffffffffff67ffffffffffffffff958616740100000000000000000000000000000000000000009081027fffffffff000000000000000000000000000000000000000000000000000000009687166001600160a01b03958616171791909116919091178355606087015160018401556080870151958301805460a0890151909616820295909416958216959095179390931790915560c084015160e08501516bffffffffffffffffffffffff16840290831617600382015561010084015160048083018054929094167fffffffffffffffffffffffff000000000000000000000000000000000000000083168117855561012087015193959394937fffffffffffffffffffffff00000000000000000000000000000000000000000090931617919084908111156120e4576120e46130f9565b02179055509050506002600081546120fb906135ac565b9091555060025460408051428152602081018890523392917f71f77ac840b74f30ac7115cc2fca45c4157ccc2b0a6e72f4183c587d77baa0ab910160405180910390a35050600180555050505050565b6002600154141561219e5760405162461bcd60e51b815260206004820152601f60248201527f5265656e7472616e637947756172643a207265656e7472616e742063616c6c006044820152606401610523565b600260015560008181526005602052604090206004808281015474010000000000000000000000000000000000000000900460ff16908111156121e3576121e36130f9565b146122305760405162461bcd60e51b815260206004820152600e60248201527f526166666c65206e6f7420656e640000000000000000000000000000000000006044820152606401610523565b60008281526007602052604090208054640100000000900460ff16156122985760405162461bcd60e51b815260206004820152601560248201527f5072697a6520616c726561647920636c61696d656400000000000000000000006044820152606401610523565b6000838152600660209081526040808320338452825280832060010180548251818502810185019093528083529192909190849084015b8282101561232e57600084815260209081902060408051808201909152908401546fffffffffffffffffffffffffffffffff808216835270010000000000000000000000000000000090910416818301528252600190920191016122cf565b5050505090506000805b82518110156123d0576000838281518110612355576123556135e5565b6020908102919091010151805186549192506fffffffffffffffffffffffffffffffff1663ffffffff909116108015906123b05750602081015185546fffffffffffffffffffffffffffffffff90911663ffffffff90911611155b156123bf5760019250506123d0565b506123c9816135ac565b9050612338565b508061241e5760405162461bcd60e51b815260206004820152601760248201527f43616c6c6572206973206e6f7420612077696e6e6572210000000000000000006044820152606401610523565b60038085015490546001600160a01b0390911690600090620f424090612444908461323a565b61244e91906132a6565b90506124703360048054908901546001600160a01b03908116929116846126b2565b600186015460028701546001600160a01b0316806342842e0e30336040517fffffffff0000000000000000000000000000000000000000000000000000000060e085901b1681526001600160a01b0392831660048201529116602482015260448101859052606401600060405180830381600087803b1580156124f257600080fd5b505af1158015612506573d6000803e3d6000fd5b505088547fffffffffffffffffffffffffffffffffffffffffffffffffffffff00ffffffff16640100000000178955507f608c8c3c6a3d40f40b96fbee44f9b9aee57a39c2fcb8bb0f59d8892b2d5492a2905089836125623390565b6040805193845260208401929092526001600160a01b0316908201526060810185905260800160405180910390a150506001805550505050505050565b6125a7612912565b6001600160a01b0381166126235760405162461bcd60e51b815260206004820152602660248201527f4f776e61626c653a206e6577206f776e657220697320746865207a65726f206160448201527f64647265737300000000000000000000000000000000000000000000000000006064820152608401610523565b61262c8161296c565b50565b60006001600160a01b038211156126ae5760405162461bcd60e51b815260206004820152602760248201527f53616665436173743a2076616c756520646f65736e27742066697420696e203160448201527f36302062697473000000000000000000000000000000000000000000000000006064820152608401610523565b5090565b6040516001600160a01b03808516602483015283166044820152606481018290526127819085907f23b872dd00000000000000000000000000000000000000000000000000000000906084015b604080517fffffffffffffffffffffffffffffffffffffffffffffffffffffffffffffffe08184030181529190526020810180517bffffffffffffffffffffffffffffffffffffffffffffffffffffffff167fffffffff0000000000000000000000000000000000000000000000000000000090931692909217909152612a54565b50505050565b6040516001600160a01b0383166024820152604481018290526116db9084907fa9059cbb00000000000000000000000000000000000000000000000000000000906064016126ff565b600082815260086020908152604080832054808452600590925282206003810154845192939192740100000000000000000000000000000000000000009091046bffffffffffffffffffffffff16908590839061282f5761282f6135e5565b60200260200101516128419190613614565b905061284c81612b39565b600084815260076020526040902080547fffffffffffffffffffffffffffffffffffffffffffffffffffffffff000000001663ffffffff92909216919091179055600482810180547fffffffffffffffffffffff00ffffffffffffffffffffffffffffffffffffffff167401000000000000000000000000000000000000000083021790555060408051848152602081018390527f05459ed43a6fc64488d6051768b4c51dd130988284a0c8282e086078cd5ab546910160405180910390a15050505050565b6000546001600160a01b03163314611bb85760405162461bcd60e51b815260206004820181905260248201527f4f776e61626c653a2063616c6c6572206973206e6f7420746865206f776e65726044820152606401610523565b600080546001600160a01b038381167fffffffffffffffffffffffff0000000000000000000000000000000000000000831681178455604051919092169283917f8be0079c531659141344cd1fd0a4f28419497f9722a3daafe3b4186f6b6457e09190a35050565b600067ffffffffffffffff8211156126ae5760405162461bcd60e51b815260206004820152602660248201527f53616665436173743a2076616c756520646f65736e27742066697420696e203660448201527f34206269747300000000000000000000000000000000000000000000000000006064820152608401610523565b6000612aa9826040518060400160405280602081526020017f5361666545524332303a206c6f772d6c6576656c2063616c6c206661696c6564815250856001600160a01b0316612bb59092919063ffffffff16565b8051909150156116db5780806020019051810190612ac79190613628565b6116db5760405162461bcd60e51b815260206004820152602a60248201527f5361666545524332303a204552433230206f7065726174696f6e20646964206e60448201527f6f742073756363656564000000000000000000000000000000000000000000006064820152608401610523565b600063ffffffff8211156126ae5760405162461bcd60e51b815260206004820152602660248201527f53616665436173743a2076616c756520646f65736e27742066697420696e203360448201527f32206269747300000000000000000000000000000000000000000000000000006064820152608401610523565b6060612bc48484600085612bce565b90505b9392505050565b606082471015612c465760405162461bcd60e51b815260206004820152602660248201527f416464726573733a20696e73756666696369656e742062616c616e636520666f60448201527f722063616c6c00000000000000000000000000000000000000000000000000006064820152608401610523565b6001600160a01b0385163b612c9d5760405162461bcd60e51b815260206004820152601d60248201527f416464726573733a2063616c6c20746f206e6f6e2d636f6e74726163740000006044820152606401610523565b600080866001600160a01b03168587604051612cb99190613671565b60006040518083038185875af1925050503d8060008114612cf6576040519150601f19603f3d011682016040523d82523d6000602084013e612cfb565b606091505b5091509150612d0b828286612d16565b979650505050505050565b60608315612d25575081612bc7565b825115612d355782518084602001fd5b8160405162461bcd60e51b8152600401610523919061368d565b60008060408385031215612d6257600080fd5b8235915060208301356bffffffffffffffffffffffff81168114612d8557600080fd5b809150509250929050565b600060208284031215612da257600080fd5b5035919050565b6001600160a01b038116811461262c57600080fd5b7f4e487b7100000000000000000000000000000000000000000000000000000000600052604160045260246000fd5b604051601f82017fffffffffffffffffffffffffffffffffffffffffffffffffffffffffffffffe016810167ffffffffffffffff81118282101715612e3457612e34612dbe565b604052919050565b60008060008060808587031215612e5257600080fd5b8435612e5d81612da9565b9350602085810135612e6e81612da9565b935060408601359250606086013567ffffffffffffffff80821115612e9257600080fd5b818801915088601f830112612ea657600080fd5b813581811115612eb857612eb8612dbe565b612ee8847fffffffffffffffffffffffffffffffffffffffffffffffffffffffffffffffe0601f84011601612ded565b91508082528984828501011115612efe57600080fd5b808484018584013760008482840101525080935050505092959194509250565b60008060408385031215612f3157600080fd5b8235915060208084013567ffffffffffffffff80821115612f5157600080fd5b818601915086601f830112612f6557600080fd5b813581811115612f7757612f77612dbe565b8060051b9150612f88848301612ded565b8181529183018401918481019089841115612fa257600080fd5b938501935b83851015612fc057843582529385019390850190612fa7565b8096505050505050509250929050565b801515811461262c57600080fd5b600080600060608486031215612ff357600080fd5b8335612ffe81612da9565b9250602084013561300e81612fd0565b9150604084013562ffffff8116811461302657600080fd5b809150509250925092565b60006020828403121561304357600080fd5b8135612bc781612da9565b6000806040838503121561306157600080fd5b823591506020830135612d8581612da9565b60008060008060008060c0878903121561308c57600080fd5b863561309781612da9565b95506020870135945060408701359350606087013567ffffffffffffffff811681146130c257600080fd5b9250608087013563ffffffff811681146130db57600080fd5b915060a08701356130eb81612da9565b809150509295509295509295565b7f4e487b7100000000000000000000000000000000000000000000000000000000600052602160045260246000fd5b6001600160a01b038b8116825267ffffffffffffffff8b8116602084015263ffffffff8b166040840152606083018a90528882166080840152871660a083015285811660c08301526bffffffffffffffffffffffff851660e083015283166101008201526101408101600583106131c8577f4e487b7100000000000000000000000000000000000000000000000000000000600052602160045260246000fd5b826101208301529b9a5050505050505050505050565b7f4e487b7100000000000000000000000000000000000000000000000000000000600052601160045260246000fd5b60006bffffffffffffffffffffffff83811690831681811015613232576132326131de565b039392505050565b6000817fffffffffffffffffffffffffffffffffffffffffffffffffffffffffffffffff0483118215151615613272576132726131de565b500290565b7f4e487b7100000000000000000000000000000000000000000000000000000000600052601260045260246000fd5b6000826132b5576132b5613277565b500490565b600082198211156132cd576132cd6131de565b500190565b60006bffffffffffffffffffffffff8083168185168083038211156132f9576132f96131de565b01949350505050565b805160ff8116811461331357600080fd5b919050565b60006020828403121561332a57600080fd5b612bc782613302565b600181815b8085111561338c57817fffffffffffffffffffffffffffffffffffffffffffffffffffffffffffffffff04821115613372576133726131de565b8085161561337f57918102915b93841c9390800290613338565b509250929050565b6000826133a35750600161344f565b816133b05750600061344f565b81600181146133c657600281146133d0576133ec565b600191505061344f565b60ff8411156133e1576133e16131de565b50506001821b61344f565b5060208310610133831016604e8410600b841016171561340f575081810a61344f565b6134198383613333565b807fffffffffffffffffffffffffffffffffffffffffffffffffffffffffffffffff0482111561344b5761344b6131de565b0290505b92915050565b6000612bc78383613394565b60006bffffffffffffffffffffffff8083168185168183048111821515161561348c5761348c6131de565b02949350505050565b60006001600160a01b038083168185168083038211156132f9576132f96131de565b6000602082840312156134c957600080fd5b5051919050565b6000828210156134e2576134e26131de565b500390565b6000602082840312156134f957600080fd5b8151612bc781612da9565b805161ffff8116811461331357600080fd5b600080600080600080600060e0888a03121561353157600080fd5b875161353c81612da9565b8097505060208801518060020b811461355457600080fd5b955061356260408901613504565b945061357060608901613504565b935061357e60808901613504565b925061358c60a08901613302565b915060c088015161359c81612fd0565b8091505092959891949750929550565b60007fffffffffffffffffffffffffffffffffffffffffffffffffffffffffffffffff8214156135de576135de6131de565b5060010190565b7f4e487b7100000000000000000000000000000000000000000000000000000000600052603260045260246000fd5b60008261362357613623613277565b500690565b60006020828403121561363a57600080fd5b8151612bc781612fd0565b60005b83811015613660578181015183820152602001613648565b838111156127815750506000910152565b60008251613683818460208701613645565b9190910192915050565b60208152600082518060208401526136ac816040850160208701613645565b601f017fffffffffffffffffffffffffffffffffffffffffffffffffffffffffffffffe016919091016040019291505056fea26469706673582212201b1061695e221b4f2d6fbb4de1e216e2311c6dc6be2d025d526c9874d607123364736f6c63430008090033",
  "linkReferences": {},
  "deployedLinkReferences": {}
}