{
  "_format": "hh-sol-artifact-1",
  "contractName": "Raffle",
  "sourceName": "contracts/Raffle.sol",
  "abi": [
    {
      "inputs": [],
      "stateMutability": "nonpayable",
      "type": "constructor"
    },
    {
      "inputs": [
        {
          "internalType": "uint256",
          "name": "",
          "type": "uint256"
        }
      ],
      "name": "entries",
      "outputs": [
        {
          "internalType": "address",
          "name": "user",
          "type": "address"
        },
        {
          "internalType": "uint256",
          "name": "id",
          "type": "uint256"
        }
      ],
      "stateMutability": "view",
      "type": "function"
    },
    {
      "inputs": [
        {
          "internalType": "uint256",
          "name": "winningNumber",
          "type": "uint256"
        }
      ],
      "name": "getWinner",
      "outputs": [
        {
          "internalType": "address",
          "name": "winner",
          "type": "address"
        }
      ],
      "stateMutability": "nonpayable",
      "type": "function"
    },
    {
      "inputs": [],
      "name": "ticketAmount",
      "outputs": [
        {
          "internalType": "uint256",
          "name": "",
          "type": "uint256"
        }
      ],
      "stateMutability": "view",
      "type": "function"
    }
  ],
  "bytecode": "0x60806040523480156200001157600080fd5b5060006001905060005b6101f38173ffffffffffffffffffffffffffffffffffffffff16116200010b57600060405180604001604052808373ffffffffffffffffffffffffffffffffffffffff16815260200184815250908060018154018082558091505060019003906000526020600020906002020160009091909190915060008201518160000160006101000a81548173ffffffffffffffffffffffffffffffffffffffff021916908373ffffffffffffffffffffffffffffffffffffffff160217905550602082015181600101555050606482620000f391906200027e565b915080806200010290620002fb565b9150506200001b565b506001816200011b91906200033d565b6001819055506200016f6040518060400160405280600e81526020017f7469636b6574416d6f756e743a200000000000000000000000000000000000008152506001546200017660201b620004cd1760201c565b5062000461565b6200021882826040516024016200018f9291906200042d565b6040516020818303038152906040527fb60e72cc000000000000000000000000000000000000000000000000000000007bffffffffffffffffffffffffffffffffffffffffffffffffffffffff19166020820180517bffffffffffffffffffffffffffffffffffffffffffffffffffffffff83818316178352505050506200021c60201b60201c565b5050565b60008151905060006a636f6e736f6c652e6c6f679050602083016000808483855afa5050505050565b6000819050919050565b7f4e487b7100000000000000000000000000000000000000000000000000000000600052601160045260246000fd5b60006200028b8262000245565b9150620002988362000245565b9250827fffffffffffffffffffffffffffffffffffffffffffffffffffffffffffffffff03821115620002d057620002cf6200024f565b5b828201905092915050565b600073ffffffffffffffffffffffffffffffffffffffff82169050919050565b60006200030882620002db565b915073ffffffffffffffffffffffffffffffffffffffff8214156200033257620003316200024f565b5b600182019050919050565b60006200034a8262000245565b9150620003578362000245565b9250828210156200036d576200036c6200024f565b5b828203905092915050565b600081519050919050565b600082825260208201905092915050565b60005b83811015620003b457808201518184015260208101905062000397565b83811115620003c4576000848401525b50505050565b6000601f19601f8301169050919050565b6000620003e88262000378565b620003f4818562000383565b93506200040681856020860162000394565b6200041181620003ca565b840191505092915050565b620004278162000245565b82525050565b60006040820190508181036000830152620004498185620003db565b90506200045a60208301846200041c565b9392505050565b610a0580620004716000396000f3fe608060405234801561001057600080fd5b50600436106100415760003560e01c80630ba679c1146100465780634129b2c914610064578063b30906d414610094575b600080fd5b61004e6100c5565b60405161005b9190610647565b60405180910390f35b61007e60048036038101906100799190610693565b6100cb565b60405161008b9190610701565b60405180910390f35b6100ae60048036038101906100a99190610693565b610479565b6040516100bc92919061071c565b60405180910390f35b60015481565b60008060016000805490506100e09190610774565b9050600080600282846100f391906107a8565b6100fd919061082d565b905060005a90506000866000868154811061011b5761011a61085e565b5b90600052602060002090600202016001015411610208576101b66040518060400160405280600881526020017f77696e6e65723a200000000000000000000000000000000000000000000000008152506000878154811061017f5761017e61085e565b5b906000526020600020906002020160000160009054906101000a900473ffffffffffffffffffffffffffffffffffffffff16610569565b600085815481106101ca576101c961085e565b5b906000526020600020906002020160000160009054906101000a900473ffffffffffffffffffffffffffffffffffffffff1695505050505050610474565b5b866000848154811061021e5761021d61085e565b5b906000526020600020906002020160010154141580156102495750600184866102479190610774565b115b156102a15786600084815481106102635761026261085e565b5b906000526020600020906002020160010154111561028357829450610287565b8293505b6001858501901c92508061029a9061088d565b9050610209565b60005a836102af9190610774565b90506102f06040518060400160405280600d81526020017f676173436f6e73756d65643a2000000000000000000000000000000000000000815250826104cd565b61032f6040518060400160405280600b81526020017f6c6f6f7054696d65733a20000000000000000000000000000000000000000000815250836104cd565b87600085815481106103445761034361085e565b5b906000526020600020906002020160010154146103a6576000858154811061036f5761036e61085e565b5b906000526020600020906002020160000160009054906101000a900473ffffffffffffffffffffffffffffffffffffffff166103ed565b600084815481106103ba576103b961085e565b5b906000526020600020906002020160000160009054906101000a900473ffffffffffffffffffffffffffffffffffffffff165b965061042e6040518060400160405280600881526020017f77696e6e65723a2000000000000000000000000000000000000000000000000081525088610569565b61046d6040518060400160405280600b81526020017f74696d657374616d703a20000000000000000000000000000000000000000000815250426104cd565b5050505050505b919050565b6000818154811061048957600080fd5b90600052602060002090600202016000915090508060000160009054906101000a900473ffffffffffffffffffffffffffffffffffffffff16908060010154905082565b61056582826040516024016104e392919061096f565b6040516020818303038152906040527fb60e72cc000000000000000000000000000000000000000000000000000000007bffffffffffffffffffffffffffffffffffffffffffffffffffffffff19166020820180517bffffffffffffffffffffffffffffffffffffffffffffffffffffffff8381831617835250505050610605565b5050565b610601828260405160240161057f92919061099f565b6040516020818303038152906040527f319af333000000000000000000000000000000000000000000000000000000007bffffffffffffffffffffffffffffffffffffffffffffffffffffffff19166020820180517bffffffffffffffffffffffffffffffffffffffffffffffffffffffff8381831617835250505050610605565b5050565b60008151905060006a636f6e736f6c652e6c6f679050602083016000808483855afa5050505050565b6000819050919050565b6106418161062e565b82525050565b600060208201905061065c6000830184610638565b92915050565b600080fd5b6106708161062e565b811461067b57600080fd5b50565b60008135905061068d81610667565b92915050565b6000602082840312156106a9576106a8610662565b5b60006106b78482850161067e565b91505092915050565b600073ffffffffffffffffffffffffffffffffffffffff82169050919050565b60006106eb826106c0565b9050919050565b6106fb816106e0565b82525050565b600060208201905061071660008301846106f2565b92915050565b600060408201905061073160008301856106f2565b61073e6020830184610638565b9392505050565b7f4e487b7100000000000000000000000000000000000000000000000000000000600052601160045260246000fd5b600061077f8261062e565b915061078a8361062e565b92508282101561079d5761079c610745565b5b828203905092915050565b60006107b38261062e565b91506107be8361062e565b9250827fffffffffffffffffffffffffffffffffffffffffffffffffffffffffffffffff038211156107f3576107f2610745565b5b828201905092915050565b7f4e487b7100000000000000000000000000000000000000000000000000000000600052601260045260246000fd5b60006108388261062e565b91506108438361062e565b925082610853576108526107fe565b5b828204905092915050565b7f4e487b7100000000000000000000000000000000000000000000000000000000600052603260045260246000fd5b60006108988261062e565b91507fffffffffffffffffffffffffffffffffffffffffffffffffffffffffffffffff8214156108cb576108ca610745565b5b600182019050919050565b600081519050919050565b600082825260208201905092915050565b60005b838110156109105780820151818401526020810190506108f5565b8381111561091f576000848401525b50505050565b6000601f19601f8301169050919050565b6000610941826108d6565b61094b81856108e1565b935061095b8185602086016108f2565b61096481610925565b840191505092915050565b600060408201905081810360008301526109898185610936565b90506109986020830184610638565b9392505050565b600060408201905081810360008301526109b98185610936565b90506109c860208301846106f2565b939250505056fea26469706673582212200ad86f80af4350a9210a71e7035ba3e69d30d9da9aa28b356ac31de23d50a98a64736f6c63430008090033",
  "linkReferences": {},
  "deployedLinkReferences": {}
}