{
  "_format": "hh-sol-artifact-1",
  "contractName": "RewardSharingSystem",
  "sourceName": "contracts/staking/RewardSharingSystem.sol",
  "abi": [
    {
      "inputs": [
        {
          "internalType": "address",
          "name": "_hunterGovernanceToken",
          "type": "address"
        },
        {
          "internalType": "address",
          "name": "_rewardToken",
          "type": "address"
        },
        {
          "internalType": "address",
          "name": "_tokenDistributor",
          "type": "address"
        }
      ],
      "stateMutability": "nonpayable",
      "type": "constructor"
    },
    {
      "anonymous": false,
      "inputs": [
        {
          "indexed": true,
          "internalType": "address",
          "name": "user",
          "type": "address"
        },
        {
          "indexed": false,
          "internalType": "uint256",
          "name": "amount",
          "type": "uint256"
        },
        {
          "indexed": false,
          "internalType": "uint256",
          "name": "harvestedAmount",
          "type": "uint256"
        }
      ],
      "name": "Deposit",
      "type": "event"
    },
    {
      "anonymous": false,
      "inputs": [
        {
          "indexed": true,
          "internalType": "address",
          "name": "user",
          "type": "address"
        },
        {
          "indexed": false,
          "internalType": "uint256",
          "name": "harvestedAmount",
          "type": "uint256"
        }
      ],
      "name": "HarvestFee",
      "type": "event"
    },
    {
      "anonymous": false,
      "inputs": [
        {
          "indexed": true,
          "internalType": "address",
          "name": "user",
          "type": "address"
        },
        {
          "indexed": false,
          "internalType": "uint256",
          "name": "harvestedAmount",
          "type": "uint256"
        }
      ],
      "name": "HarvestHTG",
      "type": "event"
    },
    {
      "anonymous": false,
      "inputs": [
        {
          "indexed": false,
          "internalType": "uint256",
          "name": "numberBlocks",
          "type": "uint256"
        },
        {
          "indexed": false,
          "internalType": "uint256",
          "name": "rewardPerBlock",
          "type": "uint256"
        },
        {
          "indexed": false,
          "internalType": "uint256",
          "name": "reward",
          "type": "uint256"
        }
      ],
      "name": "NewRewardPeriod",
      "type": "event"
    },
    {
      "anonymous": false,
      "inputs": [
        {
          "indexed": true,
          "internalType": "address",
          "name": "previousOwner",
          "type": "address"
        },
        {
          "indexed": true,
          "internalType": "address",
          "name": "newOwner",
          "type": "address"
        }
      ],
      "name": "OwnershipTransferred",
      "type": "event"
    },
    {
      "anonymous": false,
      "inputs": [
        {
          "indexed": true,
          "internalType": "address",
          "name": "user",
          "type": "address"
        },
        {
          "indexed": false,
          "internalType": "uint256",
          "name": "amount",
          "type": "uint256"
        },
        {
          "indexed": false,
          "internalType": "uint256",
          "name": "harvestedAmount",
          "type": "uint256"
        }
      ],
      "name": "Withdraw",
      "type": "event"
    },
    {
      "inputs": [],
      "name": "PRECISION_FACTOR",
      "outputs": [
        {
          "internalType": "uint256",
          "name": "",
          "type": "uint256"
        }
      ],
      "stateMutability": "view",
      "type": "function"
    },
    {
      "inputs": [],
      "name": "currentRewardPerBlock",
      "outputs": [
        {
          "internalType": "uint256",
          "name": "",
          "type": "uint256"
        }
      ],
      "stateMutability": "view",
      "type": "function"
    },
    {
      "inputs": [
        {
          "internalType": "uint256",
          "name": "amount",
          "type": "uint256"
        },
        {
          "internalType": "bool",
          "name": "claimRewardToken",
          "type": "bool"
        }
      ],
      "name": "deposit",
      "outputs": [],
      "stateMutability": "nonpayable",
      "type": "function"
    },
    {
      "inputs": [],
      "name": "harvestFee",
      "outputs": [],
      "stateMutability": "nonpayable",
      "type": "function"
    },
    {
      "inputs": [],
      "name": "harvestHTG",
      "outputs": [],
      "stateMutability": "nonpayable",
      "type": "function"
    },
    {
      "inputs": [],
      "name": "hunterGovernanceToken",
      "outputs": [
        {
          "internalType": "contract IERC20",
          "name": "",
          "type": "address"
        }
      ],
      "stateMutability": "view",
      "type": "function"
    },
    {
      "inputs": [],
      "name": "lastRewardAdjustment",
      "outputs": [
        {
          "internalType": "uint256",
          "name": "",
          "type": "uint256"
        }
      ],
      "stateMutability": "view",
      "type": "function"
    },
    {
      "inputs": [],
      "name": "lastRewardBlock",
      "outputs": [
        {
          "internalType": "uint256",
          "name": "",
          "type": "uint256"
        }
      ],
      "stateMutability": "view",
      "type": "function"
    },
    {
      "inputs": [],
      "name": "lastUpdateBlock",
      "outputs": [
        {
          "internalType": "uint256",
          "name": "",
          "type": "uint256"
        }
      ],
      "stateMutability": "view",
      "type": "function"
    },
    {
      "inputs": [],
      "name": "owner",
      "outputs": [
        {
          "internalType": "address",
          "name": "",
          "type": "address"
        }
      ],
      "stateMutability": "view",
      "type": "function"
    },
    {
      "inputs": [
        {
          "internalType": "address",
          "name": "user",
          "type": "address"
        }
      ],
      "name": "pendingFeeRewards",
      "outputs": [
        {
          "internalType": "uint256",
          "name": "",
          "type": "uint256"
        }
      ],
      "stateMutability": "view",
      "type": "function"
    },
    {
      "inputs": [
        {
          "internalType": "address",
          "name": "user",
          "type": "address"
        }
      ],
      "name": "pendingHTGRewards",
      "outputs": [
        {
          "internalType": "uint256",
          "name": "",
          "type": "uint256"
        }
      ],
      "stateMutability": "view",
      "type": "function"
    },
    {
      "inputs": [],
      "name": "periodEndBlock",
      "outputs": [
        {
          "internalType": "uint256",
          "name": "",
          "type": "uint256"
        }
      ],
      "stateMutability": "view",
      "type": "function"
    },
    {
      "inputs": [],
      "name": "renounceOwnership",
      "outputs": [],
      "stateMutability": "nonpayable",
      "type": "function"
    },
    {
      "inputs": [],
      "name": "rewardPerTokenStored",
      "outputs": [
        {
          "internalType": "uint256",
          "name": "",
          "type": "uint256"
        }
      ],
      "stateMutability": "view",
      "type": "function"
    },
    {
      "inputs": [],
      "name": "rewardToken",
      "outputs": [
        {
          "internalType": "contract IERC20",
          "name": "",
          "type": "address"
        }
      ],
      "stateMutability": "view",
      "type": "function"
    },
    {
      "inputs": [],
      "name": "tokenDistributor",
      "outputs": [
        {
          "internalType": "contract TokenDistributor",
          "name": "",
          "type": "address"
        }
      ],
      "stateMutability": "view",
      "type": "function"
    },
    {
      "inputs": [],
      "name": "totalShares",
      "outputs": [
        {
          "internalType": "uint256",
          "name": "",
          "type": "uint256"
        }
      ],
      "stateMutability": "view",
      "type": "function"
    },
    {
      "inputs": [
        {
          "internalType": "address",
          "name": "newOwner",
          "type": "address"
        }
      ],
      "name": "transferOwnership",
      "outputs": [],
      "stateMutability": "nonpayable",
      "type": "function"
    },
    {
      "inputs": [
        {
          "internalType": "uint256",
          "name": "reward",
          "type": "uint256"
        },
        {
          "internalType": "uint256",
          "name": "rewardDurationInBlocks",
          "type": "uint256"
        }
      ],
      "name": "updateRewards",
      "outputs": [],
      "stateMutability": "nonpayable",
      "type": "function"
    },
    {
      "inputs": [
        {
          "internalType": "address",
          "name": "",
          "type": "address"
        }
      ],
      "name": "userInfo",
      "outputs": [
        {
          "internalType": "uint256",
          "name": "amount",
          "type": "uint256"
        },
        {
          "internalType": "uint256",
          "name": "shares",
          "type": "uint256"
        },
        {
          "internalType": "uint256",
          "name": "userRewardPerTokenPaid",
          "type": "uint256"
        },
        {
          "internalType": "uint256",
          "name": "rewards",
          "type": "uint256"
        }
      ],
      "stateMutability": "view",
      "type": "function"
    },
    {
      "inputs": [
        {
          "internalType": "uint256",
          "name": "amount",
          "type": "uint256"
        },
        {
          "internalType": "bool",
          "name": "claimRewardToken",
          "type": "bool"
        }
      ],
      "name": "withdraw",
      "outputs": [],
      "stateMutability": "nonpayable",
      "type": "function"
    },
    {
      "inputs": [
        {
          "internalType": "bool",
          "name": "claimRewardToken",
          "type": "bool"
        }
      ],
      "name": "withdrawAll",
      "outputs": [],
      "stateMutability": "nonpayable",
      "type": "function"
    }
  ],
  "bytecode": "0x60e06040523480156200001157600080fd5b5060405162002838380380620028388339810160408190526200003491620000d1565b6001600055620000443362000062565b6001600160a01b0391821660a0529181166080521660c0526200011b565b600180546001600160a01b038381166001600160a01b0319831681179093556040519116919082907f8be0079c531659141344cd1fd0a4f28419497f9722a3daafe3b4186f6b6457e090600090a35050565b80516001600160a01b0381168114620000cc57600080fd5b919050565b600080600060608486031215620000e757600080fd5b620000f284620000b4565b92506200010260208501620000b4565b91506200011260408501620000b4565b90509250925092565b60805160a05160c051612661620001d76000396000818161019701528181610561015281816106260152818161092d015281816109f201528181610c2801528181610c7b01528181610fe2015281816110a70152818161125c015281816114b90152818161157e015281816118100152611fca01526000818161037c01528181610be601528181610dc501526118b601526000818161034d01528181610aa2015281816118f701528181611c620152611d4f01526126616000f3fe608060405234801561001057600080fd5b506004361061018d5760003560e01c80639a408321116100e3578063d86e29a81161008c578063f363264a11610066578063f363264a14610348578063f3ab32c21461036f578063f7c618c11461037757600080fd5b8063d86e29a814610319578063df136d651461032c578063f2fde38b1461033557600080fd5b8063b5962917116100bd578063b5962917146102f9578063cb4aec6114610301578063ccd34cd51461030a57600080fd5b80639a408321146102d5578063a218141b146102e8578063a9f8d181146102f157600080fd5b806340d2abae11610145578063715018a61161011f578063715018a61461029c5780638da5cb5b146102a457806397e50818146102c257600080fd5b806340d2abae14610277578063442da82f14610280578063668882461461028957600080fd5b80631c1c6fe5116101765780631c1c6fe51461023857806338d074361461024d5780633a98ef391461026057600080fd5b806318a6bc32146101925780631959a002146101e3575b600080fd5b6101b97f000000000000000000000000000000000000000000000000000000000000000081565b60405173ffffffffffffffffffffffffffffffffffffffff90911681526020015b60405180910390f35b6102186101f1366004612377565b60086020526000908152604090208054600182015460028301546003909301549192909184565b6040805194855260208501939093529183015260608201526080016101da565b61024b6102463660046123bb565b61039e565b005b61024b61025b3660046123d8565b61041c565b61026960075481565b6040519081526020016101da565b61026960035481565b61026960055481565b610269610297366004612377565b610517565b61024b61073f565b60015473ffffffffffffffffffffffffffffffffffffffff166101b9565b61024b6102d0366004612408565b610753565b61024b6102e33660046123d8565b610806565b61026960045481565b610269610d37565b61024b610d46565b61026960025481565b610269670de0b6b3a764000081565b610269610327366004612377565b610e3e565b61026960065481565b61024b610343366004612377565b610e4f565b6101b97f000000000000000000000000000000000000000000000000000000000000000081565b61024b610eec565b6101b97f000000000000000000000000000000000000000000000000000000000000000081565b600260005414156103f65760405162461bcd60e51b815260206004820152601f60248201527f5265656e7472616e637947756172643a207265656e7472616e742063616c6c0060448201526064015b60405180910390fd5b600260009081553381526008602052604090205461041490826113ca565b506001600055565b6002600054141561046f5760405162461bcd60e51b815260206004820152601f60248201527f5265656e7472616e637947756172643a207265656e7472616e742063616c6c0060448201526064016103ed565b600260005581158015906104925750336000908152600860205260409020548211155b6105045760405162461bcd60e51b815260206004820152603660248201527f57697468647261773a2053686172657320657175616c20746f2030206f72206c60448201527f6172676572207468616e2075736572207368617265730000000000000000000060648201526084016103ed565b61050e82826113ca565b50506001600055565b6040517f1959a0020000000000000000000000000000000000000000000000000000000081523060048201526000908190819073ffffffffffffffffffffffffffffffffffffffff7f00000000000000000000000000000000000000000000000000000000000000001690631959a0029060240160606040518083038186803b1580156105a357600080fd5b505afa1580156105b7573d6000803e3d6000fd5b505050506040513d601f19601f820116820180604052508101906105db919061242a565b6040517f66888246000000000000000000000000000000000000000000000000000000008152306004820152929450925060009173ffffffffffffffffffffffffffffffffffffffff7f000000000000000000000000000000000000000000000000000000000000000016915063668882469060240160206040518083038186803b15801561066957600080fd5b505afa15801561067d573d6000803e3d6000fd5b505050506040513d601f19601f820116820180604052508101906106a19190612458565b90506000816106b084866124a0565b6106ba91906124a0565b60075473ffffffffffffffffffffffffffffffffffffffff8816600090815260086020526040812060010154929350916106f59084906124b8565b6106ff91906124f5565b73ffffffffffffffffffffffffffffffffffffffff8816600090815260086020526040812054919250906107339083612530565b98975050505050505050565b610747611965565b61075160006119cc565b565b61075b611965565b60055443106107765761076e81836124f5565b6002556107aa565b80600254436005546107889190612530565b61079291906124b8565b61079c90846124a0565b6107a691906124f5565b6002555b4360048190556107bb9082906124a0565b60055560025460408051838152602081019290925281018390527f55b4fa63fe43865f67b4f2c4a4df1cf9e6c1f85767211b44b45cf4649b2c2b519060600160405180910390a15050565b600260005414156108595760405162461bcd60e51b815260206004820152601f60248201527f5265656e7472616e637947756172643a207265656e7472616e742063616c6c0060448201526064016103ed565b6002600055670de0b6b3a76400008210156108dc5760405162461bcd60e51b815260206004820152602160248201527f4465706f7369743a20416d6f756e74206d757374206265203e3d20312048544760448201527f730000000000000000000000000000000000000000000000000000000000000060648201526084016103ed565b6108e533611a43565b6040517f1959a002000000000000000000000000000000000000000000000000000000008152306004820152600090819073ffffffffffffffffffffffffffffffffffffffff7f00000000000000000000000000000000000000000000000000000000000000001690631959a0029060240160606040518083038186803b15801561096f57600080fd5b505afa158015610983573d6000803e3d6000fd5b505050506040513d601f19601f820116820180604052508101906109a7919061242a565b6040517f66888246000000000000000000000000000000000000000000000000000000008152306004820152929450925060009173ffffffffffffffffffffffffffffffffffffffff7f000000000000000000000000000000000000000000000000000000000000000016915063668882469060240160206040518083038186803b158015610a3557600080fd5b505afa158015610a49573d6000803e3d6000fd5b505050506040513d601f19601f82011682018060405250810190610a6d9190612458565b9050600081610a7c84866124a0565b610a8691906124a0565b9050610aca73ffffffffffffffffffffffffffffffffffffffff7f000000000000000000000000000000000000000000000000000000000000000016333089611ad8565b6000600754600014610b43578160075488610ae591906124b8565b610aef91906124f5565b905080610b3e5760405162461bcd60e51b815260206004820152600d60248201527f4465706f7369743a204661696c0000000000000000000000000000000000000060448201526064016103ed565b610b46565b50855b3360009081526008602052604081206001018054839290610b689084906124a0565b90915550503360009081526008602052604081208054899290610b8c9084906124a0565b925050819055508060076000828254610ba591906124a0565b90915550600090508615610c225750336000908152600860205260409020600301548015610c225733600081815260086020526040812060030155610c22907f000000000000000000000000000000000000000000000000000000000000000073ffffffffffffffffffffffffffffffffffffffff169083611bba565b610c4c887f0000000000000000000000000000000000000000000000000000000000000000611c15565b6040517fb6b55f25000000000000000000000000000000000000000000000000000000008152600481018990527f000000000000000000000000000000000000000000000000000000000000000073ffffffffffffffffffffffffffffffffffffffff169063b6b55f2590602401600060405180830381600087803b158015610cd457600080fd5b505af1158015610ce8573d6000803e3d6000fd5b5050604080518b8152602081018590523393507f90890809c654f11d6e72a28fa60149770a0d11ec6c92319d6ceb2bb0a4ea1a159250015b60405180910390a250506001600055505050505050565b6000610d41611dcf565b905090565b60026000541415610d995760405162461bcd60e51b815260206004820152601f60248201527f5265656e7472616e637947756172643a207265656e7472616e742063616c6c0060448201526064016103ed565b6002600055610da733611a43565b336000818152600860205260408120600301805491905590610e01907f000000000000000000000000000000000000000000000000000000000000000073ffffffffffffffffffffffffffffffffffffffff169083611bba565b60405181815233907fa0e0c5921122a66e1e5a61d9a1469a42fa3ba94092de828dc1668de8ffbef01a9060200160405180910390a2506001600055565b6000610e4982611de6565b92915050565b610e57611965565b73ffffffffffffffffffffffffffffffffffffffff8116610ee05760405162461bcd60e51b815260206004820152602660248201527f4f776e61626c653a206e6577206f776e657220697320746865207a65726f206160448201527f646472657373000000000000000000000000000000000000000000000000000060648201526084016103ed565b610ee9816119cc565b50565b60026000541415610f3f5760405162461bcd60e51b815260206004820152601f60248201527f5265656e7472616e637947756172643a207265656e7472616e742063616c6c0060448201526064016103ed565b6002600055610f4d33611a43565b610f8b6040518060400160405280601d81526020017f2d2d2d2d2d2d2d2d696e2068617276657374204854472d2d2d2d2d2d2d000000815250611e65565b3360009081526008602052604080822090517f1959a002000000000000000000000000000000000000000000000000000000008152306004820152909190819073ffffffffffffffffffffffffffffffffffffffff7f00000000000000000000000000000000000000000000000000000000000000001690631959a0029060240160606040518083038186803b15801561102457600080fd5b505afa158015611038573d6000803e3d6000fd5b505050506040513d601f19601f8201168201806040525081019061105c919061242a565b6040517f66888246000000000000000000000000000000000000000000000000000000008152306004820152929450925060009173ffffffffffffffffffffffffffffffffffffffff7f000000000000000000000000000000000000000000000000000000000000000016915063668882469060240160206040518083038186803b1580156110ea57600080fd5b505afa1580156110fe573d6000803e3d6000fd5b505050506040513d601f19601f820116820180604052508101906111229190612458565b905060008161113184866124a0565b61113b91906124a0565b905061118f6040518060400160405280600c81526020017f746f74616c56616c75653a200000000000000000000000000000000000000000815250670de0b6b3a76400008361118a91906124f5565b611ef4565b60006007548287600101546111a491906124b8565b6111ae91906124f5565b86549091506000906111c09083612530565b905061120f6040518060400160405280601281526020017f68617276657374656420616d6f756e743a200000000000000000000000000000815250670de0b6b3a76400008361118a91906124f5565b6000836007548361122091906124b8565b61122a91906124f5565b6040517fddc63262000000000000000000000000000000000000000000000000000000008152600481018490529091507f000000000000000000000000000000000000000000000000000000000000000073ffffffffffffffffffffffffffffffffffffffff169063ddc6326290602401600060405180830381600087803b1580156112b557600080fd5b505af11580156112c9573d6000803e3d6000fd5b50505050808860010160008282546112e19190612530565b909155505060408051808201909152601181527f6861727665737465645368617265733a2000000000000000000000000000000060208201526113309061118a670de0b6b3a7640000846124f5565b80600760008282546113429190612530565b925050819055506113986040518060400160405280600d81526020017f746f74616c5368617265733a2000000000000000000000000000000000000000815250670de0b6b3a764000060075461118a91906124f5565b60405182815233907f17012d50b70af51869b4b6a658aa39095877d071272178dce41c0cb3722e7e0590602001610d20565b336000908152600860205260409020805483111561142a5760405162461bcd60e51b815260206004820152601b60248201527f4e6f7420656e6f756768204854477320746f207769746864726177000000000060448201526064016103ed565b61143333611a43565b6114716040518060400160405280601b81526020017f2d2d2d2d2d2d2d2d696e202077697468647261772d2d2d2d2d2d2d0000000000815250611e65565b6040517f1959a002000000000000000000000000000000000000000000000000000000008152306004820152600090819073ffffffffffffffffffffffffffffffffffffffff7f00000000000000000000000000000000000000000000000000000000000000001690631959a0029060240160606040518083038186803b1580156114fb57600080fd5b505afa15801561150f573d6000803e3d6000fd5b505050506040513d601f19601f82011682018060405250810190611533919061242a565b6040517f66888246000000000000000000000000000000000000000000000000000000008152306004820152929450925060009173ffffffffffffffffffffffffffffffffffffffff7f000000000000000000000000000000000000000000000000000000000000000016915063668882469060240160206040518083038186803b1580156115c157600080fd5b505afa1580156115d5573d6000803e3d6000fd5b505050506040513d601f19601f820116820180604052508101906115f99190612458565b905060008161160884866124a0565b61161291906124a0565b90506116616040518060400160405280600c81526020017f746f74616c56616c75653a200000000000000000000000000000000000000000815250670de0b6b3a76400008361118a91906124f5565b8454600090889081141561169557600187015460075490925061168484846124b8565b61168e91906124f5565b90506116b1565b82896007546116a491906124b8565b6116ae91906124f5565b91505b888760000160008282546116c59190612530565b92505081905550818760010160008282546116e09190612530565b9250508190555081600760008282546116f99190612530565b909155505060408051808201909152601181527f776974686472617720736861726573203a00000000000000000000000000000060208201526117489061118a670de0b6b3a76400008c6124f5565b60408051808201909152601181527f776974686472617720736861726573203a00000000000000000000000000000060208201526117929061118a670de0b6b3a7640000856124f5565b6117e16040518060400160405280600e81526020017f746f74616c20736861726573203a000000000000000000000000000000000000815250670de0b6b3a764000060075461118a91906124f5565b6040517f2e1a7d4d000000000000000000000000000000000000000000000000000000008152600481018290527f000000000000000000000000000000000000000000000000000000000000000073ffffffffffffffffffffffffffffffffffffffff1690632e1a7d4d90602401600060405180830381600087803b15801561186957600080fd5b505af115801561187d573d6000803e3d6000fd5b50505050600088156118dd5750600387015480156118dd57600060038901556118dd73ffffffffffffffffffffffffffffffffffffffff7f0000000000000000000000000000000000000000000000000000000000000000163383611bba565b61191e73ffffffffffffffffffffffffffffffffffffffff7f000000000000000000000000000000000000000000000000000000000000000016338c611bba565b604080518381526020810183905233917ff279e6a1f5e320cca91135676d9cb6e44ca8a08c0b88342bcdb1144f6511b568910160405180910390a250505050505050505050565b60015473ffffffffffffffffffffffffffffffffffffffff1633146107515760405162461bcd60e51b815260206004820181905260248201527f4f776e61626c653a2063616c6c6572206973206e6f7420746865206f776e657260448201526064016103ed565b6001805473ffffffffffffffffffffffffffffffffffffffff8381167fffffffffffffffffffffffff0000000000000000000000000000000000000000831681179093556040519116919082907f8be0079c531659141344cd1fd0a4f28419497f9722a3daafe3b4186f6b6457e090600090a35050565b6004544314611a6357611a54611f85565b600655611a5f611dcf565b6004555b611a6c81611de6565b73ffffffffffffffffffffffffffffffffffffffff821660009081526008602052604081206003018054909190611aa49084906124a0565b909155505060065473ffffffffffffffffffffffffffffffffffffffff909116600090815260086020526040902060020155565b60405173ffffffffffffffffffffffffffffffffffffffff80851660248301528316604482015260648101829052611bb49085907f23b872dd00000000000000000000000000000000000000000000000000000000906084015b604080517fffffffffffffffffffffffffffffffffffffffffffffffffffffffffffffffe08184030181529190526020810180517bffffffffffffffffffffffffffffffffffffffffffffffffffffffff167fffffffff00000000000000000000000000000000000000000000000000000000909316929092179091526120b0565b50505050565b60405173ffffffffffffffffffffffffffffffffffffffff8316602482015260448101829052611c109084907fa9059cbb0000000000000000000000000000000000000000000000000000000090606401611b32565b505050565b6040517fdd62ed3e00000000000000000000000000000000000000000000000000000000815230600482015273ffffffffffffffffffffffffffffffffffffffff828116602483015283917f00000000000000000000000000000000000000000000000000000000000000009091169063dd62ed3e9060440160206040518083038186803b158015611ca657600080fd5b505afa158015611cba573d6000803e3d6000fd5b505050506040513d601f19601f82011682018060405250810190611cde9190612458565b1015611dcb576040517f095ea7b300000000000000000000000000000000000000000000000000000000815273ffffffffffffffffffffffffffffffffffffffff82811660048301527fffffffffffffffffffffffffffffffffffffffffffffffffffffffffffffffff60248301527f0000000000000000000000000000000000000000000000000000000000000000169063095ea7b390604401602060405180830381600087803b158015611d9357600080fd5b505af1158015611da7573d6000803e3d6000fd5b505050506040513d601f19601f82011682018060405250810190611c109190612547565b5050565b60006005544310611de1575060055490565b504390565b73ffffffffffffffffffffffffffffffffffffffff8116600090815260086020526040812060020154670de0b6b3a764000090611e21611f85565b611e2b9190612530565b73ffffffffffffffffffffffffffffffffffffffff8416600090815260086020526040902054611e5b91906124b8565b610e4991906124f5565b610ee981604051602401611e7991906125da565b604080517fffffffffffffffffffffffffffffffffffffffffffffffffffffffffffffffe08184030181529190526020810180517bffffffffffffffffffffffffffffffffffffffffffffffffffffffff167f41304fac000000000000000000000000000000000000000000000000000000001790526121a2565b611dcb8282604051602401611f0a9291906125ed565b604080517fffffffffffffffffffffffffffffffffffffffffffffffffffffffffffffffe08184030181529190526020810180517bffffffffffffffffffffffffffffffffffffffffffffffffffffffff167fb60e72cc000000000000000000000000000000000000000000000000000000001790526121a2565b600060075460001415611f99575060065490565b6040517f1959a0020000000000000000000000000000000000000000000000000000000081523060048201526000907f000000000000000000000000000000000000000000000000000000000000000073ffffffffffffffffffffffffffffffffffffffff1690631959a0029060240160606040518083038186803b15801561202157600080fd5b505afa158015612035573d6000803e3d6000fd5b505050506040513d601f19601f82011682018060405250810190612059919061242a565b5050905080670de0b6b3a764000060025461207491906124b8565b60045461207f611dcf565b6120899190612530565b61209391906124b8565b61209d91906124f5565b6006546120aa91906124a0565b91505090565b6000612112826040518060400160405280602081526020017f5361666545524332303a206c6f772d6c6576656c2063616c6c206661696c65648152508573ffffffffffffffffffffffffffffffffffffffff166121c39092919063ffffffff16565b805190915015611c1057808060200190518101906121309190612547565b611c105760405162461bcd60e51b815260206004820152602a60248201527f5361666545524332303a204552433230206f7065726174696f6e20646964206e60448201527f6f7420737563636565640000000000000000000000000000000000000000000060648201526084016103ed565b80516a636f6e736f6c652e6c6f67602083016000808483855afa5050505050565b60606121d284846000856121dc565b90505b9392505050565b6060824710156122545760405162461bcd60e51b815260206004820152602660248201527f416464726573733a20696e73756666696369656e742062616c616e636520666f60448201527f722063616c6c000000000000000000000000000000000000000000000000000060648201526084016103ed565b73ffffffffffffffffffffffffffffffffffffffff85163b6122b85760405162461bcd60e51b815260206004820152601d60248201527f416464726573733a2063616c6c20746f206e6f6e2d636f6e747261637400000060448201526064016103ed565b6000808673ffffffffffffffffffffffffffffffffffffffff1685876040516122e1919061260f565b60006040518083038185875af1925050503d806000811461231e576040519150601f19603f3d011682016040523d82523d6000602084013e612323565b606091505b509150915061233382828661233e565b979650505050505050565b6060831561234d5750816121d5565b82511561235d5782518084602001fd5b8160405162461bcd60e51b81526004016103ed91906125da565b60006020828403121561238957600080fd5b813573ffffffffffffffffffffffffffffffffffffffff811681146121d557600080fd5b8015158114610ee957600080fd5b6000602082840312156123cd57600080fd5b81356121d5816123ad565b600080604083850312156123eb57600080fd5b8235915060208301356123fd816123ad565b809150509250929050565b6000806040838503121561241b57600080fd5b50508035926020909101359150565b60008060006060848603121561243f57600080fd5b8351925060208401519150604084015190509250925092565b60006020828403121561246a57600080fd5b5051919050565b7f4e487b7100000000000000000000000000000000000000000000000000000000600052601160045260246000fd5b600082198211156124b3576124b3612471565b500190565b6000817fffffffffffffffffffffffffffffffffffffffffffffffffffffffffffffffff04831182151516156124f0576124f0612471565b500290565b60008261252b577f4e487b7100000000000000000000000000000000000000000000000000000000600052601260045260246000fd5b500490565b60008282101561254257612542612471565b500390565b60006020828403121561255957600080fd5b81516121d5816123ad565b60005b8381101561257f578181015183820152602001612567565b83811115611bb45750506000910152565b600081518084526125a8816020860160208601612564565b601f017fffffffffffffffffffffffffffffffffffffffffffffffffffffffffffffffe0169290920160200192915050565b6020815260006121d56020830184612590565b6040815260006126006040830185612590565b90508260208301529392505050565b60008251612621818460208701612564565b919091019291505056fea2646970667358221220051c0193ee350c91e429e9869c4c112357143d87cf4db252a2c260aec343a9e464736f6c63430008090033",
  "linkReferences": {},
  "deployedLinkReferences": {}
}