{
  "_format": "hh-sol-artifact-1",
  "contractName": "TokenDistributor",
  "sourceName": "contracts/staking/TokenDistributor.sol",
  "abi": [
    {
      "inputs": [
        {
          "internalType": "address",
          "name": "_looksRareToken",
          "type": "address"
        },
        {
          "internalType": "address",
          "name": "_tokenSplitter",
          "type": "address"
        },
        {
          "internalType": "uint256",
          "name": "_startBlock",
          "type": "uint256"
        },
        {
          "internalType": "uint256[]",
          "name": "_rewardsPerBlockForStaking",
          "type": "uint256[]"
        },
        {
          "internalType": "uint256[]",
          "name": "_rewardsPerBlockForOthers",
          "type": "uint256[]"
        },
        {
          "internalType": "uint256[]",
          "name": "_periodLengthesInBlocks",
          "type": "uint256[]"
        },
        {
          "internalType": "uint256",
          "name": "_numberPeriods",
          "type": "uint256"
        }
      ],
      "stateMutability": "nonpayable",
      "type": "constructor"
    },
    {
      "anonymous": false,
      "inputs": [
        {
          "indexed": true,
          "internalType": "address",
          "name": "user",
          "type": "address"
        },
        {
          "indexed": false,
          "internalType": "uint256",
          "name": "harvestedAmount",
          "type": "uint256"
        }
      ],
      "name": "Compound",
      "type": "event"
    },
    {
      "anonymous": false,
      "inputs": [
        {
          "indexed": true,
          "internalType": "address",
          "name": "user",
          "type": "address"
        },
        {
          "indexed": false,
          "internalType": "uint256",
          "name": "amount",
          "type": "uint256"
        },
        {
          "indexed": false,
          "internalType": "uint256",
          "name": "harvestedAmount",
          "type": "uint256"
        }
      ],
      "name": "Deposit",
      "type": "event"
    },
    {
      "anonymous": false,
      "inputs": [
        {
          "indexed": true,
          "internalType": "uint256",
          "name": "currentPhase",
          "type": "uint256"
        },
        {
          "indexed": false,
          "internalType": "uint256",
          "name": "startBlock",
          "type": "uint256"
        },
        {
          "indexed": false,
          "internalType": "uint256",
          "name": "rewardPerBlockForStaking",
          "type": "uint256"
        },
        {
          "indexed": false,
          "internalType": "uint256",
          "name": "rewardPerBlockForOthers",
          "type": "uint256"
        }
      ],
      "name": "NewRewardsPerBlock",
      "type": "event"
    },
    {
      "anonymous": false,
      "inputs": [
        {
          "indexed": true,
          "internalType": "address",
          "name": "user",
          "type": "address"
        },
        {
          "indexed": false,
          "internalType": "uint256",
          "name": "amount",
          "type": "uint256"
        },
        {
          "indexed": false,
          "internalType": "uint256",
          "name": "harvestedAmount",
          "type": "uint256"
        }
      ],
      "name": "Withdraw",
      "type": "event"
    },
    {
      "inputs": [],
      "name": "NUMBER_PERIODS",
      "outputs": [
        {
          "internalType": "uint256",
          "name": "",
          "type": "uint256"
        }
      ],
      "stateMutability": "view",
      "type": "function"
    },
    {
      "inputs": [],
      "name": "PRECISION_FACTOR",
      "outputs": [
        {
          "internalType": "uint256",
          "name": "",
          "type": "uint256"
        }
      ],
      "stateMutability": "view",
      "type": "function"
    },
    {
      "inputs": [],
      "name": "START_BLOCK",
      "outputs": [
        {
          "internalType": "uint256",
          "name": "",
          "type": "uint256"
        }
      ],
      "stateMutability": "view",
      "type": "function"
    },
    {
      "inputs": [],
      "name": "accTokenPerShare",
      "outputs": [
        {
          "internalType": "uint256",
          "name": "",
          "type": "uint256"
        }
      ],
      "stateMutability": "view",
      "type": "function"
    },
    {
      "inputs": [
        {
          "internalType": "address",
          "name": "user",
          "type": "address"
        }
      ],
      "name": "calculatePendingRewards",
      "outputs": [
        {
          "internalType": "uint256",
          "name": "",
          "type": "uint256"
        }
      ],
      "stateMutability": "view",
      "type": "function"
    },
    {
      "inputs": [],
      "name": "currentPhase",
      "outputs": [
        {
          "internalType": "uint256",
          "name": "",
          "type": "uint256"
        }
      ],
      "stateMutability": "view",
      "type": "function"
    },
    {
      "inputs": [
        {
          "internalType": "uint256",
          "name": "amount",
          "type": "uint256"
        }
      ],
      "name": "deposit",
      "outputs": [],
      "stateMutability": "nonpayable",
      "type": "function"
    },
    {
      "inputs": [],
      "name": "endBlock",
      "outputs": [
        {
          "internalType": "uint256",
          "name": "",
          "type": "uint256"
        }
      ],
      "stateMutability": "view",
      "type": "function"
    },
    {
      "inputs": [],
      "name": "harvestAndCompound",
      "outputs": [],
      "stateMutability": "nonpayable",
      "type": "function"
    },
    {
      "inputs": [],
      "name": "lastRewardBlock",
      "outputs": [
        {
          "internalType": "uint256",
          "name": "",
          "type": "uint256"
        }
      ],
      "stateMutability": "view",
      "type": "function"
    },
    {
      "inputs": [],
      "name": "looksRareToken",
      "outputs": [
        {
          "internalType": "contract IHunterGovernanceToken",
          "name": "",
          "type": "address"
        }
      ],
      "stateMutability": "view",
      "type": "function"
    },
    {
      "inputs": [],
      "name": "rewardPerBlockForOthers",
      "outputs": [
        {
          "internalType": "uint256",
          "name": "",
          "type": "uint256"
        }
      ],
      "stateMutability": "view",
      "type": "function"
    },
    {
      "inputs": [],
      "name": "rewardPerBlockForStaking",
      "outputs": [
        {
          "internalType": "uint256",
          "name": "",
          "type": "uint256"
        }
      ],
      "stateMutability": "view",
      "type": "function"
    },
    {
      "inputs": [
        {
          "internalType": "uint256",
          "name": "",
          "type": "uint256"
        }
      ],
      "name": "stakingPeriod",
      "outputs": [
        {
          "internalType": "uint256",
          "name": "rewardPerBlockForStaking",
          "type": "uint256"
        },
        {
          "internalType": "uint256",
          "name": "rewardPerBlockForOthers",
          "type": "uint256"
        },
        {
          "internalType": "uint256",
          "name": "periodLengthInBlock",
          "type": "uint256"
        }
      ],
      "stateMutability": "view",
      "type": "function"
    },
    {
      "inputs": [],
      "name": "tokenSplitter",
      "outputs": [
        {
          "internalType": "address",
          "name": "",
          "type": "address"
        }
      ],
      "stateMutability": "view",
      "type": "function"
    },
    {
      "inputs": [],
      "name": "totalAmountStaked",
      "outputs": [
        {
          "internalType": "uint256",
          "name": "",
          "type": "uint256"
        }
      ],
      "stateMutability": "view",
      "type": "function"
    },
    {
      "inputs": [],
      "name": "updatePool",
      "outputs": [],
      "stateMutability": "nonpayable",
      "type": "function"
    },
    {
      "inputs": [
        {
          "internalType": "address",
          "name": "",
          "type": "address"
        }
      ],
      "name": "userInfo",
      "outputs": [
        {
          "internalType": "uint256",
          "name": "amount",
          "type": "uint256"
        },
        {
          "internalType": "uint256",
          "name": "rewardDebt",
          "type": "uint256"
        }
      ],
      "stateMutability": "view",
      "type": "function"
    },
    {
      "inputs": [
        {
          "internalType": "uint256",
          "name": "amount",
          "type": "uint256"
        }
      ],
      "name": "withdraw",
      "outputs": [],
      "stateMutability": "nonpayable",
      "type": "function"
    },
    {
      "inputs": [],
      "name": "withdrawAll",
      "outputs": [],
      "stateMutability": "nonpayable",
      "type": "function"
    }
  ],
  "bytecode": "0x6101006040523480156200001257600080fd5b5060405162001e1138038062001e118339810160408190526200003591620004f7565b60016000558151811480156200004b5750808451145b8015620000585750808451145b620000c15760405162461bcd60e51b815260206004820152602e60248201527f4469737472696275746f723a204c656e6774686573206d757374206d6174636860448201526d206e756d626572506572696f647360901b60648201526084015b60405180910390fd5b6000876001600160a01b03166318160ddd6040518163ffffffff1660e01b815260040160206040518083038186803b158015620000fd57600080fd5b505afa15801562000112573d6000803e3d6000fd5b505050506040513d601f19601f82011682018060405250810190620001389190620005c2565b886001600160a01b0316630cfccc836040518163ffffffff1660e01b815260040160206040518083038186803b1580156200017257600080fd5b505afa15801562000187573d6000803e3d6000fd5b505050506040513d601f19601f82011682018060405250810190620001ad9190620005c2565b620001b99190620005f2565b90506000805b838110156200031d57848181518110620001dd57620001dd6200060c565b6020026020010151868281518110620001fa57620001fa6200060c565b60200260200101516200020e919062000622565b8582815181106200022357620002236200060c565b60200260200101518883815181106200024057620002406200060c565b602002602001015162000254919062000622565b62000260919062000644565b6200026c908362000644565b915060405180606001604052808883815181106200028e576200028e6200060c565b60200260200101518152602001878381518110620002b057620002b06200060c565b60200260200101518152602001868381518110620002d257620002d26200060c565b6020908102919091018101519091526000838152600882526040908190208351815591830151600183015591909101516002909101558062000314816200065f565b915050620001bf565b508181146200037b5760405162461bcd60e51b8152602060048201526024808201527f4469737472696275746f723a2057726f6e672072657761726420706172616d656044820152637465727360e01b6064820152608401620000b8565b6001600160a01b03808a16608052881660a05285518690600090620003a457620003a46200060c565b602002602001015160068190555084600081518110620003c857620003c86200060c565b60200260200101516005819055508660e0818152505083600081518110620003f457620003f46200060c565b60200260200101518762000409919062000644565b600355505060c052505050600455506200067d9050565b80516001600160a01b03811681146200043857600080fd5b919050565b634e487b7160e01b600052604160045260246000fd5b600082601f8301126200046557600080fd5b815160206001600160401b03808311156200048457620004846200043d565b8260051b604051601f19603f83011681018181108482111715620004ac57620004ac6200043d565b604052938452858101830193838101925087851115620004cb57600080fd5b83870191505b84821015620004ec57815183529183019190830190620004d1565b979650505050505050565b600080600080600080600060e0888a0312156200051357600080fd5b6200051e8862000420565b96506200052e6020890162000420565b604089015160608a015191975095506001600160401b03808211156200055357600080fd5b620005618b838c0162000453565b955060808a01519150808211156200057857600080fd5b620005868b838c0162000453565b945060a08a01519150808211156200059d57600080fd5b50620005ac8a828b0162000453565b92505060c0880151905092959891949750929550565b600060208284031215620005d557600080fd5b5051919050565b634e487b7160e01b600052601160045260246000fd5b600082821015620006075762000607620005dc565b500390565b634e487b7160e01b600052603260045260246000fd5b60008160001904831182151516156200063f576200063f620005dc565b500290565b600082198211156200065a576200065a620005dc565b500190565b6000600019821415620006765762000676620005dc565b5060010190565b60805160a05160c05160e051611722620006ef600039600061025301526000818161027a015281816103be0152610dd90152600081816102bb0152610fc90152600081816102070152818161089901528181610a5d01528181610b9801528181610ec60152610ff801526117226000f3fe608060405234801561001057600080fd5b506004361061016c5760003560e01c8063853828b6116100cd578063c1027c9811610081578063e3161ddd11610066578063e3161ddd1461034f578063e683d96f14610357578063fe961f611461036057600080fd5b8063c1027c98146102f9578063ccd34cd51461034357600080fd5b8063a46074c3116100b2578063a46074c3146102b6578063a9f8d181146102dd578063b6b55f25146102e657600080fd5b8063853828b6146102a55780638f662915146102ad57600080fd5b80632e1a7d4d1161012457806339b3e8261161010957806339b3e8261461024e57806352bf348c146102755780635a9477e91461029c57600080fd5b80632e1a7d4d146101ef57806336db9fb21461020257600080fd5b8063097aad1011610155578063097aad10146101965780631959a002146101a95780632a4e051b146101e557600080fd5b8063055ad42e14610171578063083c63231461018d575b600080fd5b61017a60025481565b6040519081526020015b60405180910390f35b61017a60035481565b61017a6101a43660046114d3565b610369565b6101d06101b73660046114d3565b6009602052600090815260409020805460019091015482565b60408051928352602083019190915201610184565b6101ed61054f565b005b6101ed6101fd366004611509565b6106c5565b6102297f000000000000000000000000000000000000000000000000000000000000000081565b60405173ffffffffffffffffffffffffffffffffffffffff9091168152602001610184565b61017a7f000000000000000000000000000000000000000000000000000000000000000081565b61017a7f000000000000000000000000000000000000000000000000000000000000000081565b61017a60065481565b6101ed610905565b61017a60015481565b6102297f000000000000000000000000000000000000000000000000000000000000000081565b61017a60045481565b6101ed6102f4366004611509565b610ad1565b610328610307366004611509565b60086020526000908152604090208054600182015460029092015490919083565b60408051938452602084019290925290820152606001610184565b61017a64e8d4a5100081565b6101ed610cde565b61017a60055481565b61017a60075481565b60006004544311801561037d575060075415155b156104f357600061039060045443610d3e565b90506000600654826103a29190611551565b600354600254919250905b81431180156103e557506103e260017f000000000000000000000000000000000000000000000000000000000000000061158e565b81105b15610466576103f3816115a5565b6000818152600860205260409020805460029091015491925090839061041990826115de565b935060008443111561043c57600084815260086020526040902060020154610446565b610446824361158e565b90506104528382611551565b61045c90876115de565b95505050506103ad565b60075460009061047b64e8d4a5100086611551565b61048591906115f6565b60015461049291906115de565b73ffffffffffffffffffffffffffffffffffffffff88166000908152600960205260409020600181015490549192509064e8d4a51000906104d4908490611551565b6104de91906115f6565b6104e8919061158e565b979650505050505050565b73ffffffffffffffffffffffffffffffffffffffff8216600090815260096020526040902060018082015490549154909164e8d4a51000916105359190611551565b61053f91906115f6565b610549919061158e565b92915050565b600260005414156105a75760405162461bcd60e51b815260206004820152601f60248201527f5265656e7472616e637947756172643a207265656e7472616e742063616c6c0060448201526064015b60405180910390fd5b60026000556105b4610d79565b33600090815260096020526040812060018082015490549154909164e8d4a51000916105e09190611551565b6105ea91906115f6565b6105f4919061158e565b90508061060157506106be565b33600090815260096020526040812080548392906106209084906115de565b92505081905550806007600082825461063991906115de565b90915550506001543360009081526009602052604090205464e8d4a510009161066191611551565b61066b91906115f6565b33600081815260096020526040908190206001019290925590517f169f1815ebdea059aac3bb00ec9a9594c7a5ffcb64a17e8392b5d84909a14556906106b49084815260200190565b60405180910390a2505b6001600055565b600260005414156107185760405162461bcd60e51b815260206004820152601f60248201527f5265656e7472616e637947756172643a207265656e7472616e742063616c6c00604482015260640161059e565b6002600090815533815260096020526040902054811180159061073b5750600081115b6107ad5760405162461bcd60e51b815260206004820152603760248201527f57697468647261773a20416d6f756e74206d757374206265203e2030206f722060448201527f6c6f776572207468616e20757365722062616c616e6365000000000000000000606482015260840161059e565b6107b5610d79565b33600090815260096020526040812060018082015490549154909164e8d4a51000916107e19190611551565b6107eb91906115f6565b6107f5919061158e565b3360009081526009602052604090205490915082906108159083906115de565b61081f919061158e565b33600090815260096020526040902081905560015464e8d4a51000916108459190611551565b61084f91906115f6565b3360009081526009602052604090206001015560075482906108729083906115de565b61087c919061158e565b6007556108c073ffffffffffffffffffffffffffffffffffffffff7f000000000000000000000000000000000000000000000000000000000000000016338461108c565b604080518381526020810183905233917ff279e6a1f5e320cca91135676d9cb6e44ca8a08c0b88342bcdb1144f6511b56891015b60405180910390a250506001600055565b600260005414156109585760405162461bcd60e51b815260206004820152601f60248201527f5265656e7472616e637947756172643a207265656e7472616e742063616c6c00604482015260640161059e565b60026000908155338152600960205260409020546109b85760405162461bcd60e51b815260206004820152601c60248201527f57697468647261773a20416d6f756e74206d757374206265203e203000000000604482015260640161059e565b6109c0610d79565b33600090815260096020526040812060018082015490549154909164e8d4a51000916109ec9190611551565b6109f691906115f6565b610a00919061158e565b3360009081526009602052604081205491925090610a1f9083906115de565b33600090815260096020526040902054600754919250610a3e9161158e565b60075533600081815260096020526040812081815560010155610a99907f000000000000000000000000000000000000000000000000000000000000000073ffffffffffffffffffffffffffffffffffffffff16908361108c565b604080518281526020810184905233917ff279e6a1f5e320cca91135676d9cb6e44ca8a08c0b88342bcdb1144f6511b56891016108f4565b60026000541415610b245760405162461bcd60e51b815260206004820152601f60248201527f5265656e7472616e637947756172643a207265656e7472616e742063616c6c00604482015260640161059e565b600260005580610b765760405162461bcd60e51b815260206004820152601b60248201527f4465706f7369743a20416d6f756e74206d757374206265203e20300000000000604482015260640161059e565b610b7e610d79565b610bc073ffffffffffffffffffffffffffffffffffffffff7f000000000000000000000000000000000000000000000000000000000000000016333084611160565b3360009081526009602052604081205415610c185733600090815260096020526040902060018082015490549154909164e8d4a5100091610c019190611551565b610c0b91906115f6565b610c15919061158e565b90505b610c2281836115de565b3360009081526009602052604081208054909190610c419084906115de565b90915550506001543360009081526009602052604090205464e8d4a5100091610c6991611551565b610c7391906115f6565b33600090815260096020526040902060010155610c9081836115de565b60076000828254610ca191906115de565b9091555050604080518381526020810183905233917f90890809c654f11d6e72a28fa60149770a0d11ec6c92319d6ceb2bb0a4ea1a1591016108f4565b60026000541415610d315760405162461bcd60e51b815260206004820152601f60248201527f5265656e7472616e637947756172643a207265656e7472616e742063616c6c00604482015260640161059e565b60026000556106be610d79565b60006003548211610d5a57610d53838361158e565b9050610549565b6003548310610d6b57506000610549565b82600354610d53919061158e565b6004544311610d8457565b600754610d915743600455565b6000610d9f60045443610d3e565b9050600060065482610db19190611551565b9050600060055483610dc39190611551565b90505b60035443118015610e025750610dfd60017f000000000000000000000000000000000000000000000000000000000000000061158e565b600254105b15610e8857610e126003546111c4565b6003805460028054600090815260086020526040812090910154919290610e3983856115de565b9091555060009050610e4b8243610d3e565b905060065481610e5b9190611551565b610e6590856115de565b935060055481610e759190611551565b610e7f90846115de565b92505050610dc6565b8115611077576040517f40c10f19000000000000000000000000000000000000000000000000000000008152306004820152602481018390526000907f000000000000000000000000000000000000000000000000000000000000000073ffffffffffffffffffffffffffffffffffffffff16906340c10f1990604401602060405180830381600087803b158015610f1f57600080fd5b505af1158015610f33573d6000803e3d6000fd5b505050506040513d601f19601f82011682018060405250810190610f579190611631565b90508015610f8c57600754610f7164e8d4a5100085611551565b610f7b91906115f6565b600154610f8891906115de565b6001555b6040517f40c10f1900000000000000000000000000000000000000000000000000000000815273ffffffffffffffffffffffffffffffffffffffff7f000000000000000000000000000000000000000000000000000000000000000081166004830152602482018490527f000000000000000000000000000000000000000000000000000000000000000016906340c10f1990604401602060405180830381600087803b15801561103c57600080fd5b505af1158015611050573d6000803e3d6000fd5b505050506040513d601f19601f820116820180604052508101906110749190611631565b50505b6003546004541161108757436004555b505050565b60405173ffffffffffffffffffffffffffffffffffffffff83166024820152604481018290526110879084907fa9059cbb00000000000000000000000000000000000000000000000000000000906064015b604080517fffffffffffffffffffffffffffffffffffffffffffffffffffffffffffffffe08184030181529190526020810180517bffffffffffffffffffffffffffffffffffffffffffffffffffffffff167fffffffff000000000000000000000000000000000000000000000000000000009093169290921790915261123d565b60405173ffffffffffffffffffffffffffffffffffffffff808516602483015283166044820152606481018290526111be9085907f23b872dd00000000000000000000000000000000000000000000000000000000906084016110de565b50505050565b6002600081546111d3906115a5565b909155506002546000818152600860209081526040918290208054600681905560019091015460058190558351868152928301919091528183015290517f40181eb77bccfdef1a73b669bb4290d98e2fbec678c7cf4578ae256210420e179181900360600190a250565b600061129f826040518060400160405280602081526020017f5361666545524332303a206c6f772d6c6576656c2063616c6c206661696c65648152508573ffffffffffffffffffffffffffffffffffffffff1661132f9092919063ffffffff16565b80519091501561108757808060200190518101906112bd9190611631565b6110875760405162461bcd60e51b815260206004820152602a60248201527f5361666545524332303a204552433230206f7065726174696f6e20646964206e60448201527f6f74207375636365656400000000000000000000000000000000000000000000606482015260840161059e565b606061133e8484600085611348565b90505b9392505050565b6060824710156113c05760405162461bcd60e51b815260206004820152602660248201527f416464726573733a20696e73756666696369656e742062616c616e636520666f60448201527f722063616c6c0000000000000000000000000000000000000000000000000000606482015260840161059e565b73ffffffffffffffffffffffffffffffffffffffff85163b6114245760405162461bcd60e51b815260206004820152601d60248201527f416464726573733a2063616c6c20746f206e6f6e2d636f6e7472616374000000604482015260640161059e565b6000808673ffffffffffffffffffffffffffffffffffffffff16858760405161144d919061167f565b60006040518083038185875af1925050503d806000811461148a576040519150601f19603f3d011682016040523d82523d6000602084013e61148f565b606091505b50915091506104e8828286606083156114a9575081611341565b8251156114b95782518084602001fd5b8160405162461bcd60e51b815260040161059e919061169b565b6000602082840312156114e557600080fd5b813573ffffffffffffffffffffffffffffffffffffffff8116811461134157600080fd5b60006020828403121561151b57600080fd5b5035919050565b7f4e487b7100000000000000000000000000000000000000000000000000000000600052601160045260246000fd5b6000817fffffffffffffffffffffffffffffffffffffffffffffffffffffffffffffffff048311821515161561158957611589611522565b500290565b6000828210156115a0576115a0611522565b500390565b60007fffffffffffffffffffffffffffffffffffffffffffffffffffffffffffffffff8214156115d7576115d7611522565b5060010190565b600082198211156115f1576115f1611522565b500190565b60008261162c577f4e487b7100000000000000000000000000000000000000000000000000000000600052601260045260246000fd5b500490565b60006020828403121561164357600080fd5b8151801515811461134157600080fd5b60005b8381101561166e578181015183820152602001611656565b838111156111be5750506000910152565b60008251611691818460208701611653565b9190910192915050565b60208152600082518060208401526116ba816040850160208701611653565b601f017fffffffffffffffffffffffffffffffffffffffffffffffffffffffffffffffe016919091016040019291505056fea264697066735822122025172a3f12caa75820463f11da8fa1c685622cab0ac8386a4a30582840e13b7264736f6c63430008090033",
  "linkReferences": {},
  "deployedLinkReferences": {}
}