{
  "_format": "hh-sol-artifact-1",
  "contractName": "TokenSplitter",
  "sourceName": "contracts/staking/TokenSplitter.sol",
  "abi": [
    {
      "inputs": [
        {
          "internalType": "address[]",
          "name": "_accounts",
          "type": "address[]"
        },
        {
          "internalType": "uint256[]",
          "name": "_shares",
          "type": "uint256[]"
        },
        {
          "internalType": "address",
          "name": "_hunterGovernanceToken",
          "type": "address"
        }
      ],
      "stateMutability": "nonpayable",
      "type": "constructor"
    },
    {
      "anonymous": false,
      "inputs": [
        {
          "indexed": true,
          "internalType": "address",
          "name": "oldRecipient",
          "type": "address"
        },
        {
          "indexed": true,
          "internalType": "address",
          "name": "newRecipient",
          "type": "address"
        }
      ],
      "name": "NewSharesOwner",
      "type": "event"
    },
    {
      "anonymous": false,
      "inputs": [
        {
          "indexed": true,
          "internalType": "address",
          "name": "previousOwner",
          "type": "address"
        },
        {
          "indexed": true,
          "internalType": "address",
          "name": "newOwner",
          "type": "address"
        }
      ],
      "name": "OwnershipTransferred",
      "type": "event"
    },
    {
      "anonymous": false,
      "inputs": [
        {
          "indexed": true,
          "internalType": "address",
          "name": "account",
          "type": "address"
        },
        {
          "indexed": false,
          "internalType": "uint256",
          "name": "amount",
          "type": "uint256"
        }
      ],
      "name": "TokensTransferred",
      "type": "event"
    },
    {
      "inputs": [],
      "name": "TOTAL_SHARES",
      "outputs": [
        {
          "internalType": "uint256",
          "name": "",
          "type": "uint256"
        }
      ],
      "stateMutability": "view",
      "type": "function"
    },
    {
      "inputs": [
        {
          "internalType": "address",
          "name": "",
          "type": "address"
        }
      ],
      "name": "accountInfo",
      "outputs": [
        {
          "internalType": "uint256",
          "name": "shares",
          "type": "uint256"
        },
        {
          "internalType": "uint256",
          "name": "tokensDistributedToAccount",
          "type": "uint256"
        }
      ],
      "stateMutability": "view",
      "type": "function"
    },
    {
      "inputs": [
        {
          "internalType": "address",
          "name": "account",
          "type": "address"
        }
      ],
      "name": "calculatePendingRewards",
      "outputs": [
        {
          "internalType": "uint256",
          "name": "",
          "type": "uint256"
        }
      ],
      "stateMutability": "view",
      "type": "function"
    },
    {
      "inputs": [],
      "name": "hunterGovernanceToken",
      "outputs": [
        {
          "internalType": "contract IERC20",
          "name": "",
          "type": "address"
        }
      ],
      "stateMutability": "view",
      "type": "function"
    },
    {
      "inputs": [],
      "name": "owner",
      "outputs": [
        {
          "internalType": "address",
          "name": "",
          "type": "address"
        }
      ],
      "stateMutability": "view",
      "type": "function"
    },
    {
      "inputs": [
        {
          "internalType": "address",
          "name": "account",
          "type": "address"
        }
      ],
      "name": "releaseTokens",
      "outputs": [],
      "stateMutability": "nonpayable",
      "type": "function"
    },
    {
      "inputs": [],
      "name": "renounceOwnership",
      "outputs": [],
      "stateMutability": "nonpayable",
      "type": "function"
    },
    {
      "inputs": [],
      "name": "totalTokensDistributed",
      "outputs": [
        {
          "internalType": "uint256",
          "name": "",
          "type": "uint256"
        }
      ],
      "stateMutability": "view",
      "type": "function"
    },
    {
      "inputs": [
        {
          "internalType": "address",
          "name": "newOwner",
          "type": "address"
        }
      ],
      "name": "transferOwnership",
      "outputs": [],
      "stateMutability": "nonpayable",
      "type": "function"
    },
    {
      "inputs": [
        {
          "internalType": "address",
          "name": "_newRecipient",
          "type": "address"
        },
        {
          "internalType": "address",
          "name": "_currentRecipient",
          "type": "address"
        }
      ],
      "name": "updateSharesOwner",
      "outputs": [],
      "stateMutability": "nonpayable",
      "type": "function"
    }
  ],
  "bytecode": "0x60c06040523480156200001157600080fd5b50604051620015ad380380620015ad83398101604081905262000034916200036c565b6200003f336200021d565b6001805581518351146200009a5760405162461bcd60e51b815260206004820152601760248201527f53706c69747465723a204c656e6774682064696666657200000000000000000060448201526064015b60405180910390fd5b6000835111620000ed5760405162461bcd60e51b815260206004820152601c60248201527f53706c69747465723a204c656e677468206d757374206265203e203000000000604482015260640162000091565b6000805b8451811015620002045760008482815181106200011257620001126200044e565b602002602001015111620001695760405162461bcd60e51b815260206004820152601660248201527f53706c69747465723a2053686172657320617265203000000000000000000000604482015260640162000091565b8381815181106200017e576200017e6200044e565b6020026020010151826200019391906200047a565b9150838181518110620001aa57620001aa6200044e565b602002602001015160036000878481518110620001cb57620001cb6200044e565b6020908102919091018101516001600160a01b031682528101919091526040016000205580620001fb8162000495565b915050620000f1565b506080526001600160a01b031660a05250620004b39050565b600080546001600160a01b038381166001600160a01b0319831681178455604051919092169283917f8be0079c531659141344cd1fd0a4f28419497f9722a3daafe3b4186f6b6457e09190a35050565b634e487b7160e01b600052604160045260246000fd5b604051601f8201601f191681016001600160401b0381118282101715620002ae57620002ae6200026d565b604052919050565b60006001600160401b03821115620002d257620002d26200026d565b5060051b60200190565b80516001600160a01b0381168114620002f457600080fd5b919050565b600082601f8301126200030b57600080fd5b81516020620003246200031e83620002b6565b62000283565b82815260059290921b840181019181810190868411156200034457600080fd5b8286015b8481101562000361578051835291830191830162000348565b509695505050505050565b6000806000606084860312156200038257600080fd5b83516001600160401b03808211156200039a57600080fd5b818601915086601f830112620003af57600080fd5b81516020620003c26200031e83620002b6565b82815260059290921b8401810191818101908a841115620003e257600080fd5b948201945b838610156200040b57620003fb86620002dc565b82529482019490820190620003e7565b918901519197509093505050808211156200042557600080fd5b506200043486828701620002f9565b9250506200044560408501620002dc565b90509250925092565b634e487b7160e01b600052603260045260246000fd5b634e487b7160e01b600052601160045260246000fd5b6000821982111562000490576200049062000464565b500190565b6000600019821415620004ac57620004ac62000464565b5060010190565b60805160a0516110b1620004fc600039600081816101dc0152818161027a015281816106ba015261088901526000818161010b01528181610331015261077101526110b16000f3fe608060405234801561001057600080fd5b50600436106100be5760003560e01c80638da5cb5b11610076578063d8f163ab1161005b578063d8f163ab146101bb578063f2fde38b146101c4578063f363264a146101d757600080fd5b80638da5cb5b14610140578063a7310b581461017f57600080fd5b8063715018a6116100a7578063715018a6146100fe57806385e3f9971461010657806387b0be481461012d57600080fd5b8063097aad10146100c357806319281afd146100e9575b600080fd5b6100d66100d1366004610e7f565b6101fe565b6040519081526020015b60405180910390f35b6100fc6100f7366004610e9a565b610377565b005b6100fc61055e565b6100d67f000000000000000000000000000000000000000000000000000000000000000081565b6100fc61013b366004610e7f565b610572565b60005473ffffffffffffffffffffffffffffffffffffffff165b60405173ffffffffffffffffffffffffffffffffffffffff90911681526020016100e0565b6101a661018d366004610e7f565b6003602052600090815260409020805460019091015482565b604080519283526020830191909152016100e0565b6100d660025481565b6100fc6101d2366004610e7f565b610909565b61015a7f000000000000000000000000000000000000000000000000000000000000000081565b73ffffffffffffffffffffffffffffffffffffffff811660009081526003602052604081205461023057506000919050565b6002546040517f70a082310000000000000000000000000000000000000000000000000000000081523060048201526000919073ffffffffffffffffffffffffffffffffffffffff7f000000000000000000000000000000000000000000000000000000000000000016906370a082319060240160206040518083038186803b1580156102bc57600080fd5b505afa1580156102d0573d6000803e3d6000fd5b505050506040513d601f19601f820116820180604052508101906102f49190610ecd565b6102fe9190610f15565b73ffffffffffffffffffffffffffffffffffffffff841660009081526003602052604081206001810154905492935090917f00000000000000000000000000000000000000000000000000000000000000009061035b9085610f2d565b6103659190610f6a565b61036f9190610fa5565b949350505050565b61037f6109c0565b73ffffffffffffffffffffffffffffffffffffffff8116600090815260036020526040902054610436576040517f08c379a000000000000000000000000000000000000000000000000000000000815260206004820152602660248201527f4f776e65723a2043757272656e7420726563697069656e7420686173206e6f2060448201527f736861726573000000000000000000000000000000000000000000000000000060648201526084015b60405180910390fd5b73ffffffffffffffffffffffffffffffffffffffff8216600090815260036020526040902054156104e9576040517f08c379a000000000000000000000000000000000000000000000000000000000815260206004820152602860248201527f4f776e65723a204e657720726563697069656e7420686173206578697374696e60448201527f6720736861726573000000000000000000000000000000000000000000000000606482015260840161042d565b73ffffffffffffffffffffffffffffffffffffffff80821660008181526003602052604080822080549487168084528284209586556001808301805491909701558484529083905593829055517f47eba4993da31bfed0680c802fb8577f1a9d57bb4c0881372fbe7ad29995a8809190a35050565b6105666109c0565b6105706000610a41565b565b600260015414156105df576040517f08c379a000000000000000000000000000000000000000000000000000000000815260206004820152601f60248201527f5265656e7472616e637947756172643a207265656e7472616e742063616c6c00604482015260640161042d565b600260015573ffffffffffffffffffffffffffffffffffffffff8116600090815260036020526040902054610670576040517f08c379a000000000000000000000000000000000000000000000000000000000815260206004820152601e60248201527f53706c69747465723a204163636f756e7420686173206e6f2073686172650000604482015260640161042d565b6002546040517f70a082310000000000000000000000000000000000000000000000000000000081523060048201526000919073ffffffffffffffffffffffffffffffffffffffff7f000000000000000000000000000000000000000000000000000000000000000016906370a082319060240160206040518083038186803b1580156106fc57600080fd5b505afa158015610710573d6000803e3d6000fd5b505050506040513d601f19601f820116820180604052508101906107349190610ecd565b61073e9190610f15565b73ffffffffffffffffffffffffffffffffffffffff831660009081526003602052604081206001810154905492935090917f00000000000000000000000000000000000000000000000000000000000000009061079b9085610f2d565b6107a59190610f6a565b6107af9190610fa5565b905080610818576040517f08c379a000000000000000000000000000000000000000000000000000000000815260206004820152601d60248201527f53706c69747465723a204e6f7468696e6720746f207472616e73666572000000604482015260640161042d565b73ffffffffffffffffffffffffffffffffffffffff831660009081526003602052604081206001018054839290610850908490610f15565b9250508190555080600260008282546108699190610f15565b909155506108b0905073ffffffffffffffffffffffffffffffffffffffff7f0000000000000000000000000000000000000000000000000000000000000000168483610ab6565b8273ffffffffffffffffffffffffffffffffffffffff167f12f4533b5cbd2c9f8a0752a2d0b16379af992dbb2a0844a5007a19d983b3a934826040516108f891815260200190565b60405180910390a250506001805550565b6109116109c0565b73ffffffffffffffffffffffffffffffffffffffff81166109b4576040517f08c379a000000000000000000000000000000000000000000000000000000000815260206004820152602660248201527f4f776e61626c653a206e6577206f776e657220697320746865207a65726f206160448201527f6464726573730000000000000000000000000000000000000000000000000000606482015260840161042d565b6109bd81610a41565b50565b60005473ffffffffffffffffffffffffffffffffffffffff163314610570576040517f08c379a000000000000000000000000000000000000000000000000000000000815260206004820181905260248201527f4f776e61626c653a2063616c6c6572206973206e6f7420746865206f776e6572604482015260640161042d565b6000805473ffffffffffffffffffffffffffffffffffffffff8381167fffffffffffffffffffffffff0000000000000000000000000000000000000000831681178455604051919092169283917f8be0079c531659141344cd1fd0a4f28419497f9722a3daafe3b4186f6b6457e09190a35050565b6040805173ffffffffffffffffffffffffffffffffffffffff8416602482015260448082018490528251808303909101815260649091019091526020810180517bffffffffffffffffffffffffffffffffffffffffffffffffffffffff167fa9059cbb00000000000000000000000000000000000000000000000000000000179052610b43908490610b48565b505050565b6000610baa826040518060400160405280602081526020017f5361666545524332303a206c6f772d6c6576656c2063616c6c206661696c65648152508573ffffffffffffffffffffffffffffffffffffffff16610c549092919063ffffffff16565b805190915015610b435780806020019051810190610bc89190610fbc565b610b43576040517f08c379a000000000000000000000000000000000000000000000000000000000815260206004820152602a60248201527f5361666545524332303a204552433230206f7065726174696f6e20646964206e60448201527f6f74207375636365656400000000000000000000000000000000000000000000606482015260840161042d565b6060610c638484600085610c6d565b90505b9392505050565b606082471015610cff576040517f08c379a000000000000000000000000000000000000000000000000000000000815260206004820152602660248201527f416464726573733a20696e73756666696369656e742062616c616e636520666f60448201527f722063616c6c0000000000000000000000000000000000000000000000000000606482015260840161042d565b73ffffffffffffffffffffffffffffffffffffffff85163b610d7d576040517f08c379a000000000000000000000000000000000000000000000000000000000815260206004820152601d60248201527f416464726573733a2063616c6c20746f206e6f6e2d636f6e7472616374000000604482015260640161042d565b6000808673ffffffffffffffffffffffffffffffffffffffff168587604051610da6919061100e565b60006040518083038185875af1925050503d8060008114610de3576040519150601f19603f3d011682016040523d82523d6000602084013e610de8565b606091505b5091509150610df8828286610e03565b979650505050505050565b60608315610e12575081610c66565b825115610e225782518084602001fd5b816040517f08c379a000000000000000000000000000000000000000000000000000000000815260040161042d919061102a565b803573ffffffffffffffffffffffffffffffffffffffff81168114610e7a57600080fd5b919050565b600060208284031215610e9157600080fd5b610c6682610e56565b60008060408385031215610ead57600080fd5b610eb683610e56565b9150610ec460208401610e56565b90509250929050565b600060208284031215610edf57600080fd5b5051919050565b7f4e487b7100000000000000000000000000000000000000000000000000000000600052601160045260246000fd5b60008219821115610f2857610f28610ee6565b500190565b6000817fffffffffffffffffffffffffffffffffffffffffffffffffffffffffffffffff0483118215151615610f6557610f65610ee6565b500290565b600082610fa0577f4e487b7100000000000000000000000000000000000000000000000000000000600052601260045260246000fd5b500490565b600082821015610fb757610fb7610ee6565b500390565b600060208284031215610fce57600080fd5b81518015158114610c6657600080fd5b60005b83811015610ff9578181015183820152602001610fe1565b83811115611008576000848401525b50505050565b60008251611020818460208701610fde565b9190910192915050565b6020815260008251806020840152611049816040850160208701610fde565b601f017fffffffffffffffffffffffffffffffffffffffffffffffffffffffffffffffe016919091016040019291505056fea2646970667358221220ba52332007a7e4905b3657b19a38a8377ef3406dda694d4c0da80e8b5930120964736f6c63430008090033",
  "linkReferences": {},
  "deployedLinkReferences": {}
}