{
  "_format": "hh-sol-artifact-1",
  "contractName": "TradingRewardsDistributor",
  "sourceName": "contracts/staking/TradingRewardsDistributor.sol",
  "abi": [
    {
      "inputs": [
        {
          "internalType": "address",
          "name": "hunterGovernanceToken_",
          "type": "address"
        }
      ],
      "stateMutability": "nonpayable",
      "type": "constructor"
    },
    {
      "anonymous": false,
      "inputs": [
        {
          "indexed": true,
          "internalType": "address",
          "name": "previousOwner",
          "type": "address"
        },
        {
          "indexed": true,
          "internalType": "address",
          "name": "newOwner",
          "type": "address"
        }
      ],
      "name": "OwnershipTransferred",
      "type": "event"
    },
    {
      "anonymous": false,
      "inputs": [
        {
          "indexed": false,
          "internalType": "address",
          "name": "account",
          "type": "address"
        }
      ],
      "name": "Paused",
      "type": "event"
    },
    {
      "anonymous": false,
      "inputs": [
        {
          "indexed": true,
          "internalType": "address",
          "name": "user",
          "type": "address"
        },
        {
          "indexed": true,
          "internalType": "uint256",
          "name": "rewardRound",
          "type": "uint256"
        },
        {
          "indexed": false,
          "internalType": "uint256",
          "name": "amount",
          "type": "uint256"
        }
      ],
      "name": "RewardsClaim",
      "type": "event"
    },
    {
      "anonymous": false,
      "inputs": [
        {
          "indexed": false,
          "internalType": "uint256",
          "name": "amount",
          "type": "uint256"
        }
      ],
      "name": "TokenWithdrawnOwner",
      "type": "event"
    },
    {
      "anonymous": false,
      "inputs": [
        {
          "indexed": false,
          "internalType": "address",
          "name": "account",
          "type": "address"
        }
      ],
      "name": "Unpaused",
      "type": "event"
    },
    {
      "anonymous": false,
      "inputs": [
        {
          "indexed": true,
          "internalType": "uint256",
          "name": "rewardRound",
          "type": "uint256"
        }
      ],
      "name": "UpdateTradingRewards",
      "type": "event"
    },
    {
      "inputs": [],
      "name": "BUFFER_ADMIN_WITHDRAW",
      "outputs": [
        {
          "internalType": "uint256",
          "name": "",
          "type": "uint256"
        }
      ],
      "stateMutability": "view",
      "type": "function"
    },
    {
      "inputs": [
        {
          "internalType": "address",
          "name": "",
          "type": "address"
        }
      ],
      "name": "amountClaimedByUser",
      "outputs": [
        {
          "internalType": "uint256",
          "name": "",
          "type": "uint256"
        }
      ],
      "stateMutability": "view",
      "type": "function"
    },
    {
      "inputs": [
        {
          "internalType": "address",
          "name": "user",
          "type": "address"
        },
        {
          "internalType": "uint256",
          "name": "amount",
          "type": "uint256"
        },
        {
          "internalType": "bytes32[]",
          "name": "merkleProof",
          "type": "bytes32[]"
        }
      ],
      "name": "canClaim",
      "outputs": [
        {
          "internalType": "bool",
          "name": "",
          "type": "bool"
        },
        {
          "internalType": "uint256",
          "name": "",
          "type": "uint256"
        }
      ],
      "stateMutability": "view",
      "type": "function"
    },
    {
      "inputs": [
        {
          "internalType": "uint256",
          "name": "amount",
          "type": "uint256"
        },
        {
          "internalType": "bytes32[]",
          "name": "merkleProof",
          "type": "bytes32[]"
        }
      ],
      "name": "claim",
      "outputs": [],
      "stateMutability": "nonpayable",
      "type": "function"
    },
    {
      "inputs": [],
      "name": "currentRewardRound",
      "outputs": [
        {
          "internalType": "uint256",
          "name": "",
          "type": "uint256"
        }
      ],
      "stateMutability": "view",
      "type": "function"
    },
    {
      "inputs": [
        {
          "internalType": "uint256",
          "name": "",
          "type": "uint256"
        },
        {
          "internalType": "address",
          "name": "",
          "type": "address"
        }
      ],
      "name": "hasUserClaimedForRewardRound",
      "outputs": [
        {
          "internalType": "bool",
          "name": "",
          "type": "bool"
        }
      ],
      "stateMutability": "view",
      "type": "function"
    },
    {
      "inputs": [],
      "name": "hunterGovernanceToken",
      "outputs": [
        {
          "internalType": "contract IERC20",
          "name": "",
          "type": "address"
        }
      ],
      "stateMutability": "view",
      "type": "function"
    },
    {
      "inputs": [],
      "name": "lastPausedTimestamp",
      "outputs": [
        {
          "internalType": "uint256",
          "name": "",
          "type": "uint256"
        }
      ],
      "stateMutability": "view",
      "type": "function"
    },
    {
      "inputs": [],
      "name": "maximumAmountPerUserInCurrentTree",
      "outputs": [
        {
          "internalType": "uint256",
          "name": "",
          "type": "uint256"
        }
      ],
      "stateMutability": "view",
      "type": "function"
    },
    {
      "inputs": [
        {
          "internalType": "uint256",
          "name": "",
          "type": "uint256"
        }
      ],
      "name": "merkleRootOfRewardRound",
      "outputs": [
        {
          "internalType": "bytes32",
          "name": "",
          "type": "bytes32"
        }
      ],
      "stateMutability": "view",
      "type": "function"
    },
    {
      "inputs": [
        {
          "internalType": "bytes32",
          "name": "",
          "type": "bytes32"
        }
      ],
      "name": "merkleRootUsed",
      "outputs": [
        {
          "internalType": "bool",
          "name": "",
          "type": "bool"
        }
      ],
      "stateMutability": "view",
      "type": "function"
    },
    {
      "inputs": [],
      "name": "owner",
      "outputs": [
        {
          "internalType": "address",
          "name": "",
          "type": "address"
        }
      ],
      "stateMutability": "view",
      "type": "function"
    },
    {
      "inputs": [],
      "name": "pauseDistribution",
      "outputs": [],
      "stateMutability": "nonpayable",
      "type": "function"
    },
    {
      "inputs": [],
      "name": "paused",
      "outputs": [
        {
          "internalType": "bool",
          "name": "",
          "type": "bool"
        }
      ],
      "stateMutability": "view",
      "type": "function"
    },
    {
      "inputs": [],
      "name": "renounceOwnership",
      "outputs": [],
      "stateMutability": "nonpayable",
      "type": "function"
    },
    {
      "inputs": [
        {
          "internalType": "address",
          "name": "newOwner",
          "type": "address"
        }
      ],
      "name": "transferOwnership",
      "outputs": [],
      "stateMutability": "nonpayable",
      "type": "function"
    },
    {
      "inputs": [],
      "name": "unpauseDistribution",
      "outputs": [],
      "stateMutability": "nonpayable",
      "type": "function"
    },
    {
      "inputs": [
        {
          "internalType": "bytes32",
          "name": "merkleRoot",
          "type": "bytes32"
        },
        {
          "internalType": "uint256",
          "name": "newMaximumAmountPerUser",
          "type": "uint256"
        }
      ],
      "name": "updateTradingRewards",
      "outputs": [],
      "stateMutability": "nonpayable",
      "type": "function"
    },
    {
      "inputs": [
        {
          "internalType": "uint256",
          "name": "amount",
          "type": "uint256"
        }
      ],
      "name": "withdrawTokenRewards",
      "outputs": [],
      "stateMutability": "nonpayable",
      "type": "function"
    }
  ],
  "bytecode": "0x60a06040523480156200001157600080fd5b50604051620014f1380380620014f1833981016040819052620000349162000167565b6000805460ff19169055600180556200004d336200006b565b6001600160a01b03811660805262000064620000bd565b5062000199565b600280546001600160a01b038381166001600160a01b0319831681179093556040519116919082907f8be0079c531659141344cd1fd0a4f28419497f9722a3daafe3b4186f6b6457e090600090a35050565b620000c76200011a565b6000805460ff191660011790557f62e78cea01bee320cd4e420270b5ea74000d11b0c9f74754ebdbfc544b05a258620000fd3390565b6040516001600160a01b03909116815260200160405180910390a1565b60005460ff1615620001655760405162461bcd60e51b815260206004820152601060248201526f14185d5cd8589b194e881c185d5cd95960821b604482015260640160405180910390fd5b565b6000602082840312156200017a57600080fd5b81516001600160a01b03811681146200019257600080fd5b9392505050565b60805161132e620001c3600039600081816102f80152818161052c0152610748015261132e6000f3fe608060405234801561001057600080fd5b50600436106101515760003560e01c80638923e2f7116100cd578063dc38bdb511610081578063f363264a11610066578063f363264a146102f3578063fa4619741461031a578063ff0a4eb01461032357600080fd5b8063dc38bdb5146102b6578063f2fde38b146102e057600080fd5b80639ea76f34116100b25780639ea76f341461025d578063b94ec9d01461028b578063ba42590d1461029357600080fd5b80638923e2f71461020b5780638da5cb5b1461021e57600080fd5b80633b66f49d11610124578063715018a611610109578063715018a6146101d057806384483c86146101d8578063847fadca146101f857600080fd5b80633b66f49d146101995780635c975abb146101b957600080fd5b80631040faf914610156578063141fd8c8146101725780632f52ebb71461017c57806331cec7a314610191575b600080fd5b61015f60035481565b6040519081526020015b60405180910390f35b61015f6203f48081565b61018f61018a366004611022565b61032c565b005b61018f610596565b61015f6101a7366004611097565b60066020526000908152604090205481565b60005460ff165b6040519015158152602001610169565b61018f6105b4565b61015f6101e63660046110b2565b60076020526000908152604090205481565b61018f6102063660046110cb565b6105c6565b61018f6102193660046110b2565b6106bf565b60025473ffffffffffffffffffffffffffffffffffffffff165b60405173ffffffffffffffffffffffffffffffffffffffff9091168152602001610169565b6101c061026b3660046110ed565b600960209081526000928352604080842090915290825290205460ff1681565b61018f6107a5565b6101c06102a13660046110b2565b60086020526000908152604090205460ff1681565b6102c96102c4366004611119565b6107bd565b604080519215158352602083019190915201610169565b61018f6102ee366004611097565b6107da565b6102387f000000000000000000000000000000000000000000000000000000000000000081565b61015f60045481565b61015f60055481565b610334610877565b6002600154141561038c5760405162461bcd60e51b815260206004820152601f60248201527f5265656e7472616e637947756172643a207265656e7472616e742063616c6c0060448201526064015b60405180910390fd5b6002600155600354600090815260096020908152604080832033845290915290205460ff16156103fe5760405162461bcd60e51b815260206004820152601860248201527f526577617264733a20416c726561647920636c61696d656400000000000000006044820152606401610383565b60008061040d338686866108ca565b915091508161045e5760405162461bcd60e51b815260206004820152601660248201527f526577617264733a20496e76616c69642070726f6f66000000000000000000006044820152606401610383565b8460055410156104b05760405162461bcd60e51b815260206004820152601f60248201527f526577617264733a20416d6f756e7420686967686572207468616e206d6178006044820152606401610383565b6003546000908152600960209081526040808320338452825280832080547fffffffffffffffffffffffffffffffffffffffffffffffffffffffffffffff0016600117905560069091528120805483929061050c9084906111a2565b90915550610553905073ffffffffffffffffffffffffffffffffffffffff7f0000000000000000000000000000000000000000000000000000000000000000163383610a03565b60035460405182815233907fe8dbd8c18906df11a70832fe7c874d1fddf6952cee2320658d669256183879999060200160405180910390a3505060018055505050565b61059e610a95565b6105a6610877565b426004556105b2610afc565b565b6105bc610a95565b6105b26000610b81565b6105ce610a95565b60008281526008602052604090205460ff161561062d5760405162461bcd60e51b815260206004820152601f60248201527f4f776e65723a204d65726b6c6520726f6f7420616c72656164792075736564006044820152606401610383565b6003805490600061063d836111ba565b9091555050600380546000908152600760209081526040808320869055858352600890915280822080547fffffffffffffffffffffffffffffffffffffffffffffffffffffffffffffff001660011790556005849055915491517f0b1d6b49e69d133866d064a73f0181e1e35aa94fde3ef0095587d7ebd0423caa9190a25050565b6106c7610a95565b6106cf610bf8565b6203f4806004546106e091906111a2565b421161072e5760405162461bcd60e51b815260206004820152601c60248201527f4f776e65723a20546f6f206561726c7920746f207769746864726177000000006044820152606401610383565b61076f73ffffffffffffffffffffffffffffffffffffffff7f0000000000000000000000000000000000000000000000000000000000000000163383610a03565b6040518181527fb4cd5c4a08bbed33abfe773ece179d156730e39629e065b7dcd8263027387c1d9060200160405180910390a150565b6107ad610a95565b6107b5610bf8565b6105b2610c4a565b6000806107cc868686866108ca565b915091505b94509492505050565b6107e2610a95565b73ffffffffffffffffffffffffffffffffffffffff811661086b5760405162461bcd60e51b815260206004820152602660248201527f4f776e61626c653a206e6577206f776e657220697320746865207a65726f206160448201527f64647265737300000000000000000000000000000000000000000000000000006064820152608401610383565b61087481610b81565b50565b60005460ff16156105b25760405162461bcd60e51b815260206004820152601060248201527f5061757361626c653a20706175736564000000000000000000000000000000006044820152606401610383565b6040517fffffffffffffffffffffffffffffffffffffffff000000000000000000000000606086901b1660208201526034810184905260009081908190605401604051602081830303815290604052805190602001209050600061097186868080602002602001604051908101604052809392919081815260200183836020028082843760009201829052506003548152600760205260409020549250869150610ca19050565b90508015806109b25750600354600090815260096020908152604080832073ffffffffffffffffffffffffffffffffffffffff8c16845290915290205460ff165b156109c5576000809350935050506107d1565b73ffffffffffffffffffffffffffffffffffffffff88166000908152600660205260409020546001906109f890896111f3565b9350935050506107d1565b6040805173ffffffffffffffffffffffffffffffffffffffff8416602482015260448082018490528251808303909101815260649091019091526020810180517bffffffffffffffffffffffffffffffffffffffffffffffffffffffff167fa9059cbb00000000000000000000000000000000000000000000000000000000179052610a90908490610cb9565b505050565b60025473ffffffffffffffffffffffffffffffffffffffff1633146105b25760405162461bcd60e51b815260206004820181905260248201527f4f776e61626c653a2063616c6c6572206973206e6f7420746865206f776e65726044820152606401610383565b610b04610877565b600080547fffffffffffffffffffffffffffffffffffffffffffffffffffffffffffffff001660011790557f62e78cea01bee320cd4e420270b5ea74000d11b0c9f74754ebdbfc544b05a258610b573390565b60405173ffffffffffffffffffffffffffffffffffffffff909116815260200160405180910390a1565b6002805473ffffffffffffffffffffffffffffffffffffffff8381167fffffffffffffffffffffffff0000000000000000000000000000000000000000831681179093556040519116919082907f8be0079c531659141344cd1fd0a4f28419497f9722a3daafe3b4186f6b6457e090600090a35050565b60005460ff166105b25760405162461bcd60e51b815260206004820152601460248201527f5061757361626c653a206e6f74207061757365640000000000000000000000006044820152606401610383565b610c52610bf8565b600080547fffffffffffffffffffffffffffffffffffffffffffffffffffffffffffffff001690557f5db9ee0a495bf2e6ff9c91a7834c1ba4fdd244a5e8aa4e537bd38aeae4b073aa33610b57565b600082610cae8584610dab565b1490505b9392505050565b6000610d1b826040518060400160405280602081526020017f5361666545524332303a206c6f772d6c6576656c2063616c6c206661696c65648152508573ffffffffffffffffffffffffffffffffffffffff16610df89092919063ffffffff16565b805190915015610a905780806020019051810190610d39919061120a565b610a905760405162461bcd60e51b815260206004820152602a60248201527f5361666545524332303a204552433230206f7065726174696f6e20646964206e60448201527f6f742073756363656564000000000000000000000000000000000000000000006064820152608401610383565b600081815b8451811015610df057610ddc82868381518110610dcf57610dcf61122c565b6020026020010151610e0f565b915080610de8816111ba565b915050610db0565b509392505050565b6060610e078484600085610e3b565b949350505050565b6000818310610e2b576000828152602084905260409020610cb2565b5060009182526020526040902090565b606082471015610eb35760405162461bcd60e51b815260206004820152602660248201527f416464726573733a20696e73756666696369656e742062616c616e636520666f60448201527f722063616c6c00000000000000000000000000000000000000000000000000006064820152608401610383565b73ffffffffffffffffffffffffffffffffffffffff85163b610f175760405162461bcd60e51b815260206004820152601d60248201527f416464726573733a2063616c6c20746f206e6f6e2d636f6e74726163740000006044820152606401610383565b6000808673ffffffffffffffffffffffffffffffffffffffff168587604051610f40919061128b565b60006040518083038185875af1925050503d8060008114610f7d576040519150601f19603f3d011682016040523d82523d6000602084013e610f82565b606091505b5091509150610f92828286610f9d565b979650505050505050565b60608315610fac575081610cb2565b825115610fbc5782518084602001fd5b8160405162461bcd60e51b815260040161038391906112a7565b60008083601f840112610fe857600080fd5b50813567ffffffffffffffff81111561100057600080fd5b6020830191508360208260051b850101111561101b57600080fd5b9250929050565b60008060006040848603121561103757600080fd5b83359250602084013567ffffffffffffffff81111561105557600080fd5b61106186828701610fd6565b9497909650939450505050565b803573ffffffffffffffffffffffffffffffffffffffff8116811461109257600080fd5b919050565b6000602082840312156110a957600080fd5b610cb28261106e565b6000602082840312156110c457600080fd5b5035919050565b600080604083850312156110de57600080fd5b50508035926020909101359150565b6000806040838503121561110057600080fd5b823591506111106020840161106e565b90509250929050565b6000806000806060858703121561112f57600080fd5b6111388561106e565b935060208501359250604085013567ffffffffffffffff81111561115b57600080fd5b61116787828801610fd6565b95989497509550505050565b7f4e487b7100000000000000000000000000000000000000000000000000000000600052601160045260246000fd5b600082198211156111b5576111b5611173565b500190565b60007fffffffffffffffffffffffffffffffffffffffffffffffffffffffffffffffff8214156111ec576111ec611173565b5060010190565b60008282101561120557611205611173565b500390565b60006020828403121561121c57600080fd5b81518015158114610cb257600080fd5b7f4e487b7100000000000000000000000000000000000000000000000000000000600052603260045260246000fd5b60005b8381101561127657818101518382015260200161125e565b83811115611285576000848401525b50505050565b6000825161129d81846020870161125b565b9190910192915050565b60208152600082518060208401526112c681604085016020870161125b565b601f017fffffffffffffffffffffffffffffffffffffffffffffffffffffffffffffffe016919091016040019291505056fea2646970667358221220f9fca885a01944fd6dec1a9160a031cc213ee73b473152c502ae365cb12d871964736f6c63430008090033",
  "linkReferences": {},
  "deployedLinkReferences": {}
}